Archive member included to satisfy reference by file (symbol)

d:/programfiles/nxp/mcuxpressoide_11.1.0_3209/ide/plugins/com.nxp.mcuxpresso.tools.win32_11.1.0.201909161352/tools/bin/../lib/gcc/arm-none-eabi/8.3.1/thumb/v7e-m+fp/hard\libgcc.a(_arm_addsubdf3.o)
                              ./source/Device_manager.o (__aeabi_i2d)
d:/programfiles/nxp/mcuxpressoide_11.1.0_3209/ide/plugins/com.nxp.mcuxpresso.tools.win32_11.1.0.201909161352/tools/bin/../lib/gcc/arm-none-eabi/8.3.1/thumb/v7e-m+fp/hard\libgcc.a(_arm_muldivdf3.o)
                              ./source/Device_manager.o (__aeabi_dmul)
d:/programfiles/nxp/mcuxpressoide_11.1.0_3209/ide/plugins/com.nxp.mcuxpresso.tools.win32_11.1.0.201909161352/tools/bin/../lib/gcc/arm-none-eabi/8.3.1/thumb/v7e-m+fp/hard\libgcc.a(_arm_truncdfsf2.o)
                              ./source/Device_manager.o (__aeabi_d2f)
d:/programfiles/nxp/mcuxpressoide_11.1.0_3209/ide/plugins/com.nxp.mcuxpresso.tools.win32_11.1.0.201909161352/tools/bin/../lib/gcc/arm-none-eabi/8.3.1/thumb/v7e-m+fp/hard\libgcc.a(_aeabi_uldivmod.o)
                              ./drivers/fsl_clock.o (__aeabi_uldivmod)
d:/programfiles/nxp/mcuxpressoide_11.1.0_3209/ide/plugins/com.nxp.mcuxpresso.tools.win32_11.1.0.201909161352/tools/bin/../lib/gcc/arm-none-eabi/8.3.1/thumb/v7e-m+fp/hard\libgcc.a(_udivmoddi4.o)
                              d:/programfiles/nxp/mcuxpressoide_11.1.0_3209/ide/plugins/com.nxp.mcuxpresso.tools.win32_11.1.0.201909161352/tools/bin/../lib/gcc/arm-none-eabi/8.3.1/thumb/v7e-m+fp/hard\libgcc.a(_aeabi_uldivmod.o) (__udivmoddi4)
d:/programfiles/nxp/mcuxpressoide_11.1.0_3209/ide/plugins/com.nxp.mcuxpresso.tools.win32_11.1.0.201909161352/tools/bin/../lib/gcc/arm-none-eabi/8.3.1/thumb/v7e-m+fp/hard\libgcc.a(_dvmd_tls.o)
                              d:/programfiles/nxp/mcuxpressoide_11.1.0_3209/ide/plugins/com.nxp.mcuxpresso.tools.win32_11.1.0.201909161352/tools/bin/../lib/gcc/arm-none-eabi/8.3.1/thumb/v7e-m+fp/hard\libgcc.a(_aeabi_uldivmod.o) (__aeabi_ldiv0)
d:/programfiles/nxp/mcuxpressoide_11.1.0_3209/ide/plugins/com.nxp.mcuxpresso.tools.win32_11.1.0.201909161352/tools/bin/../lib/gcc/arm-none-eabi/8.3.1/../../../../arm-none-eabi/lib/thumb/v7e-m+fp/hard\libc.a(lib_a-malloc.o)
                              ./source/cpp_config.o (malloc)
d:/programfiles/nxp/mcuxpressoide_11.1.0_3209/ide/plugins/com.nxp.mcuxpresso.tools.win32_11.1.0.201909161352/tools/bin/../lib/gcc/arm-none-eabi/8.3.1/../../../../arm-none-eabi/lib/thumb/v7e-m+fp/hard\libc.a(lib_a-mallocr.o)
                              d:/programfiles/nxp/mcuxpressoide_11.1.0_3209/ide/plugins/com.nxp.mcuxpresso.tools.win32_11.1.0.201909161352/tools/bin/../lib/gcc/arm-none-eabi/8.3.1/../../../../arm-none-eabi/lib/thumb/v7e-m+fp/hard\libc.a(lib_a-malloc.o) (_malloc_r)
d:/programfiles/nxp/mcuxpressoide_11.1.0_3209/ide/plugins/com.nxp.mcuxpresso.tools.win32_11.1.0.201909161352/tools/bin/../lib/gcc/arm-none-eabi/8.3.1/../../../../arm-none-eabi/lib/thumb/v7e-m+fp/hard\libc.a(lib_a-memcpy.o)
                              ./amazon-freertos/freertos_kernel/queue.o (memcpy)
d:/programfiles/nxp/mcuxpressoide_11.1.0_3209/ide/plugins/com.nxp.mcuxpresso.tools.win32_11.1.0.201909161352/tools/bin/../lib/gcc/arm-none-eabi/8.3.1/../../../../arm-none-eabi/lib/thumb/v7e-m+fp/hard\libc.a(lib_a-memset.o)
                              ./drivers/freertos/fsl_lpi2c_freertos.o (memset)
d:/programfiles/nxp/mcuxpressoide_11.1.0_3209/ide/plugins/com.nxp.mcuxpresso.tools.win32_11.1.0.201909161352/tools/bin/../lib/gcc/arm-none-eabi/8.3.1/../../../../arm-none-eabi/lib/thumb/v7e-m+fp/hard\libc.a(lib_a-mlock.o)
                              d:/programfiles/nxp/mcuxpressoide_11.1.0_3209/ide/plugins/com.nxp.mcuxpresso.tools.win32_11.1.0.201909161352/tools/bin/../lib/gcc/arm-none-eabi/8.3.1/../../../../arm-none-eabi/lib/thumb/v7e-m+fp/hard\libc.a(lib_a-mallocr.o) (__malloc_lock)
d:/programfiles/nxp/mcuxpressoide_11.1.0_3209/ide/plugins/com.nxp.mcuxpresso.tools.win32_11.1.0.201909161352/tools/bin/../lib/gcc/arm-none-eabi/8.3.1/../../../../arm-none-eabi/lib/thumb/v7e-m+fp/hard\libc.a(lib_a-printf.o)
                              ./utilities/fsl_assert.o (printf)
d:/programfiles/nxp/mcuxpressoide_11.1.0_3209/ide/plugins/com.nxp.mcuxpresso.tools.win32_11.1.0.201909161352/tools/bin/../lib/gcc/arm-none-eabi/8.3.1/../../../../arm-none-eabi/lib/thumb/v7e-m+fp/hard\libc.a(lib_a-sbrkr.o)
                              d:/programfiles/nxp/mcuxpressoide_11.1.0_3209/ide/plugins/com.nxp.mcuxpresso.tools.win32_11.1.0.201909161352/tools/bin/../lib/gcc/arm-none-eabi/8.3.1/../../../../arm-none-eabi/lib/thumb/v7e-m+fp/hard\libc.a(lib_a-mallocr.o) (_sbrk_r)
d:/programfiles/nxp/mcuxpressoide_11.1.0_3209/ide/plugins/com.nxp.mcuxpresso.tools.win32_11.1.0.201909161352/tools/bin/../lib/gcc/arm-none-eabi/8.3.1/../../../../arm-none-eabi/lib/thumb/v7e-m+fp/hard\libc.a(lib_a-strlen.o)
                              ./utilities/fsl_str.o (strlen)
d:/programfiles/nxp/mcuxpressoide_11.1.0_3209/ide/plugins/com.nxp.mcuxpresso.tools.win32_11.1.0.201909161352/tools/bin/../lib/gcc/arm-none-eabi/8.3.1/../../../../arm-none-eabi/lib/thumb/v7e-m+fp/hard\libc.a(lib_a-vfprintf.o)
                              d:/programfiles/nxp/mcuxpressoide_11.1.0_3209/ide/plugins/com.nxp.mcuxpresso.tools.win32_11.1.0.201909161352/tools/bin/../lib/gcc/arm-none-eabi/8.3.1/../../../../arm-none-eabi/lib/thumb/v7e-m+fp/hard\libc.a(lib_a-printf.o) (_vfprintf_r)
d:/programfiles/nxp/mcuxpressoide_11.1.0_3209/ide/plugins/com.nxp.mcuxpresso.tools.win32_11.1.0.201909161352/tools/bin/../lib/gcc/arm-none-eabi/8.3.1/../../../../arm-none-eabi/lib/thumb/v7e-m+fp/hard\libc.a(lib_a-wsetup.o)
                              d:/programfiles/nxp/mcuxpressoide_11.1.0_3209/ide/plugins/com.nxp.mcuxpresso.tools.win32_11.1.0.201909161352/tools/bin/../lib/gcc/arm-none-eabi/8.3.1/../../../../arm-none-eabi/lib/thumb/v7e-m+fp/hard\libc.a(lib_a-vfprintf.o) (__swsetup_r)
d:/programfiles/nxp/mcuxpressoide_11.1.0_3209/ide/plugins/com.nxp.mcuxpresso.tools.win32_11.1.0.201909161352/tools/bin/../lib/gcc/arm-none-eabi/8.3.1/../../../../arm-none-eabi/lib/thumb/v7e-m+fp/hard\libc.a(lib_a-dtoa.o)
                              d:/programfiles/nxp/mcuxpressoide_11.1.0_3209/ide/plugins/com.nxp.mcuxpresso.tools.win32_11.1.0.201909161352/tools/bin/../lib/gcc/arm-none-eabi/8.3.1/../../../../arm-none-eabi/lib/thumb/v7e-m+fp/hard\libc.a(lib_a-vfprintf.o) (_dtoa_r)
d:/programfiles/nxp/mcuxpressoide_11.1.0_3209/ide/plugins/com.nxp.mcuxpresso.tools.win32_11.1.0.201909161352/tools/bin/../lib/gcc/arm-none-eabi/8.3.1/../../../../arm-none-eabi/lib/thumb/v7e-m+fp/hard\libc.a(lib_a-fflush.o)
                              d:/programfiles/nxp/mcuxpressoide_11.1.0_3209/ide/plugins/com.nxp.mcuxpresso.tools.win32_11.1.0.201909161352/tools/bin/../lib/gcc/arm-none-eabi/8.3.1/../../../../arm-none-eabi/lib/thumb/v7e-m+fp/hard\libc.a(lib_a-vfprintf.o) (_fflush_r)
d:/programfiles/nxp/mcuxpressoide_11.1.0_3209/ide/plugins/com.nxp.mcuxpresso.tools.win32_11.1.0.201909161352/tools/bin/../lib/gcc/arm-none-eabi/8.3.1/../../../../arm-none-eabi/lib/thumb/v7e-m+fp/hard\libc.a(lib_a-findfp.o)
                              d:/programfiles/nxp/mcuxpressoide_11.1.0_3209/ide/plugins/com.nxp.mcuxpresso.tools.win32_11.1.0.201909161352/tools/bin/../lib/gcc/arm-none-eabi/8.3.1/../../../../arm-none-eabi/lib/thumb/v7e-m+fp/hard\libc.a(lib_a-vfprintf.o) (__sinit)
d:/programfiles/nxp/mcuxpressoide_11.1.0_3209/ide/plugins/com.nxp.mcuxpresso.tools.win32_11.1.0.201909161352/tools/bin/../lib/gcc/arm-none-eabi/8.3.1/../../../../arm-none-eabi/lib/thumb/v7e-m+fp/hard\libc.a(lib_a-freer.o)
                              d:/programfiles/nxp/mcuxpressoide_11.1.0_3209/ide/plugins/com.nxp.mcuxpresso.tools.win32_11.1.0.201909161352/tools/bin/../lib/gcc/arm-none-eabi/8.3.1/../../../../arm-none-eabi/lib/thumb/v7e-m+fp/hard\libc.a(lib_a-malloc.o) (_free_r)
d:/programfiles/nxp/mcuxpressoide_11.1.0_3209/ide/plugins/com.nxp.mcuxpresso.tools.win32_11.1.0.201909161352/tools/bin/../lib/gcc/arm-none-eabi/8.3.1/../../../../arm-none-eabi/lib/thumb/v7e-m+fp/hard\libc.a(lib_a-fwalk.o)
                              d:/programfiles/nxp/mcuxpressoide_11.1.0_3209/ide/plugins/com.nxp.mcuxpresso.tools.win32_11.1.0.201909161352/tools/bin/../lib/gcc/arm-none-eabi/8.3.1/../../../../arm-none-eabi/lib/thumb/v7e-m+fp/hard\libc.a(lib_a-findfp.o) (_fwalk)
d:/programfiles/nxp/mcuxpressoide_11.1.0_3209/ide/plugins/com.nxp.mcuxpresso.tools.win32_11.1.0.201909161352/tools/bin/../lib/gcc/arm-none-eabi/8.3.1/../../../../arm-none-eabi/lib/thumb/v7e-m+fp/hard\libc.a(lib_a-impure.o)
                              d:/programfiles/nxp/mcuxpressoide_11.1.0_3209/ide/plugins/com.nxp.mcuxpresso.tools.win32_11.1.0.201909161352/tools/bin/../lib/gcc/arm-none-eabi/8.3.1/../../../../arm-none-eabi/lib/thumb/v7e-m+fp/hard\libc.a(lib_a-fflush.o) (_global_impure_ptr)
d:/programfiles/nxp/mcuxpressoide_11.1.0_3209/ide/plugins/com.nxp.mcuxpresso.tools.win32_11.1.0.201909161352/tools/bin/../lib/gcc/arm-none-eabi/8.3.1/../../../../arm-none-eabi/lib/thumb/v7e-m+fp/hard\libc.a(lib_a-localeconv.o)
                              d:/programfiles/nxp/mcuxpressoide_11.1.0_3209/ide/plugins/com.nxp.mcuxpresso.tools.win32_11.1.0.201909161352/tools/bin/../lib/gcc/arm-none-eabi/8.3.1/../../../../arm-none-eabi/lib/thumb/v7e-m+fp/hard\libc.a(lib_a-vfprintf.o) (_localeconv_r)
d:/programfiles/nxp/mcuxpressoide_11.1.0_3209/ide/plugins/com.nxp.mcuxpresso.tools.win32_11.1.0.201909161352/tools/bin/../lib/gcc/arm-none-eabi/8.3.1/../../../../arm-none-eabi/lib/thumb/v7e-m+fp/hard\libc.a(lib_a-lock.o)
                              d:/programfiles/nxp/mcuxpressoide_11.1.0_3209/ide/plugins/com.nxp.mcuxpresso.tools.win32_11.1.0.201909161352/tools/bin/../lib/gcc/arm-none-eabi/8.3.1/../../../../arm-none-eabi/lib/thumb/v7e-m+fp/hard\libc.a(lib_a-vfprintf.o) (__retarget_lock_init_recursive)
d:/programfiles/nxp/mcuxpressoide_11.1.0_3209/ide/plugins/com.nxp.mcuxpresso.tools.win32_11.1.0.201909161352/tools/bin/../lib/gcc/arm-none-eabi/8.3.1/../../../../arm-none-eabi/lib/thumb/v7e-m+fp/hard\libc.a(lib_a-makebuf.o)
                              d:/programfiles/nxp/mcuxpressoide_11.1.0_3209/ide/plugins/com.nxp.mcuxpresso.tools.win32_11.1.0.201909161352/tools/bin/../lib/gcc/arm-none-eabi/8.3.1/../../../../arm-none-eabi/lib/thumb/v7e-m+fp/hard\libc.a(lib_a-wsetup.o) (__smakebuf_r)
d:/programfiles/nxp/mcuxpressoide_11.1.0_3209/ide/plugins/com.nxp.mcuxpresso.tools.win32_11.1.0.201909161352/tools/bin/../lib/gcc/arm-none-eabi/8.3.1/../../../../arm-none-eabi/lib/thumb/v7e-m+fp/hard\libc.a(lib_a-memchr.o)
                              d:/programfiles/nxp/mcuxpressoide_11.1.0_3209/ide/plugins/com.nxp.mcuxpresso.tools.win32_11.1.0.201909161352/tools/bin/../lib/gcc/arm-none-eabi/8.3.1/../../../../arm-none-eabi/lib/thumb/v7e-m+fp/hard\libc.a(lib_a-vfprintf.o) (memchr)
d:/programfiles/nxp/mcuxpressoide_11.1.0_3209/ide/plugins/com.nxp.mcuxpresso.tools.win32_11.1.0.201909161352/tools/bin/../lib/gcc/arm-none-eabi/8.3.1/../../../../arm-none-eabi/lib/thumb/v7e-m+fp/hard\libc.a(lib_a-mprec.o)
                              d:/programfiles/nxp/mcuxpressoide_11.1.0_3209/ide/plugins/com.nxp.mcuxpresso.tools.win32_11.1.0.201909161352/tools/bin/../lib/gcc/arm-none-eabi/8.3.1/../../../../arm-none-eabi/lib/thumb/v7e-m+fp/hard\libc.a(lib_a-dtoa.o) (_Balloc)
d:/programfiles/nxp/mcuxpressoide_11.1.0_3209/ide/plugins/com.nxp.mcuxpresso.tools.win32_11.1.0.201909161352/tools/bin/../lib/gcc/arm-none-eabi/8.3.1/../../../../arm-none-eabi/lib/thumb/v7e-m+fp/hard\libc.a(lib_a-reent.o)
                              d:/programfiles/nxp/mcuxpressoide_11.1.0_3209/ide/plugins/com.nxp.mcuxpresso.tools.win32_11.1.0.201909161352/tools/bin/../lib/gcc/arm-none-eabi/8.3.1/../../../../arm-none-eabi/lib/thumb/v7e-m+fp/hard\libc.a(lib_a-sbrkr.o) (errno)
d:/programfiles/nxp/mcuxpressoide_11.1.0_3209/ide/plugins/com.nxp.mcuxpresso.tools.win32_11.1.0.201909161352/tools/bin/../lib/gcc/arm-none-eabi/8.3.1/../../../../arm-none-eabi/lib/thumb/v7e-m+fp/hard\libc.a(lib_a-s_frexp.o)
                              d:/programfiles/nxp/mcuxpressoide_11.1.0_3209/ide/plugins/com.nxp.mcuxpresso.tools.win32_11.1.0.201909161352/tools/bin/../lib/gcc/arm-none-eabi/8.3.1/../../../../arm-none-eabi/lib/thumb/v7e-m+fp/hard\libc.a(lib_a-vfprintf.o) (frexp)
d:/programfiles/nxp/mcuxpressoide_11.1.0_3209/ide/plugins/com.nxp.mcuxpresso.tools.win32_11.1.0.201909161352/tools/bin/../lib/gcc/arm-none-eabi/8.3.1/../../../../arm-none-eabi/lib/thumb/v7e-m+fp/hard\libc.a(lib_a-stdio.o)
                              d:/programfiles/nxp/mcuxpressoide_11.1.0_3209/ide/plugins/com.nxp.mcuxpresso.tools.win32_11.1.0.201909161352/tools/bin/../lib/gcc/arm-none-eabi/8.3.1/../../../../arm-none-eabi/lib/thumb/v7e-m+fp/hard\libc.a(lib_a-findfp.o) (__sread)
d:/programfiles/nxp/mcuxpressoide_11.1.0_3209/ide/plugins/com.nxp.mcuxpresso.tools.win32_11.1.0.201909161352/tools/bin/../lib/gcc/arm-none-eabi/8.3.1/../../../../arm-none-eabi/lib/thumb/v7e-m+fp/hard\libc.a(lib_a-strncpy.o)
                              d:/programfiles/nxp/mcuxpressoide_11.1.0_3209/ide/plugins/com.nxp.mcuxpresso.tools.win32_11.1.0.201909161352/tools/bin/../lib/gcc/arm-none-eabi/8.3.1/../../../../arm-none-eabi/lib/thumb/v7e-m+fp/hard\libc.a(lib_a-vfprintf.o) (strncpy)
d:/programfiles/nxp/mcuxpressoide_11.1.0_3209/ide/plugins/com.nxp.mcuxpresso.tools.win32_11.1.0.201909161352/tools/bin/../lib/gcc/arm-none-eabi/8.3.1/../../../../arm-none-eabi/lib/thumb/v7e-m+fp/hard\libc.a(lib_a-vfiprintf.o)
                              d:/programfiles/nxp/mcuxpressoide_11.1.0_3209/ide/plugins/com.nxp.mcuxpresso.tools.win32_11.1.0.201909161352/tools/bin/../lib/gcc/arm-none-eabi/8.3.1/../../../../arm-none-eabi/lib/thumb/v7e-m+fp/hard\libc.a(lib_a-vfprintf.o) (__sprint_r)
d:/programfiles/nxp/mcuxpressoide_11.1.0_3209/ide/plugins/com.nxp.mcuxpresso.tools.win32_11.1.0.201909161352/tools/bin/../lib/gcc/arm-none-eabi/8.3.1/../../../../arm-none-eabi/lib/thumb/v7e-m+fp/hard\libc.a(lib_a-writer.o)
                              d:/programfiles/nxp/mcuxpressoide_11.1.0_3209/ide/plugins/com.nxp.mcuxpresso.tools.win32_11.1.0.201909161352/tools/bin/../lib/gcc/arm-none-eabi/8.3.1/../../../../arm-none-eabi/lib/thumb/v7e-m+fp/hard\libc.a(lib_a-stdio.o) (_write_r)
d:/programfiles/nxp/mcuxpressoide_11.1.0_3209/ide/plugins/com.nxp.mcuxpresso.tools.win32_11.1.0.201909161352/tools/bin/../lib/gcc/arm-none-eabi/8.3.1/../../../../arm-none-eabi/lib/thumb/v7e-m+fp/hard\libc.a(lib_a-callocr.o)
                              d:/programfiles/nxp/mcuxpressoide_11.1.0_3209/ide/plugins/com.nxp.mcuxpresso.tools.win32_11.1.0.201909161352/tools/bin/../lib/gcc/arm-none-eabi/8.3.1/../../../../arm-none-eabi/lib/thumb/v7e-m+fp/hard\libc.a(lib_a-mprec.o) (_calloc_r)
d:/programfiles/nxp/mcuxpressoide_11.1.0_3209/ide/plugins/com.nxp.mcuxpresso.tools.win32_11.1.0.201909161352/tools/bin/../lib/gcc/arm-none-eabi/8.3.1/../../../../arm-none-eabi/lib/thumb/v7e-m+fp/hard\libc.a(lib_a-closer.o)
                              d:/programfiles/nxp/mcuxpressoide_11.1.0_3209/ide/plugins/com.nxp.mcuxpresso.tools.win32_11.1.0.201909161352/tools/bin/../lib/gcc/arm-none-eabi/8.3.1/../../../../arm-none-eabi/lib/thumb/v7e-m+fp/hard\libc.a(lib_a-stdio.o) (_close_r)
d:/programfiles/nxp/mcuxpressoide_11.1.0_3209/ide/plugins/com.nxp.mcuxpresso.tools.win32_11.1.0.201909161352/tools/bin/../lib/gcc/arm-none-eabi/8.3.1/../../../../arm-none-eabi/lib/thumb/v7e-m+fp/hard\libc.a(lib_a-fclose.o)
                              d:/programfiles/nxp/mcuxpressoide_11.1.0_3209/ide/plugins/com.nxp.mcuxpresso.tools.win32_11.1.0.201909161352/tools/bin/../lib/gcc/arm-none-eabi/8.3.1/../../../../arm-none-eabi/lib/thumb/v7e-m+fp/hard\libc.a(lib_a-findfp.o) (_fclose_r)
d:/programfiles/nxp/mcuxpressoide_11.1.0_3209/ide/plugins/com.nxp.mcuxpresso.tools.win32_11.1.0.201909161352/tools/bin/../lib/gcc/arm-none-eabi/8.3.1/../../../../arm-none-eabi/lib/thumb/v7e-m+fp/hard\libc.a(lib_a-fputwc.o)
                              d:/programfiles/nxp/mcuxpressoide_11.1.0_3209/ide/plugins/com.nxp.mcuxpresso.tools.win32_11.1.0.201909161352/tools/bin/../lib/gcc/arm-none-eabi/8.3.1/../../../../arm-none-eabi/lib/thumb/v7e-m+fp/hard\libc.a(lib_a-vfiprintf.o) (_fputwc_r)
d:/programfiles/nxp/mcuxpressoide_11.1.0_3209/ide/plugins/com.nxp.mcuxpresso.tools.win32_11.1.0.201909161352/tools/bin/../lib/gcc/arm-none-eabi/8.3.1/../../../../arm-none-eabi/lib/thumb/v7e-m+fp/hard\libc.a(lib_a-fstatr.o)
                              d:/programfiles/nxp/mcuxpressoide_11.1.0_3209/ide/plugins/com.nxp.mcuxpresso.tools.win32_11.1.0.201909161352/tools/bin/../lib/gcc/arm-none-eabi/8.3.1/../../../../arm-none-eabi/lib/thumb/v7e-m+fp/hard\libc.a(lib_a-makebuf.o) (_fstat_r)
d:/programfiles/nxp/mcuxpressoide_11.1.0_3209/ide/plugins/com.nxp.mcuxpresso.tools.win32_11.1.0.201909161352/tools/bin/../lib/gcc/arm-none-eabi/8.3.1/../../../../arm-none-eabi/lib/thumb/v7e-m+fp/hard\libc.a(lib_a-fvwrite.o)
                              d:/programfiles/nxp/mcuxpressoide_11.1.0_3209/ide/plugins/com.nxp.mcuxpresso.tools.win32_11.1.0.201909161352/tools/bin/../lib/gcc/arm-none-eabi/8.3.1/../../../../arm-none-eabi/lib/thumb/v7e-m+fp/hard\libc.a(lib_a-vfiprintf.o) (__sfvwrite_r)
d:/programfiles/nxp/mcuxpressoide_11.1.0_3209/ide/plugins/com.nxp.mcuxpresso.tools.win32_11.1.0.201909161352/tools/bin/../lib/gcc/arm-none-eabi/8.3.1/../../../../arm-none-eabi/lib/thumb/v7e-m+fp/hard\libc.a(lib_a-isattyr.o)
                              d:/programfiles/nxp/mcuxpressoide_11.1.0_3209/ide/plugins/com.nxp.mcuxpresso.tools.win32_11.1.0.201909161352/tools/bin/../lib/gcc/arm-none-eabi/8.3.1/../../../../arm-none-eabi/lib/thumb/v7e-m+fp/hard\libc.a(lib_a-makebuf.o) (_isatty_r)
d:/programfiles/nxp/mcuxpressoide_11.1.0_3209/ide/plugins/com.nxp.mcuxpresso.tools.win32_11.1.0.201909161352/tools/bin/../lib/gcc/arm-none-eabi/8.3.1/../../../../arm-none-eabi/lib/thumb/v7e-m+fp/hard\libc.a(lib_a-locale.o)
                              d:/programfiles/nxp/mcuxpressoide_11.1.0_3209/ide/plugins/com.nxp.mcuxpresso.tools.win32_11.1.0.201909161352/tools/bin/../lib/gcc/arm-none-eabi/8.3.1/../../../../arm-none-eabi/lib/thumb/v7e-m+fp/hard\libc.a(lib_a-fputwc.o) (__locale_mb_cur_max)
d:/programfiles/nxp/mcuxpressoide_11.1.0_3209/ide/plugins/com.nxp.mcuxpresso.tools.win32_11.1.0.201909161352/tools/bin/../lib/gcc/arm-none-eabi/8.3.1/../../../../arm-none-eabi/lib/thumb/v7e-m+fp/hard\libc.a(lib_a-lseekr.o)
                              d:/programfiles/nxp/mcuxpressoide_11.1.0_3209/ide/plugins/com.nxp.mcuxpresso.tools.win32_11.1.0.201909161352/tools/bin/../lib/gcc/arm-none-eabi/8.3.1/../../../../arm-none-eabi/lib/thumb/v7e-m+fp/hard\libc.a(lib_a-stdio.o) (_lseek_r)
d:/programfiles/nxp/mcuxpressoide_11.1.0_3209/ide/plugins/com.nxp.mcuxpresso.tools.win32_11.1.0.201909161352/tools/bin/../lib/gcc/arm-none-eabi/8.3.1/../../../../arm-none-eabi/lib/thumb/v7e-m+fp/hard\libc.a(lib_a-mbtowc_r.o)
                              d:/programfiles/nxp/mcuxpressoide_11.1.0_3209/ide/plugins/com.nxp.mcuxpresso.tools.win32_11.1.0.201909161352/tools/bin/../lib/gcc/arm-none-eabi/8.3.1/../../../../arm-none-eabi/lib/thumb/v7e-m+fp/hard\libc.a(lib_a-locale.o) (__ascii_mbtowc)
d:/programfiles/nxp/mcuxpressoide_11.1.0_3209/ide/plugins/com.nxp.mcuxpresso.tools.win32_11.1.0.201909161352/tools/bin/../lib/gcc/arm-none-eabi/8.3.1/../../../../arm-none-eabi/lib/thumb/v7e-m+fp/hard\libc.a(lib_a-memmove.o)
                              d:/programfiles/nxp/mcuxpressoide_11.1.0_3209/ide/plugins/com.nxp.mcuxpresso.tools.win32_11.1.0.201909161352/tools/bin/../lib/gcc/arm-none-eabi/8.3.1/../../../../arm-none-eabi/lib/thumb/v7e-m+fp/hard\libc.a(lib_a-fvwrite.o) (memmove)
d:/programfiles/nxp/mcuxpressoide_11.1.0_3209/ide/plugins/com.nxp.mcuxpresso.tools.win32_11.1.0.201909161352/tools/bin/../lib/gcc/arm-none-eabi/8.3.1/../../../../arm-none-eabi/lib/thumb/v7e-m+fp/hard\libc.a(lib_a-readr.o)
                              d:/programfiles/nxp/mcuxpressoide_11.1.0_3209/ide/plugins/com.nxp.mcuxpresso.tools.win32_11.1.0.201909161352/tools/bin/../lib/gcc/arm-none-eabi/8.3.1/../../../../arm-none-eabi/lib/thumb/v7e-m+fp/hard\libc.a(lib_a-stdio.o) (_read_r)
d:/programfiles/nxp/mcuxpressoide_11.1.0_3209/ide/plugins/com.nxp.mcuxpresso.tools.win32_11.1.0.201909161352/tools/bin/../lib/gcc/arm-none-eabi/8.3.1/../../../../arm-none-eabi/lib/thumb/v7e-m+fp/hard\libc.a(lib_a-reallocr.o)
                              d:/programfiles/nxp/mcuxpressoide_11.1.0_3209/ide/plugins/com.nxp.mcuxpresso.tools.win32_11.1.0.201909161352/tools/bin/../lib/gcc/arm-none-eabi/8.3.1/../../../../arm-none-eabi/lib/thumb/v7e-m+fp/hard\libc.a(lib_a-fvwrite.o) (_realloc_r)
d:/programfiles/nxp/mcuxpressoide_11.1.0_3209/ide/plugins/com.nxp.mcuxpresso.tools.win32_11.1.0.201909161352/tools/bin/../lib/gcc/arm-none-eabi/8.3.1/../../../../arm-none-eabi/lib/thumb/v7e-m+fp/hard\libc.a(lib_a-strcmp.o)
                              d:/programfiles/nxp/mcuxpressoide_11.1.0_3209/ide/plugins/com.nxp.mcuxpresso.tools.win32_11.1.0.201909161352/tools/bin/../lib/gcc/arm-none-eabi/8.3.1/../../../../arm-none-eabi/lib/thumb/v7e-m+fp/hard\libc.a(lib_a-locale.o) (strcmp)
d:/programfiles/nxp/mcuxpressoide_11.1.0_3209/ide/plugins/com.nxp.mcuxpresso.tools.win32_11.1.0.201909161352/tools/bin/../lib/gcc/arm-none-eabi/8.3.1/../../../../arm-none-eabi/lib/thumb/v7e-m+fp/hard\libc.a(lib_a-wbuf.o)
                              d:/programfiles/nxp/mcuxpressoide_11.1.0_3209/ide/plugins/com.nxp.mcuxpresso.tools.win32_11.1.0.201909161352/tools/bin/../lib/gcc/arm-none-eabi/8.3.1/../../../../arm-none-eabi/lib/thumb/v7e-m+fp/hard\libc.a(lib_a-fputwc.o) (__swbuf_r)
d:/programfiles/nxp/mcuxpressoide_11.1.0_3209/ide/plugins/com.nxp.mcuxpresso.tools.win32_11.1.0.201909161352/tools/bin/../lib/gcc/arm-none-eabi/8.3.1/../../../../arm-none-eabi/lib/thumb/v7e-m+fp/hard\libc.a(lib_a-wcrtomb.o)
                              d:/programfiles/nxp/mcuxpressoide_11.1.0_3209/ide/plugins/com.nxp.mcuxpresso.tools.win32_11.1.0.201909161352/tools/bin/../lib/gcc/arm-none-eabi/8.3.1/../../../../arm-none-eabi/lib/thumb/v7e-m+fp/hard\libc.a(lib_a-fputwc.o) (_wcrtomb_r)
d:/programfiles/nxp/mcuxpressoide_11.1.0_3209/ide/plugins/com.nxp.mcuxpresso.tools.win32_11.1.0.201909161352/tools/bin/../lib/gcc/arm-none-eabi/8.3.1/../../../../arm-none-eabi/lib/thumb/v7e-m+fp/hard\libc.a(lib_a-wctomb_r.o)
                              d:/programfiles/nxp/mcuxpressoide_11.1.0_3209/ide/plugins/com.nxp.mcuxpresso.tools.win32_11.1.0.201909161352/tools/bin/../lib/gcc/arm-none-eabi/8.3.1/../../../../arm-none-eabi/lib/thumb/v7e-m+fp/hard\libc.a(lib_a-locale.o) (__ascii_wctomb)
d:/programfiles/nxp/mcuxpressoide_11.1.0_3209/ide/plugins/com.nxp.mcuxpresso.tools.win32_11.1.0.201909161352/tools/bin/../lib/gcc/arm-none-eabi/8.3.1/../../../../arm-none-eabi/lib/thumb/v7e-m+fp/hard\libc.a(lib_a-ctype_.o)
                              d:/programfiles/nxp/mcuxpressoide_11.1.0_3209/ide/plugins/com.nxp.mcuxpresso.tools.win32_11.1.0.201909161352/tools/bin/../lib/gcc/arm-none-eabi/8.3.1/../../../../arm-none-eabi/lib/thumb/v7e-m+fp/hard\libc.a(lib_a-locale.o) (_ctype_)
d:/programfiles/nxp/mcuxpressoide_11.1.0_3209/ide/plugins/com.nxp.mcuxpresso.tools.win32_11.1.0.201909161352/tools/bin/../lib/gcc/arm-none-eabi/8.3.1/../../../../arm-none-eabi/lib/thumb/v7e-m+fp/hard\libstdc++.a(allocator-inst.o)
                              ./source/Device_manager.o (std::allocator<char>::allocator())
d:/programfiles/nxp/mcuxpressoide_11.1.0_3209/ide/plugins/com.nxp.mcuxpresso.tools.win32_11.1.0.201909161352/tools/bin/../lib/gcc/arm-none-eabi/8.3.1/../../../../arm-none-eabi/lib/thumb/v7e-m+fp/hard\libstdc++.a(string-inst.o)
                              ./source/Devices.o (std::__cxx11::basic_string<char, std::char_traits<char>, std::allocator<char> >::basic_string())
d:/programfiles/nxp/mcuxpressoide_11.1.0_3209/ide/plugins/com.nxp.mcuxpresso.tools.win32_11.1.0.201909161352/tools/bin/../lib/gcc/arm-none-eabi/8.3.1/../../../../arm-none-eabi/lib/thumb/v7e-m+fp/hard\libstdc++.a(functexcept.o)
                              d:/programfiles/nxp/mcuxpressoide_11.1.0_3209/ide/plugins/com.nxp.mcuxpresso.tools.win32_11.1.0.201909161352/tools/bin/../lib/gcc/arm-none-eabi/8.3.1/../../../../arm-none-eabi/lib/thumb/v7e-m+fp/hard\libstdc++.a(string-inst.o) (std::__throw_logic_error(char const*))
d:/programfiles/nxp/mcuxpressoide_11.1.0_3209/ide/plugins/com.nxp.mcuxpresso.tools.win32_11.1.0.201909161352/tools/bin/../lib/gcc/arm-none-eabi/8.3.1/../../../../arm-none-eabi/lib/thumb/v7e-m+fp/hard\libstdc++.a(eh_exception.o)
                              d:/programfiles/nxp/mcuxpressoide_11.1.0_3209/ide/plugins/com.nxp.mcuxpresso.tools.win32_11.1.0.201909161352/tools/bin/../lib/gcc/arm-none-eabi/8.3.1/../../../../arm-none-eabi/lib/thumb/v7e-m+fp/hard\libstdc++.a(functexcept.o) (std::bad_exception::~bad_exception())
d:/programfiles/nxp/mcuxpressoide_11.1.0_3209/ide/plugins/com.nxp.mcuxpresso.tools.win32_11.1.0.201909161352/tools/bin/../lib/gcc/arm-none-eabi/8.3.1/../../../../arm-none-eabi/lib/thumb/v7e-m+fp/hard\libstdc++.a(eh_personality.o)
                              d:/programfiles/nxp/mcuxpressoide_11.1.0_3209/ide/plugins/com.nxp.mcuxpresso.tools.win32_11.1.0.201909161352/tools/bin/../lib/gcc/arm-none-eabi/8.3.1/../../../../arm-none-eabi/lib/thumb/v7e-m+fp/hard\libstdc++.a(string-inst.o) (__gxx_personality_v0)
d:/programfiles/nxp/mcuxpressoide_11.1.0_3209/ide/plugins/com.nxp.mcuxpresso.tools.win32_11.1.0.201909161352/tools/bin/../lib/gcc/arm-none-eabi/8.3.1/../../../../arm-none-eabi/lib/thumb/v7e-m+fp/hard\libstdc++.a(bad_cast.o)
                              d:/programfiles/nxp/mcuxpressoide_11.1.0_3209/ide/plugins/com.nxp.mcuxpresso.tools.win32_11.1.0.201909161352/tools/bin/../lib/gcc/arm-none-eabi/8.3.1/../../../../arm-none-eabi/lib/thumb/v7e-m+fp/hard\libstdc++.a(functexcept.o) (std::bad_cast::~bad_cast())
d:/programfiles/nxp/mcuxpressoide_11.1.0_3209/ide/plugins/com.nxp.mcuxpresso.tools.win32_11.1.0.201909161352/tools/bin/../lib/gcc/arm-none-eabi/8.3.1/../../../../arm-none-eabi/lib/thumb/v7e-m+fp/hard\libstdc++.a(eh_alloc.o)
                              d:/programfiles/nxp/mcuxpressoide_11.1.0_3209/ide/plugins/com.nxp.mcuxpresso.tools.win32_11.1.0.201909161352/tools/bin/../lib/gcc/arm-none-eabi/8.3.1/../../../../arm-none-eabi/lib/thumb/v7e-m+fp/hard\libstdc++.a(functexcept.o) (__cxa_allocate_exception)
d:/programfiles/nxp/mcuxpressoide_11.1.0_3209/ide/plugins/com.nxp.mcuxpresso.tools.win32_11.1.0.201909161352/tools/bin/../lib/gcc/arm-none-eabi/8.3.1/../../../../arm-none-eabi/lib/thumb/v7e-m+fp/hard\libstdc++.a(bad_alloc.o)
                              d:/programfiles/nxp/mcuxpressoide_11.1.0_3209/ide/plugins/com.nxp.mcuxpresso.tools.win32_11.1.0.201909161352/tools/bin/../lib/gcc/arm-none-eabi/8.3.1/../../../../arm-none-eabi/lib/thumb/v7e-m+fp/hard\libstdc++.a(functexcept.o) (std::bad_alloc::~bad_alloc())
d:/programfiles/nxp/mcuxpressoide_11.1.0_3209/ide/plugins/com.nxp.mcuxpresso.tools.win32_11.1.0.201909161352/tools/bin/../lib/gcc/arm-none-eabi/8.3.1/../../../../arm-none-eabi/lib/thumb/v7e-m+fp/hard\libstdc++.a(eh_call.o)
                              d:/programfiles/nxp/mcuxpressoide_11.1.0_3209/ide/plugins/com.nxp.mcuxpresso.tools.win32_11.1.0.201909161352/tools/bin/../lib/gcc/arm-none-eabi/8.3.1/../../../../arm-none-eabi/lib/thumb/v7e-m+fp/hard\libstdc++.a(eh_personality.o) (__cxa_call_terminate)
d:/programfiles/nxp/mcuxpressoide_11.1.0_3209/ide/plugins/com.nxp.mcuxpresso.tools.win32_11.1.0.201909161352/tools/bin/../lib/gcc/arm-none-eabi/8.3.1/../../../../arm-none-eabi/lib/thumb/v7e-m+fp/hard\libstdc++.a(pure.o)
                              d:/programfiles/nxp/mcuxpressoide_11.1.0_3209/ide/plugins/com.nxp.mcuxpresso.tools.win32_11.1.0.201909161352/tools/bin/../lib/gcc/arm-none-eabi/8.3.1/../../../../arm-none-eabi/lib/thumb/v7e-m+fp/hard\libstdc++.a(eh_exception.o) (__cxa_pure_virtual)
d:/programfiles/nxp/mcuxpressoide_11.1.0_3209/ide/plugins/com.nxp.mcuxpresso.tools.win32_11.1.0.201909161352/tools/bin/../lib/gcc/arm-none-eabi/8.3.1/../../../../arm-none-eabi/lib/thumb/v7e-m+fp/hard\libstdc++.a(eh_catch.o)
                              d:/programfiles/nxp/mcuxpressoide_11.1.0_3209/ide/plugins/com.nxp.mcuxpresso.tools.win32_11.1.0.201909161352/tools/bin/../lib/gcc/arm-none-eabi/8.3.1/../../../../arm-none-eabi/lib/thumb/v7e-m+fp/hard\libstdc++.a(string-inst.o) (__cxa_begin_catch)
d:/programfiles/nxp/mcuxpressoide_11.1.0_3209/ide/plugins/com.nxp.mcuxpresso.tools.win32_11.1.0.201909161352/tools/bin/../lib/gcc/arm-none-eabi/8.3.1/../../../../arm-none-eabi/lib/thumb/v7e-m+fp/hard\libstdc++.a(eh_globals.o)
                              d:/programfiles/nxp/mcuxpressoide_11.1.0_3209/ide/plugins/com.nxp.mcuxpresso.tools.win32_11.1.0.201909161352/tools/bin/../lib/gcc/arm-none-eabi/8.3.1/../../../../arm-none-eabi/lib/thumb/v7e-m+fp/hard\libstdc++.a(eh_call.o) (__cxa_get_globals_fast)
d:/programfiles/nxp/mcuxpressoide_11.1.0_3209/ide/plugins/com.nxp.mcuxpresso.tools.win32_11.1.0.201909161352/tools/bin/../lib/gcc/arm-none-eabi/8.3.1/../../../../arm-none-eabi/lib/thumb/v7e-m+fp/hard\libstdc++.a(eh_terminate.o)
                              d:/programfiles/nxp/mcuxpressoide_11.1.0_3209/ide/plugins/com.nxp.mcuxpresso.tools.win32_11.1.0.201909161352/tools/bin/../lib/gcc/arm-none-eabi/8.3.1/../../../../arm-none-eabi/lib/thumb/v7e-m+fp/hard\libstdc++.a(eh_call.o) (__cxxabiv1::__terminate(void (*)()))
d:/programfiles/nxp/mcuxpressoide_11.1.0_3209/ide/plugins/com.nxp.mcuxpresso.tools.win32_11.1.0.201909161352/tools/bin/../lib/gcc/arm-none-eabi/8.3.1/../../../../arm-none-eabi/lib/thumb/v7e-m+fp/hard\libstdc++.a(eh_arm.o)
                              d:/programfiles/nxp/mcuxpressoide_11.1.0_3209/ide/plugins/com.nxp.mcuxpresso.tools.win32_11.1.0.201909161352/tools/bin/../lib/gcc/arm-none-eabi/8.3.1/../../../../arm-none-eabi/lib/thumb/v7e-m+fp/hard\libstdc++.a(string-inst.o) (__cxa_end_cleanup)
d:/programfiles/nxp/mcuxpressoide_11.1.0_3209/ide/plugins/com.nxp.mcuxpresso.tools.win32_11.1.0.201909161352/tools/bin/../lib/gcc/arm-none-eabi/8.3.1/../../../../arm-none-eabi/lib/thumb/v7e-m+fp/hard\libstdc++.a(del_ops.o)
                              d:/programfiles/nxp/mcuxpressoide_11.1.0_3209/ide/plugins/com.nxp.mcuxpresso.tools.win32_11.1.0.201909161352/tools/bin/../lib/gcc/arm-none-eabi/8.3.1/../../../../arm-none-eabi/lib/thumb/v7e-m+fp/hard\libstdc++.a(eh_exception.o) (operator delete(void*, unsigned int))
d:/programfiles/nxp/mcuxpressoide_11.1.0_3209/ide/plugins/com.nxp.mcuxpresso.tools.win32_11.1.0.201909161352/tools/bin/../lib/gcc/arm-none-eabi/8.3.1/../../../../arm-none-eabi/lib/thumb/v7e-m+fp/hard\libstdc++.a(eh_throw.o)
                              d:/programfiles/nxp/mcuxpressoide_11.1.0_3209/ide/plugins/com.nxp.mcuxpresso.tools.win32_11.1.0.201909161352/tools/bin/../lib/gcc/arm-none-eabi/8.3.1/../../../../arm-none-eabi/lib/thumb/v7e-m+fp/hard\libstdc++.a(functexcept.o) (__cxa_throw)
d:/programfiles/nxp/mcuxpressoide_11.1.0_3209/ide/plugins/com.nxp.mcuxpresso.tools.win32_11.1.0.201909161352/tools/bin/../lib/gcc/arm-none-eabi/8.3.1/../../../../arm-none-eabi/lib/thumb/v7e-m+fp/hard\libstdc++.a(bad_typeid.o)
                              d:/programfiles/nxp/mcuxpressoide_11.1.0_3209/ide/plugins/com.nxp.mcuxpresso.tools.win32_11.1.0.201909161352/tools/bin/../lib/gcc/arm-none-eabi/8.3.1/../../../../arm-none-eabi/lib/thumb/v7e-m+fp/hard\libstdc++.a(functexcept.o) (std::bad_typeid::~bad_typeid())
d:/programfiles/nxp/mcuxpressoide_11.1.0_3209/ide/plugins/com.nxp.mcuxpresso.tools.win32_11.1.0.201909161352/tools/bin/../lib/gcc/arm-none-eabi/8.3.1/../../../../arm-none-eabi/lib/thumb/v7e-m+fp/hard\libstdc++.a(si_class_type_info.o)
                              d:/programfiles/nxp/mcuxpressoide_11.1.0_3209/ide/plugins/com.nxp.mcuxpresso.tools.win32_11.1.0.201909161352/tools/bin/../lib/gcc/arm-none-eabi/8.3.1/../../../../arm-none-eabi/lib/thumb/v7e-m+fp/hard\libstdc++.a(eh_exception.o) (vtable for __cxxabiv1::__si_class_type_info)
d:/programfiles/nxp/mcuxpressoide_11.1.0_3209/ide/plugins/com.nxp.mcuxpresso.tools.win32_11.1.0.201909161352/tools/bin/../lib/gcc/arm-none-eabi/8.3.1/../../../../arm-none-eabi/lib/thumb/v7e-m+fp/hard\libstdc++.a(tinfo.o)
                              d:/programfiles/nxp/mcuxpressoide_11.1.0_3209/ide/plugins/com.nxp.mcuxpresso.tools.win32_11.1.0.201909161352/tools/bin/../lib/gcc/arm-none-eabi/8.3.1/../../../../arm-none-eabi/lib/thumb/v7e-m+fp/hard\libstdc++.a(si_class_type_info.o) (std::type_info::__is_pointer_p() const)
d:/programfiles/nxp/mcuxpressoide_11.1.0_3209/ide/plugins/com.nxp.mcuxpresso.tools.win32_11.1.0.201909161352/tools/bin/../lib/gcc/arm-none-eabi/8.3.1/../../../../arm-none-eabi/lib/thumb/v7e-m+fp/hard\libstdc++.a(class_type_info.o)
                              d:/programfiles/nxp/mcuxpressoide_11.1.0_3209/ide/plugins/com.nxp.mcuxpresso.tools.win32_11.1.0.201909161352/tools/bin/../lib/gcc/arm-none-eabi/8.3.1/../../../../arm-none-eabi/lib/thumb/v7e-m+fp/hard\libstdc++.a(si_class_type_info.o) (__cxxabiv1::__class_type_info::__do_upcast(__cxxabiv1::__class_type_info const*, void**) const)
d:/programfiles/nxp/mcuxpressoide_11.1.0_3209/ide/plugins/com.nxp.mcuxpresso.tools.win32_11.1.0.201909161352/tools/bin/../lib/gcc/arm-none-eabi/8.3.1/../../../../arm-none-eabi/lib/thumb/v7e-m+fp/hard\libstdc++.a(stdexcept.o)
                              d:/programfiles/nxp/mcuxpressoide_11.1.0_3209/ide/plugins/com.nxp.mcuxpresso.tools.win32_11.1.0.201909161352/tools/bin/../lib/gcc/arm-none-eabi/8.3.1/../../../../arm-none-eabi/lib/thumb/v7e-m+fp/hard\libstdc++.a(functexcept.o) (std::logic_error::~logic_error())
d:/programfiles/nxp/mcuxpressoide_11.1.0_3209/ide/plugins/com.nxp.mcuxpresso.tools.win32_11.1.0.201909161352/tools/bin/../lib/gcc/arm-none-eabi/8.3.1/../../../../arm-none-eabi/lib/thumb/v7e-m+fp/hard\libstdc++.a(cow-string-inst.o)
                              d:/programfiles/nxp/mcuxpressoide_11.1.0_3209/ide/plugins/com.nxp.mcuxpresso.tools.win32_11.1.0.201909161352/tools/bin/../lib/gcc/arm-none-eabi/8.3.1/../../../../arm-none-eabi/lib/thumb/v7e-m+fp/hard\libstdc++.a(stdexcept.o) (std::string::_Rep::_S_empty_rep_storage)
d:/programfiles/nxp/mcuxpressoide_11.1.0_3209/ide/plugins/com.nxp.mcuxpresso.tools.win32_11.1.0.201909161352/tools/bin/../lib/gcc/arm-none-eabi/8.3.1/../../../../arm-none-eabi/lib/thumb/v7e-m+fp/hard\libstdc++.a(cow-stdexcept.o)
                              d:/programfiles/nxp/mcuxpressoide_11.1.0_3209/ide/plugins/com.nxp.mcuxpresso.tools.win32_11.1.0.201909161352/tools/bin/../lib/gcc/arm-none-eabi/8.3.1/../../../../arm-none-eabi/lib/thumb/v7e-m+fp/hard\libstdc++.a(functexcept.o) (std::logic_error::logic_error(char const*))
d:/programfiles/nxp/mcuxpressoide_11.1.0_3209/ide/plugins/com.nxp.mcuxpresso.tools.win32_11.1.0.201909161352/tools/bin/../lib/gcc/arm-none-eabi/8.3.1/../../../../arm-none-eabi/lib/thumb/v7e-m+fp/hard\libstdc++.a(snprintf_lite.o)
                              d:/programfiles/nxp/mcuxpressoide_11.1.0_3209/ide/plugins/com.nxp.mcuxpresso.tools.win32_11.1.0.201909161352/tools/bin/../lib/gcc/arm-none-eabi/8.3.1/../../../../arm-none-eabi/lib/thumb/v7e-m+fp/hard\libstdc++.a(functexcept.o) (__gnu_cxx::__snprintf_lite(char*, unsigned int, char const*, std::__va_list))
d:/programfiles/nxp/mcuxpressoide_11.1.0_3209/ide/plugins/com.nxp.mcuxpresso.tools.win32_11.1.0.201909161352/tools/bin/../lib/gcc/arm-none-eabi/8.3.1/../../../../arm-none-eabi/lib/thumb/v7e-m+fp/hard\libstdc++.a(eh_term_handler.o)
                              d:/programfiles/nxp/mcuxpressoide_11.1.0_3209/ide/plugins/com.nxp.mcuxpresso.tools.win32_11.1.0.201909161352/tools/bin/../lib/gcc/arm-none-eabi/8.3.1/../../../../arm-none-eabi/lib/thumb/v7e-m+fp/hard\libstdc++.a(eh_terminate.o) (__cxxabiv1::__terminate_handler)
d:/programfiles/nxp/mcuxpressoide_11.1.0_3209/ide/plugins/com.nxp.mcuxpresso.tools.win32_11.1.0.201909161352/tools/bin/../lib/gcc/arm-none-eabi/8.3.1/../../../../arm-none-eabi/lib/thumb/v7e-m+fp/hard\libstdc++.a(eh_unex_handler.o)
                              d:/programfiles/nxp/mcuxpressoide_11.1.0_3209/ide/plugins/com.nxp.mcuxpresso.tools.win32_11.1.0.201909161352/tools/bin/../lib/gcc/arm-none-eabi/8.3.1/../../../../arm-none-eabi/lib/thumb/v7e-m+fp/hard\libstdc++.a(eh_terminate.o) (__cxxabiv1::__unexpected_handler)
d:/programfiles/nxp/mcuxpressoide_11.1.0_3209/ide/plugins/com.nxp.mcuxpresso.tools.win32_11.1.0.201909161352/tools/bin/../lib/gcc/arm-none-eabi/8.3.1/../../../../arm-none-eabi/lib/thumb/v7e-m+fp/hard\libstdc++.a(sso_string.o)
                              d:/programfiles/nxp/mcuxpressoide_11.1.0_3209/ide/plugins/com.nxp.mcuxpresso.tools.win32_11.1.0.201909161352/tools/bin/../lib/gcc/arm-none-eabi/8.3.1/../../../../arm-none-eabi/lib/thumb/v7e-m+fp/hard\libstdc++.a(cow-stdexcept.o) (std::__sso_string::__sso_string(char const*, unsigned int))
d:/programfiles/nxp/mcuxpressoide_11.1.0_3209/ide/plugins/com.nxp.mcuxpresso.tools.win32_11.1.0.201909161352/tools/bin/../lib/gcc/arm-none-eabi/8.3.1/../../../../arm-none-eabi/lib/thumb/v7e-m+fp/hard\libm.a(lib_a-w_pow.o)
                              ./source/Device_manager.o (pow)
d:/programfiles/nxp/mcuxpressoide_11.1.0_3209/ide/plugins/com.nxp.mcuxpresso.tools.win32_11.1.0.201909161352/tools/bin/../lib/gcc/arm-none-eabi/8.3.1/../../../../arm-none-eabi/lib/thumb/v7e-m+fp/hard\libm.a(lib_a-e_pow.o)
                              d:/programfiles/nxp/mcuxpressoide_11.1.0_3209/ide/plugins/com.nxp.mcuxpresso.tools.win32_11.1.0.201909161352/tools/bin/../lib/gcc/arm-none-eabi/8.3.1/../../../../arm-none-eabi/lib/thumb/v7e-m+fp/hard\libm.a(lib_a-w_pow.o) (__ieee754_pow)
d:/programfiles/nxp/mcuxpressoide_11.1.0_3209/ide/plugins/com.nxp.mcuxpresso.tools.win32_11.1.0.201909161352/tools/bin/../lib/gcc/arm-none-eabi/8.3.1/../../../../arm-none-eabi/lib/thumb/v7e-m+fp/hard\libm.a(lib_a-e_sqrt.o)
                              d:/programfiles/nxp/mcuxpressoide_11.1.0_3209/ide/plugins/com.nxp.mcuxpresso.tools.win32_11.1.0.201909161352/tools/bin/../lib/gcc/arm-none-eabi/8.3.1/../../../../arm-none-eabi/lib/thumb/v7e-m+fp/hard\libm.a(lib_a-e_pow.o) (__ieee754_sqrt)
d:/programfiles/nxp/mcuxpressoide_11.1.0_3209/ide/plugins/com.nxp.mcuxpresso.tools.win32_11.1.0.201909161352/tools/bin/../lib/gcc/arm-none-eabi/8.3.1/../../../../arm-none-eabi/lib/thumb/v7e-m+fp/hard\libm.a(lib_a-s_fabs.o)
                              d:/programfiles/nxp/mcuxpressoide_11.1.0_3209/ide/plugins/com.nxp.mcuxpresso.tools.win32_11.1.0.201909161352/tools/bin/../lib/gcc/arm-none-eabi/8.3.1/../../../../arm-none-eabi/lib/thumb/v7e-m+fp/hard\libm.a(lib_a-e_pow.o) (fabs)
d:/programfiles/nxp/mcuxpressoide_11.1.0_3209/ide/plugins/com.nxp.mcuxpresso.tools.win32_11.1.0.201909161352/tools/bin/../lib/gcc/arm-none-eabi/8.3.1/../../../../arm-none-eabi/lib/thumb/v7e-m+fp/hard\libm.a(lib_a-s_finite.o)
                              d:/programfiles/nxp/mcuxpressoide_11.1.0_3209/ide/plugins/com.nxp.mcuxpresso.tools.win32_11.1.0.201909161352/tools/bin/../lib/gcc/arm-none-eabi/8.3.1/../../../../arm-none-eabi/lib/thumb/v7e-m+fp/hard\libm.a(lib_a-w_pow.o) (finite)
d:/programfiles/nxp/mcuxpressoide_11.1.0_3209/ide/plugins/com.nxp.mcuxpresso.tools.win32_11.1.0.201909161352/tools/bin/../lib/gcc/arm-none-eabi/8.3.1/../../../../arm-none-eabi/lib/thumb/v7e-m+fp/hard\libm.a(lib_a-s_lib_ver.o)
                              d:/programfiles/nxp/mcuxpressoide_11.1.0_3209/ide/plugins/com.nxp.mcuxpresso.tools.win32_11.1.0.201909161352/tools/bin/../lib/gcc/arm-none-eabi/8.3.1/../../../../arm-none-eabi/lib/thumb/v7e-m+fp/hard\libm.a(lib_a-w_pow.o) (__fdlib_version)
d:/programfiles/nxp/mcuxpressoide_11.1.0_3209/ide/plugins/com.nxp.mcuxpresso.tools.win32_11.1.0.201909161352/tools/bin/../lib/gcc/arm-none-eabi/8.3.1/../../../../arm-none-eabi/lib/thumb/v7e-m+fp/hard\libm.a(lib_a-s_nan.o)
                              d:/programfiles/nxp/mcuxpressoide_11.1.0_3209/ide/plugins/com.nxp.mcuxpresso.tools.win32_11.1.0.201909161352/tools/bin/../lib/gcc/arm-none-eabi/8.3.1/../../../../arm-none-eabi/lib/thumb/v7e-m+fp/hard\libm.a(lib_a-e_pow.o) (nan)
d:/programfiles/nxp/mcuxpressoide_11.1.0_3209/ide/plugins/com.nxp.mcuxpresso.tools.win32_11.1.0.201909161352/tools/bin/../lib/gcc/arm-none-eabi/8.3.1/../../../../arm-none-eabi/lib/thumb/v7e-m+fp/hard\libm.a(lib_a-s_rint.o)
                              d:/programfiles/nxp/mcuxpressoide_11.1.0_3209/ide/plugins/com.nxp.mcuxpresso.tools.win32_11.1.0.201909161352/tools/bin/../lib/gcc/arm-none-eabi/8.3.1/../../../../arm-none-eabi/lib/thumb/v7e-m+fp/hard\libm.a(lib_a-w_pow.o) (rint)
d:/programfiles/nxp/mcuxpressoide_11.1.0_3209/ide/plugins/com.nxp.mcuxpresso.tools.win32_11.1.0.201909161352/tools/bin/../lib/gcc/arm-none-eabi/8.3.1/../../../../arm-none-eabi/lib/thumb/v7e-m+fp/hard\libm.a(lib_a-s_scalbn.o)
                              d:/programfiles/nxp/mcuxpressoide_11.1.0_3209/ide/plugins/com.nxp.mcuxpresso.tools.win32_11.1.0.201909161352/tools/bin/../lib/gcc/arm-none-eabi/8.3.1/../../../../arm-none-eabi/lib/thumb/v7e-m+fp/hard\libm.a(lib_a-e_pow.o) (scalbn)
d:/programfiles/nxp/mcuxpressoide_11.1.0_3209/ide/plugins/com.nxp.mcuxpresso.tools.win32_11.1.0.201909161352/tools/bin/../lib/gcc/arm-none-eabi/8.3.1/../../../../arm-none-eabi/lib/thumb/v7e-m+fp/hard\libcr_newlib_semihost.a(_cr_sbrk.o)
                              d:/programfiles/nxp/mcuxpressoide_11.1.0_3209/ide/plugins/com.nxp.mcuxpresso.tools.win32_11.1.0.201909161352/tools/bin/../lib/gcc/arm-none-eabi/8.3.1/../../../../arm-none-eabi/lib/thumb/v7e-m+fp/hard\libc.a(lib_a-sbrkr.o) (_sbrk)
d:/programfiles/nxp/mcuxpressoide_11.1.0_3209/ide/plugins/com.nxp.mcuxpresso.tools.win32_11.1.0.201909161352/tools/bin/../lib/gcc/arm-none-eabi/8.3.1/../../../../arm-none-eabi/lib/thumb/v7e-m+fp/hard\libcr_newlib_semihost.a(syscalls.o)
                              d:/programfiles/nxp/mcuxpressoide_11.1.0_3209/ide/plugins/com.nxp.mcuxpresso.tools.win32_11.1.0.201909161352/tools/bin/../lib/gcc/arm-none-eabi/8.3.1/../../../../arm-none-eabi/lib/thumb/v7e-m+fp/hard\libc.a(lib_a-readr.o) (_read)
d:/programfiles/nxp/mcuxpressoide_11.1.0_3209/ide/plugins/com.nxp.mcuxpresso.tools.win32_11.1.0.201909161352/tools/bin/../lib/gcc/arm-none-eabi/8.3.1/../../../../arm-none-eabi/lib/thumb/v7e-m+fp/hard\libcr_newlib_semihost.a(_cr_check_heap.o)
                              d:/programfiles/nxp/mcuxpressoide_11.1.0_3209/ide/plugins/com.nxp.mcuxpresso.tools.win32_11.1.0.201909161352/tools/bin/../lib/gcc/arm-none-eabi/8.3.1/../../../../arm-none-eabi/lib/thumb/v7e-m+fp/hard\libcr_newlib_semihost.a(_cr_sbrk.o) (__check_heap_overflow)
d:/programfiles/nxp/mcuxpressoide_11.1.0_3209/ide/plugins/com.nxp.mcuxpresso.tools.win32_11.1.0.201909161352/tools/bin/../lib/gcc/arm-none-eabi/8.3.1/thumb/v7e-m+fp/hard\libgcc.a(_arm_cmpdf2.o)
                              d:/programfiles/nxp/mcuxpressoide_11.1.0_3209/ide/plugins/com.nxp.mcuxpresso.tools.win32_11.1.0.201909161352/tools/bin/../lib/gcc/arm-none-eabi/8.3.1/../../../../arm-none-eabi/lib/thumb/v7e-m+fp/hard\libc.a(lib_a-vfprintf.o) (__aeabi_dcmpeq)
d:/programfiles/nxp/mcuxpressoide_11.1.0_3209/ide/plugins/com.nxp.mcuxpresso.tools.win32_11.1.0.201909161352/tools/bin/../lib/gcc/arm-none-eabi/8.3.1/thumb/v7e-m+fp/hard\libgcc.a(_arm_unorddf2.o)
                              d:/programfiles/nxp/mcuxpressoide_11.1.0_3209/ide/plugins/com.nxp.mcuxpresso.tools.win32_11.1.0.201909161352/tools/bin/../lib/gcc/arm-none-eabi/8.3.1/../../../../arm-none-eabi/lib/thumb/v7e-m+fp/hard\libc.a(lib_a-vfprintf.o) (__aeabi_dcmpun)
d:/programfiles/nxp/mcuxpressoide_11.1.0_3209/ide/plugins/com.nxp.mcuxpresso.tools.win32_11.1.0.201909161352/tools/bin/../lib/gcc/arm-none-eabi/8.3.1/thumb/v7e-m+fp/hard\libgcc.a(_arm_fixdfsi.o)
                              d:/programfiles/nxp/mcuxpressoide_11.1.0_3209/ide/plugins/com.nxp.mcuxpresso.tools.win32_11.1.0.201909161352/tools/bin/../lib/gcc/arm-none-eabi/8.3.1/../../../../arm-none-eabi/lib/thumb/v7e-m+fp/hard\libc.a(lib_a-vfprintf.o) (__aeabi_d2iz)
d:/programfiles/nxp/mcuxpressoide_11.1.0_3209/ide/plugins/com.nxp.mcuxpresso.tools.win32_11.1.0.201909161352/tools/bin/../lib/gcc/arm-none-eabi/8.3.1/thumb/v7e-m+fp/hard\libgcc.a(unwind-arm.o)
                              d:/programfiles/nxp/mcuxpressoide_11.1.0_3209/ide/plugins/com.nxp.mcuxpresso.tools.win32_11.1.0.201909161352/tools/bin/../lib/gcc/arm-none-eabi/8.3.1/../../../../arm-none-eabi/lib/thumb/v7e-m+fp/hard\libstdc++.a(string-inst.o) (__aeabi_unwind_cpp_pr0)
d:/programfiles/nxp/mcuxpressoide_11.1.0_3209/ide/plugins/com.nxp.mcuxpresso.tools.win32_11.1.0.201909161352/tools/bin/../lib/gcc/arm-none-eabi/8.3.1/thumb/v7e-m+fp/hard\libgcc.a(libunwind.o)
                              d:/programfiles/nxp/mcuxpressoide_11.1.0_3209/ide/plugins/com.nxp.mcuxpresso.tools.win32_11.1.0.201909161352/tools/bin/../lib/gcc/arm-none-eabi/8.3.1/thumb/v7e-m+fp/hard\libgcc.a(unwind-arm.o) (restore_core_regs)
d:/programfiles/nxp/mcuxpressoide_11.1.0_3209/ide/plugins/com.nxp.mcuxpresso.tools.win32_11.1.0.201909161352/tools/bin/../lib/gcc/arm-none-eabi/8.3.1/thumb/v7e-m+fp/hard\libgcc.a(pr-support.o)
                              d:/programfiles/nxp/mcuxpressoide_11.1.0_3209/ide/plugins/com.nxp.mcuxpresso.tools.win32_11.1.0.201909161352/tools/bin/../lib/gcc/arm-none-eabi/8.3.1/thumb/v7e-m+fp/hard\libgcc.a(unwind-arm.o) (__gnu_unwind_execute)
d:/programfiles/nxp/mcuxpressoide_11.1.0_3209/ide/plugins/com.nxp.mcuxpresso.tools.win32_11.1.0.201909161352/tools/bin/../lib/gcc/arm-none-eabi/8.3.1/../../../../arm-none-eabi/lib/thumb/v7e-m+fp/hard\libc.a(lib_a-abort.o)
                              d:/programfiles/nxp/mcuxpressoide_11.1.0_3209/ide/plugins/com.nxp.mcuxpresso.tools.win32_11.1.0.201909161352/tools/bin/../lib/gcc/arm-none-eabi/8.3.1/../../../../arm-none-eabi/lib/thumb/v7e-m+fp/hard\libstdc++.a(eh_personality.o) (abort)
d:/programfiles/nxp/mcuxpressoide_11.1.0_3209/ide/plugins/com.nxp.mcuxpresso.tools.win32_11.1.0.201909161352/tools/bin/../lib/gcc/arm-none-eabi/8.3.1/../../../../arm-none-eabi/lib/thumb/v7e-m+fp/hard\libc.a(lib_a-errno.o)
                              d:/programfiles/nxp/mcuxpressoide_11.1.0_3209/ide/plugins/com.nxp.mcuxpresso.tools.win32_11.1.0.201909161352/tools/bin/../lib/gcc/arm-none-eabi/8.3.1/../../../../arm-none-eabi/lib/thumb/v7e-m+fp/hard\libm.a(lib_a-w_pow.o) (__errno)
d:/programfiles/nxp/mcuxpressoide_11.1.0_3209/ide/plugins/com.nxp.mcuxpresso.tools.win32_11.1.0.201909161352/tools/bin/../lib/gcc/arm-none-eabi/8.3.1/../../../../arm-none-eabi/lib/thumb/v7e-m+fp/hard\libc.a(lib_a-fopen.o)
                              d:/programfiles/nxp/mcuxpressoide_11.1.0_3209/ide/plugins/com.nxp.mcuxpresso.tools.win32_11.1.0.201909161352/tools/bin/../lib/gcc/arm-none-eabi/8.3.1/../../../../arm-none-eabi/lib/thumb/v7e-m+fp/hard\libstdc++.a(cow-string-inst.o) (fopen)
d:/programfiles/nxp/mcuxpressoide_11.1.0_3209/ide/plugins/com.nxp.mcuxpresso.tools.win32_11.1.0.201909161352/tools/bin/../lib/gcc/arm-none-eabi/8.3.1/../../../../arm-none-eabi/lib/thumb/v7e-m+fp/hard\libc.a(lib_a-fseek.o)
                              d:/programfiles/nxp/mcuxpressoide_11.1.0_3209/ide/plugins/com.nxp.mcuxpresso.tools.win32_11.1.0.201909161352/tools/bin/../lib/gcc/arm-none-eabi/8.3.1/../../../../arm-none-eabi/lib/thumb/v7e-m+fp/hard\libc.a(lib_a-fopen.o) (_fseek_r)
d:/programfiles/nxp/mcuxpressoide_11.1.0_3209/ide/plugins/com.nxp.mcuxpresso.tools.win32_11.1.0.201909161352/tools/bin/../lib/gcc/arm-none-eabi/8.3.1/../../../../arm-none-eabi/lib/thumb/v7e-m+fp/hard\libc.a(lib_a-fseeko.o)
                              d:/programfiles/nxp/mcuxpressoide_11.1.0_3209/ide/plugins/com.nxp.mcuxpresso.tools.win32_11.1.0.201909161352/tools/bin/../lib/gcc/arm-none-eabi/8.3.1/../../../../arm-none-eabi/lib/thumb/v7e-m+fp/hard\libc.a(lib_a-fseek.o) (_fseeko_r)
d:/programfiles/nxp/mcuxpressoide_11.1.0_3209/ide/plugins/com.nxp.mcuxpresso.tools.win32_11.1.0.201909161352/tools/bin/../lib/gcc/arm-none-eabi/8.3.1/../../../../arm-none-eabi/lib/thumb/v7e-m+fp/hard\libc.a(lib_a-memcmp.o)
                              d:/programfiles/nxp/mcuxpressoide_11.1.0_3209/ide/plugins/com.nxp.mcuxpresso.tools.win32_11.1.0.201909161352/tools/bin/../lib/gcc/arm-none-eabi/8.3.1/../../../../arm-none-eabi/lib/thumb/v7e-m+fp/hard\libstdc++.a(string-inst.o) (memcmp)
d:/programfiles/nxp/mcuxpressoide_11.1.0_3209/ide/plugins/com.nxp.mcuxpresso.tools.win32_11.1.0.201909161352/tools/bin/../lib/gcc/arm-none-eabi/8.3.1/../../../../arm-none-eabi/lib/thumb/v7e-m+fp/hard\libc.a(lib_a-openr.o)
                              d:/programfiles/nxp/mcuxpressoide_11.1.0_3209/ide/plugins/com.nxp.mcuxpresso.tools.win32_11.1.0.201909161352/tools/bin/../lib/gcc/arm-none-eabi/8.3.1/../../../../arm-none-eabi/lib/thumb/v7e-m+fp/hard\libc.a(lib_a-fopen.o) (_open_r)
d:/programfiles/nxp/mcuxpressoide_11.1.0_3209/ide/plugins/com.nxp.mcuxpresso.tools.win32_11.1.0.201909161352/tools/bin/../lib/gcc/arm-none-eabi/8.3.1/../../../../arm-none-eabi/lib/thumb/v7e-m+fp/hard\libc.a(lib_a-refill.o)
                              d:/programfiles/nxp/mcuxpressoide_11.1.0_3209/ide/plugins/com.nxp.mcuxpresso.tools.win32_11.1.0.201909161352/tools/bin/../lib/gcc/arm-none-eabi/8.3.1/../../../../arm-none-eabi/lib/thumb/v7e-m+fp/hard\libc.a(lib_a-fseeko.o) (__srefill_r)
d:/programfiles/nxp/mcuxpressoide_11.1.0_3209/ide/plugins/com.nxp.mcuxpresso.tools.win32_11.1.0.201909161352/tools/bin/../lib/gcc/arm-none-eabi/8.3.1/../../../../arm-none-eabi/lib/thumb/v7e-m+fp/hard\libc.a(lib_a-signal.o)
                              d:/programfiles/nxp/mcuxpressoide_11.1.0_3209/ide/plugins/com.nxp.mcuxpresso.tools.win32_11.1.0.201909161352/tools/bin/../lib/gcc/arm-none-eabi/8.3.1/../../../../arm-none-eabi/lib/thumb/v7e-m+fp/hard\libc.a(lib_a-abort.o) (raise)
d:/programfiles/nxp/mcuxpressoide_11.1.0_3209/ide/plugins/com.nxp.mcuxpresso.tools.win32_11.1.0.201909161352/tools/bin/../lib/gcc/arm-none-eabi/8.3.1/../../../../arm-none-eabi/lib/thumb/v7e-m+fp/hard\libc.a(lib_a-signalr.o)
                              d:/programfiles/nxp/mcuxpressoide_11.1.0_3209/ide/plugins/com.nxp.mcuxpresso.tools.win32_11.1.0.201909161352/tools/bin/../lib/gcc/arm-none-eabi/8.3.1/../../../../arm-none-eabi/lib/thumb/v7e-m+fp/hard\libc.a(lib_a-signal.o) (_kill_r)
d:/programfiles/nxp/mcuxpressoide_11.1.0_3209/ide/plugins/com.nxp.mcuxpresso.tools.win32_11.1.0.201909161352/tools/bin/../lib/gcc/arm-none-eabi/8.3.1/../../../../arm-none-eabi/lib/thumb/v7e-m+fp/hard\libc.a(lib_a-strtoul.o)
                              d:/programfiles/nxp/mcuxpressoide_11.1.0_3209/ide/plugins/com.nxp.mcuxpresso.tools.win32_11.1.0.201909161352/tools/bin/../lib/gcc/arm-none-eabi/8.3.1/../../../../arm-none-eabi/lib/thumb/v7e-m+fp/hard\libstdc++.a(cow-string-inst.o) (strtoul)
d:/programfiles/nxp/mcuxpressoide_11.1.0_3209/ide/plugins/com.nxp.mcuxpresso.tools.win32_11.1.0.201909161352/tools/bin/../lib/gcc/arm-none-eabi/8.3.1/../../../../arm-none-eabi/lib/thumb/v7e-m+fp/hard\libc.a(lib_a-syswrite.o)
                              d:/programfiles/nxp/mcuxpressoide_11.1.0_3209/ide/plugins/com.nxp.mcuxpresso.tools.win32_11.1.0.201909161352/tools/bin/../lib/gcc/arm-none-eabi/8.3.1/../../../../arm-none-eabi/lib/thumb/v7e-m+fp/hard\libstdc++.a(pure.o) (write)
d:/programfiles/nxp/mcuxpressoide_11.1.0_3209/ide/plugins/com.nxp.mcuxpresso.tools.win32_11.1.0.201909161352/tools/bin/../lib/gcc/arm-none-eabi/8.3.1/../../../../arm-none-eabi/lib/thumb/v7e-m+fp/hard\libc.a(lib_a-flags.o)
                              d:/programfiles/nxp/mcuxpressoide_11.1.0_3209/ide/plugins/com.nxp.mcuxpresso.tools.win32_11.1.0.201909161352/tools/bin/../lib/gcc/arm-none-eabi/8.3.1/../../../../arm-none-eabi/lib/thumb/v7e-m+fp/hard\libc.a(lib_a-fopen.o) (__sflags)
d:/programfiles/nxp/mcuxpressoide_11.1.0_3209/ide/plugins/com.nxp.mcuxpresso.tools.win32_11.1.0.201909161352/tools/bin/../lib/gcc/arm-none-eabi/8.3.1/../../../../arm-none-eabi/lib/thumb/v7e-m+fp/hard\libcr_newlib_semihost.a(_exit.o)
                              d:/programfiles/nxp/mcuxpressoide_11.1.0_3209/ide/plugins/com.nxp.mcuxpresso.tools.win32_11.1.0.201909161352/tools/bin/../lib/gcc/arm-none-eabi/8.3.1/../../../../arm-none-eabi/lib/thumb/v7e-m+fp/hard\libc.a(lib_a-abort.o) (_exit)
d:/programfiles/nxp/mcuxpressoide_11.1.0_3209/ide/plugins/com.nxp.mcuxpresso.tools.win32_11.1.0.201909161352/tools/bin/../lib/gcc/arm-none-eabi/8.3.1/../../../../arm-none-eabi/lib/thumb/v7e-m+fp/hard\libcr_newlib_semihost.a(_kill.o)
                              d:/programfiles/nxp/mcuxpressoide_11.1.0_3209/ide/plugins/com.nxp.mcuxpresso.tools.win32_11.1.0.201909161352/tools/bin/../lib/gcc/arm-none-eabi/8.3.1/../../../../arm-none-eabi/lib/thumb/v7e-m+fp/hard\libc.a(lib_a-signalr.o) (_kill)

Allocating common symbols
Common symbol       size              file

__lock___atexit_recursive_mutex
                    0x1               d:/programfiles/nxp/mcuxpressoide_11.1.0_3209/ide/plugins/com.nxp.mcuxpresso.tools.win32_11.1.0.201909161352/tools/bin/../lib/gcc/arm-none-eabi/8.3.1/../../../../arm-none-eabi/lib/thumb/v7e-m+fp/hard\libc.a(lib_a-lock.o)
__lock___arc4random_mutex
                    0x1               d:/programfiles/nxp/mcuxpressoide_11.1.0_3209/ide/plugins/com.nxp.mcuxpresso.tools.win32_11.1.0.201909161352/tools/bin/../lib/gcc/arm-none-eabi/8.3.1/../../../../arm-none-eabi/lib/thumb/v7e-m+fp/hard\libc.a(lib_a-lock.o)
errno               0x4               d:/programfiles/nxp/mcuxpressoide_11.1.0_3209/ide/plugins/com.nxp.mcuxpresso.tools.win32_11.1.0.201909161352/tools/bin/../lib/gcc/arm-none-eabi/8.3.1/../../../../arm-none-eabi/lib/thumb/v7e-m+fp/hard\libc.a(lib_a-reent.o)
__lock___env_recursive_mutex
                    0x1               d:/programfiles/nxp/mcuxpressoide_11.1.0_3209/ide/plugins/com.nxp.mcuxpresso.tools.win32_11.1.0.201909161352/tools/bin/../lib/gcc/arm-none-eabi/8.3.1/../../../../arm-none-eabi/lib/thumb/v7e-m+fp/hard\libc.a(lib_a-lock.o)
__lock___sinit_recursive_mutex
                    0x1               d:/programfiles/nxp/mcuxpressoide_11.1.0_3209/ide/plugins/com.nxp.mcuxpresso.tools.win32_11.1.0.201909161352/tools/bin/../lib/gcc/arm-none-eabi/8.3.1/../../../../arm-none-eabi/lib/thumb/v7e-m+fp/hard\libc.a(lib_a-lock.o)
__lock___malloc_recursive_mutex
                    0x1               d:/programfiles/nxp/mcuxpressoide_11.1.0_3209/ide/plugins/com.nxp.mcuxpresso.tools.win32_11.1.0.201909161352/tools/bin/../lib/gcc/arm-none-eabi/8.3.1/../../../../arm-none-eabi/lib/thumb/v7e-m+fp/hard\libc.a(lib_a-lock.o)
__lock___at_quick_exit_mutex
                    0x1               d:/programfiles/nxp/mcuxpressoide_11.1.0_3209/ide/plugins/com.nxp.mcuxpresso.tools.win32_11.1.0.201909161352/tools/bin/../lib/gcc/arm-none-eabi/8.3.1/../../../../arm-none-eabi/lib/thumb/v7e-m+fp/hard\libc.a(lib_a-lock.o)
__lock___dd_hash_mutex
                    0x1               d:/programfiles/nxp/mcuxpressoide_11.1.0_3209/ide/plugins/com.nxp.mcuxpresso.tools.win32_11.1.0.201909161352/tools/bin/../lib/gcc/arm-none-eabi/8.3.1/../../../../arm-none-eabi/lib/thumb/v7e-m+fp/hard\libc.a(lib_a-lock.o)
__lock___tz_mutex   0x1               d:/programfiles/nxp/mcuxpressoide_11.1.0_3209/ide/plugins/com.nxp.mcuxpresso.tools.win32_11.1.0.201909161352/tools/bin/../lib/gcc/arm-none-eabi/8.3.1/../../../../arm-none-eabi/lib/thumb/v7e-m+fp/hard\libc.a(lib_a-lock.o)
__lock___sfp_recursive_mutex
                    0x1               d:/programfiles/nxp/mcuxpressoide_11.1.0_3209/ide/plugins/com.nxp.mcuxpresso.tools.win32_11.1.0.201909161352/tools/bin/../lib/gcc/arm-none-eabi/8.3.1/../../../../arm-none-eabi/lib/thumb/v7e-m+fp/hard\libc.a(lib_a-lock.o)

Discarded input sections

 .group         0x00000000        0xc ./xip/evkmimxrt1060_flexspi_nor_config.o
 .group         0x00000000        0xc ./xip/evkmimxrt1060_flexspi_nor_config.o
 .group         0x00000000        0xc ./xip/evkmimxrt1060_flexspi_nor_config.o
 .group         0x00000000        0xc ./xip/evkmimxrt1060_flexspi_nor_config.o
 .group         0x00000000        0xc ./xip/evkmimxrt1060_flexspi_nor_config.o
 .group         0x00000000        0xc ./xip/evkmimxrt1060_flexspi_nor_config.o
 .group         0x00000000        0xc ./xip/evkmimxrt1060_flexspi_nor_config.o
 .group         0x00000000        0xc ./xip/evkmimxrt1060_flexspi_nor_config.o
 .group         0x00000000        0xc ./xip/evkmimxrt1060_flexspi_nor_config.o
 .group         0x00000000        0xc ./xip/evkmimxrt1060_flexspi_nor_config.o
 .group         0x00000000        0xc ./xip/evkmimxrt1060_flexspi_nor_config.o
 .group         0x00000000        0xc ./xip/evkmimxrt1060_flexspi_nor_config.o
 .group         0x00000000        0xc ./xip/evkmimxrt1060_flexspi_nor_config.o
 .group         0x00000000        0xc ./xip/evkmimxrt1060_flexspi_nor_config.o
 .group         0x00000000        0xc ./xip/evkmimxrt1060_flexspi_nor_config.o
 .group         0x00000000        0xc ./xip/evkmimxrt1060_flexspi_nor_config.o
 .group         0x00000000        0xc ./xip/evkmimxrt1060_flexspi_nor_config.o
 .group         0x00000000        0xc ./xip/evkmimxrt1060_flexspi_nor_config.o
Memory Configuration

Name             Origin             Length             Attributes
BOARD_FLASH      0x60000000         0x00400000         xr
SRAM_OC          0x20200000         0x000c0000         xrw
SRAM_DTC         0x20000000         0x00020000         xrw
SRAM_ITC         0x00000000         0x00020000         xrw
BOARD_SDRAM      0x80000000         0x01e00000         xrw
NCACHE_REGION    0x81e00000         0x00200000         xrw
*default*        0x00000000         0xffffffff

Linker script and memory map

LOAD ./xip/evkmimxrt1060_flexspi_nor_config.o
LOAD ./xip/evkmimxrt1060_sdram_ini_dcd.o
LOAD ./xip/fsl_flexspi_nor_boot.o
LOAD ./utilities/fsl_assert.o
LOAD ./utilities/fsl_debug_console.o
LOAD ./utilities/fsl_str.o
LOAD ./startup/startup_mimxrt1062.o
LOAD ./source/Device_manager.o
LOAD ./source/Devices.o
LOAD ./source/common.o
LOAD ./source/cpp_config.o
LOAD ./source/node.o
LOAD ./source/semihost_hardfault.o
LOAD ./drivers/freertos/fsl_lpi2c_freertos.o
LOAD ./drivers/fsl_clock.o
LOAD ./drivers/fsl_common.o
LOAD ./drivers/fsl_gpio.o
LOAD ./drivers/fsl_gpt.o
LOAD ./drivers/fsl_lpi2c.o
LOAD ./drivers/fsl_lpuart.o
LOAD ./drivers/fsl_tempmon.o
LOAD ./device/system_MIMXRT1062.o
LOAD ./component/uart/lpuart_adapter.o
LOAD ./component/timer_manager/timer_manager.o
LOAD ./component/timer/gpt_adapter.o
LOAD ./component/serial_manager/serial_manager.o
LOAD ./component/serial_manager/serial_port_uart.o
LOAD ./component/lists/generic_list.o
LOAD ./component/led/led.o
LOAD ./component/i2c/lpi2c_adapter.o
LOAD ./component/gpio/igpio_adapter.o
LOAD ./component/button/button.o
LOAD ./board/board.o
LOAD ./board/clock_config.o
LOAD ./board/peripherals.o
LOAD ./board/pin_mux.o
LOAD ./amazon-freertos/freertos_kernel/portable/MemMang/heap_4.o
LOAD ./amazon-freertos/freertos_kernel/portable/GCC/ARM_CM4F/port.o
LOAD ./amazon-freertos/freertos_kernel/event_groups.o
LOAD ./amazon-freertos/freertos_kernel/list.o
LOAD ./amazon-freertos/freertos_kernel/queue.o
LOAD ./amazon-freertos/freertos_kernel/stream_buffer.o
LOAD ./amazon-freertos/freertos_kernel/tasks.o
LOAD ./amazon-freertos/freertos_kernel/timers.o
LOAD D:\projects\MCUXpresso\Device_manager\libs\libarm_cortexM7lfsp_math.a
LOAD D:\projects\MCUXpresso\Device_manager\libs\libarm_cortexM7lfdp_math.a
START GROUP
LOAD d:/programfiles/nxp/mcuxpressoide_11.1.0_3209/ide/plugins/com.nxp.mcuxpresso.tools.win32_11.1.0.201909161352/tools/bin/../lib/gcc/arm-none-eabi/8.3.1/thumb/v7e-m+fp/hard\libgcc.a
LOAD d:/programfiles/nxp/mcuxpressoide_11.1.0_3209/ide/plugins/com.nxp.mcuxpresso.tools.win32_11.1.0.201909161352/tools/bin/../lib/gcc/arm-none-eabi/8.3.1/../../../../arm-none-eabi/lib/thumb/v7e-m+fp/hard\libc.a
LOAD d:/programfiles/nxp/mcuxpressoide_11.1.0_3209/ide/plugins/com.nxp.mcuxpresso.tools.win32_11.1.0.201909161352/tools/bin/../lib/gcc/arm-none-eabi/8.3.1/../../../../arm-none-eabi/lib/thumb/v7e-m+fp/hard\libstdc++.a
LOAD d:/programfiles/nxp/mcuxpressoide_11.1.0_3209/ide/plugins/com.nxp.mcuxpresso.tools.win32_11.1.0.201909161352/tools/bin/../lib/gcc/arm-none-eabi/8.3.1/../../../../arm-none-eabi/lib/thumb/v7e-m+fp/hard\libm.a
LOAD d:/programfiles/nxp/mcuxpressoide_11.1.0_3209/ide/plugins/com.nxp.mcuxpresso.tools.win32_11.1.0.201909161352/tools/bin/../lib/gcc/arm-none-eabi/8.3.1/../../../../arm-none-eabi/lib/thumb/v7e-m+fp/hard\libcr_newlib_semihost.a
LOAD d:/programfiles/nxp/mcuxpressoide_11.1.0_3209/ide/plugins/com.nxp.mcuxpresso.tools.win32_11.1.0.201909161352/tools/bin/../lib/gcc/arm-none-eabi/8.3.1/thumb/v7e-m+fp/hard\crti.o
LOAD d:/programfiles/nxp/mcuxpressoide_11.1.0_3209/ide/plugins/com.nxp.mcuxpresso.tools.win32_11.1.0.201909161352/tools/bin/../lib/gcc/arm-none-eabi/8.3.1/thumb/v7e-m+fp/hard\crtn.o
LOAD d:/programfiles/nxp/mcuxpressoide_11.1.0_3209/ide/plugins/com.nxp.mcuxpresso.tools.win32_11.1.0.201909161352/tools/bin/../lib/gcc/arm-none-eabi/8.3.1/thumb/v7e-m+fp/hard\crtbegin.o
LOAD d:/programfiles/nxp/mcuxpressoide_11.1.0_3209/ide/plugins/com.nxp.mcuxpresso.tools.win32_11.1.0.201909161352/tools/bin/../lib/gcc/arm-none-eabi/8.3.1/thumb/v7e-m+fp/hard\crtend.o
END GROUP
                0x60000000                __base_BOARD_FLASH = 0x60000000
                0x60000000                __base_Flash = 0x60000000
                0x60400000                __top_BOARD_FLASH = 0x60400000
                0x60400000                __top_Flash = 0x60400000
                0x20200000                __base_SRAM_OC = 0x20200000
                0x20200000                __base_RAM = 0x20200000
                0x202c0000                __top_SRAM_OC = 0x202c0000
                0x202c0000                __top_RAM = 0x202c0000
                0x20000000                __base_SRAM_DTC = 0x20000000
                0x20000000                __base_RAM2 = 0x20000000
                0x20020000                __top_SRAM_DTC = 0x20020000
                0x20020000                __top_RAM2 = 0x20020000
                0x00000000                __base_SRAM_ITC = 0x0
                0x00000000                __base_RAM3 = 0x0
                0x00020000                __top_SRAM_ITC = 0x20000
                0x00020000                __top_RAM3 = 0x20000
                0x80000000                __base_BOARD_SDRAM = 0x80000000
                0x80000000                __base_RAM4 = 0x80000000
                0x81e00000                __top_BOARD_SDRAM = 0x81e00000
                0x81e00000                __top_RAM4 = 0x81e00000
                0x81e00000                __base_NCACHE_REGION = 0x81e00000
                0x81e00000                __base_RAM5 = 0x81e00000
                0x82000000                __top_NCACHE_REGION = 0x82000000
                0x82000000                __top_RAM5 = 0x82000000

.boot_hdr       0x60000000     0x2000
 FILL mask 0xff
                0x60000000                __boot_hdr_start__ = ABSOLUTE (.)
 *(SORT_BY_ALIGNMENT(.boot_hdr.conf))
 .boot_hdr.conf
                0x60000000      0x200 ./xip/evkmimxrt1060_flexspi_nor_config.o
                0x60000000                qspiflash_config
                0x00001000                . = 0x1000
 *fill*         0x60000200      0xe00 ff
 *(SORT_BY_ALIGNMENT(.boot_hdr.ivt))
 .boot_hdr.ivt  0x60001000       0x20 ./xip/fsl_flexspi_nor_boot.o
                0x60001000                image_vector_table
                0x00001020                . = 0x1020
 *(SORT_BY_ALIGNMENT(.boot_hdr.boot_data))
 .boot_hdr.boot_data
                0x60001020       0x10 ./xip/fsl_flexspi_nor_boot.o
                0x60001020                boot_data
                0x00001030                . = 0x1030
 *(SORT_BY_ALIGNMENT(.boot_hdr.dcd_data))
                0x60001030                __boot_hdr_end__ = ABSOLUTE (.)
                0x00002000                . = 0x2000
 *fill*         0x60001030      0xfd0 ff

.text           0x60002000    0x126fc
 FILL mask 0xff
                0x60002000                __vectors_start__ = ABSOLUTE (.)
 *(SORT_BY_ALIGNMENT(.isr_vector))
 .isr_vector    0x60002000      0x2b8 ./startup/startup_mimxrt1062.o
                0x60002000                g_pfnVectors
                0x60002000                __Vectors
                0x600022b8                . = ALIGN (0x4)
                0x600022b8                __section_table_start = .
                0x600022b8                __data_section_table = .
                0x600022b8        0x4 LONG 0x60014a24 LOADADDR (.data)
                0x600022bc        0x4 LONG 0x20200000 ADDR (.data)
                0x600022c0        0x4 LONG 0x9cc SIZEOF (.data)
                0x600022c4        0x4 LONG 0x60014a24 LOADADDR (.data_RAM2)
                0x600022c8        0x4 LONG 0x20000000 ADDR (.data_RAM2)
                0x600022cc        0x4 LONG 0x0 SIZEOF (.data_RAM2)
                0x600022d0        0x4 LONG 0x60014a24 LOADADDR (.data_RAM3)
                0x600022d4        0x4 LONG 0x0 ADDR (.data_RAM3)
                0x600022d8        0x4 LONG 0x0 SIZEOF (.data_RAM3)
                0x600022dc        0x4 LONG 0x60014a24 LOADADDR (.data_RAM4)
                0x600022e0        0x4 LONG 0x80000000 ADDR (.data_RAM4)
                0x600022e4        0x4 LONG 0x0 SIZEOF (.data_RAM4)
                0x600022e8        0x4 LONG 0x60014a24 LOADADDR (.data_RAM5)
                0x600022ec        0x4 LONG 0x81e00000 ADDR (.data_RAM5)
                0x600022f0        0x4 LONG 0x0 SIZEOF (.data_RAM5)
                0x600022f4                __data_section_table_end = .
                0x600022f4                __bss_section_table = .
                0x600022f4        0x4 LONG 0x202009cc ADDR (.bss)
                0x600022f8        0x4 LONG 0x1944c SIZEOF (.bss)
                0x600022fc        0x4 LONG 0x20000000 ADDR (.bss_RAM2)
                0x60002300        0x4 LONG 0x0 SIZEOF (.bss_RAM2)
                0x60002304        0x4 LONG 0x0 ADDR (.bss_RAM3)
                0x60002308        0x4 LONG 0x0 SIZEOF (.bss_RAM3)
                0x6000230c        0x4 LONG 0x80000000 ADDR (.bss_RAM4)
                0x60002310        0x4 LONG 0x0 SIZEOF (.bss_RAM4)
                0x60002314        0x4 LONG 0x81e00000 ADDR (.bss_RAM5)
                0x60002318        0x4 LONG 0x0 SIZEOF (.bss_RAM5)
                0x6000231c                __bss_section_table_end = .
                0x6000231c                __section_table_end = .
 *(SORT_BY_ALIGNMENT(.after_vectors*))
 .after_vectors.reset
                0x6000231c       0x4c ./startup/startup_mimxrt1062.o
                0x6000231c                ResetISR
 .after_vectors.init_data
                0x60002368       0x1e ./startup/startup_mimxrt1062.o
                0x60002368                data_init
 .after_vectors.init_bss
                0x60002386       0x12 ./startup/startup_mimxrt1062.o
                0x60002386                bss_init
 .after_vectors
                0x60002398        0xc ./startup/startup_mimxrt1062.o
                0x60002398                NMI_Handler
                0x600023a2                Reserved87_DriverIRQHandler
                0x600023a2                KPP_DriverIRQHandler
                0x600023a2                FLEXSPI2_DriverIRQHandler
                0x600023a2                LPSPI2_DriverIRQHandler
                0x600023a2                LCDIF_DriverIRQHandler
                0x600023a2                SAI3_RX_DriverIRQHandler
                0x600023a2                CCM_2_DriverIRQHandler
                0x600023a2                PIT_DriverIRQHandler
                0x600023a2                PMU_EVENT_DriverIRQHandler
                0x600023a2                PWM4_FAULT_DriverIRQHandler
                0x600023a2                DMA13_DMA29_DriverIRQHandler
                0x600023a2                FLEXRAM_DriverIRQHandler
                0x600023a2                LPSPI4_DriverIRQHandler
                0x600023a2                SEMC_DriverIRQHandler
                0x600023a2                SPDIF_DriverIRQHandler
                0x600023a2                PWM4_3_DriverIRQHandler
                0x600023a2                ENET2_DriverIRQHandler
                0x600023a2                ACMP4_DriverIRQHandler
                0x600023a2                USB_PHY1_DriverIRQHandler
                0x600023a2                GPIO3_Combined_0_15_DriverIRQHandler
                0x600023a2                CAN3_DriverIRQHandler
                0x600023a2                Reserved171_DriverIRQHandler
                0x600023a2                DMA7_DMA23_DriverIRQHandler
                0x600023a2                BEE_DriverIRQHandler
                0x600023a2                GPR_IRQ_DriverIRQHandler
                0x600023a2                PWM2_FAULT_DriverIRQHandler
                0x600023a2                PWM3_1_DriverIRQHandler
                0x600023a2                DMA14_DMA30_DriverIRQHandler
                0x600023a2                TMR1_DriverIRQHandler
                0x600023a2                TRNG_DriverIRQHandler
                0x600023a2                PWM3_2_DriverIRQHandler
                0x600023a2                ENET_1588_Timer_DriverIRQHandler
                0x600023a2                FLEXIO2_DriverIRQHandler
                0x600023a2                GPIO2_Combined_16_31_DriverIRQHandler
                0x600023a2                Reserved143_DriverIRQHandler
                0x600023a2                PWM4_1_DriverIRQHandler
                0x600023a2                PWM3_3_DriverIRQHandler
                0x600023a2                DMA0_DMA16_DriverIRQHandler
                0x600023a2                IntDefaultHandler
                0x600023a2                DMA2_DMA18_DriverIRQHandler
                0x600023a2                SRC_DriverIRQHandler
                0x600023a2                GPIO1_INT4_DriverIRQHandler
                0x600023a2                Reserved144_DriverIRQHandler
                0x600023a2                USDHC1_DriverIRQHandler
                0x600023a2                ENC3_DriverIRQHandler
                0x600023a2                PWM3_FAULT_DriverIRQHandler
                0x600023a2                EWM_DriverIRQHandler
                0x600023a2                TSC_DIG_DriverIRQHandler
                0x600023a2                WDOG1_DriverIRQHandler
                0x600023a2                FLEXIO1_DriverIRQHandler
                0x600023a2                ENET_DriverIRQHandler
                0x600023a2                Reserved78_DriverIRQHandler
                0x600023a2                TMR4_DriverIRQHandler
                0x600023a2                ENC2_DriverIRQHandler
                0x600023a2                ADC_ETC_IRQ2_DriverIRQHandler
                0x600023a2                GPIO1_Combined_16_31_DriverIRQHandler
                0x600023a2                GPIO1_INT7_DriverIRQHandler
                0x600023a2                SAI1_DriverIRQHandler
                0x600023a2                DCDC_DriverIRQHandler
                0x600023a2                DMA12_DMA28_DriverIRQHandler
                0x600023a2                PWM4_0_DriverIRQHandler
                0x600023a2                ADC_ETC_ERROR_IRQ_DriverIRQHandler
                0x600023a2                ACMP2_DriverIRQHandler
                0x600023a2                GPIO5_Combined_0_15_DriverIRQHandler
                0x600023a2                GPIO1_INT0_DriverIRQHandler
                0x600023a2                GPIO1_INT2_DriverIRQHandler
                0x600023a2                RTWDOG_DriverIRQHandler
                0x600023a2                FLEXSPI_DriverIRQHandler
                0x600023a2                GPT2_DriverIRQHandler
                0x600023a2                USB_PHY2_DriverIRQHandler
                0x600023a2                DMA10_DMA26_DriverIRQHandler
                0x600023a2                PWM2_1_DriverIRQHandler
                0x600023a2                PWM1_1_DriverIRQHandler
                0x600023a2                PXP_DriverIRQHandler
                0x600023a2                ADC1_DriverIRQHandler
                0x600023a2                PWM1_0_DriverIRQHandler
                0x600023a2                SJC_DriverIRQHandler
                0x600023a2                DMA1_DMA17_DriverIRQHandler
                0x600023a2                ENC1_DriverIRQHandler
                0x600023a2                ENC4_DriverIRQHandler
                0x600023a2                CAN2_DriverIRQHandler
                0x600023a2                DCP_DriverIRQHandler
                0x600023a2                CTI0_ERROR_DriverIRQHandler
                0x600023a2                DMA8_DMA24_DriverIRQHandler
                0x600023a2                GPT1_DriverIRQHandler
                0x600023a2                ACMP3_DriverIRQHandler
                0x600023a2                DMA6_DMA22_DriverIRQHandler
                0x600023a2                CSU_DriverIRQHandler
                0x600023a2                GPIO1_INT5_DriverIRQHandler
                0x600023a2                TMR3_DriverIRQHandler
                0x600023a2                TMR2_DriverIRQHandler
                0x600023a2                CTI1_ERROR_DriverIRQHandler
                0x600023a2                GPIO1_Combined_0_15_DriverIRQHandler
                0x600023a2                USDHC2_DriverIRQHandler
                0x600023a2                PWM4_2_DriverIRQHandler
                0x600023a2                SAI2_DriverIRQHandler
                0x600023a2                CORE_DriverIRQHandler
                0x600023a2                DMA11_DMA27_DriverIRQHandler
                0x600023a2                CSI_DriverIRQHandler
                0x600023a2                PWM2_3_DriverIRQHandler
                0x600023a2                XBAR1_IRQ_2_3_DriverIRQHandler
                0x600023a2                SNVS_HP_WRAPPER_TZ_DriverIRQHandler
                0x600023a2                GPIO3_Combined_16_31_DriverIRQHandler
                0x600023a2                PWM1_FAULT_DriverIRQHandler
                0x600023a2                ENET2_1588_Timer_DriverIRQHandler
                0x600023a2                PWM2_2_DriverIRQHandler
                0x600023a2                DMA4_DMA20_DriverIRQHandler
                0x600023a2                DMA9_DMA25_DriverIRQHandler
                0x600023a2                SNVS_HP_WRAPPER_DriverIRQHandler
                0x600023a2                XBAR1_IRQ_0_1_DriverIRQHandler
                0x600023a2                ADC_ETC_IRQ1_DriverIRQHandler
                0x600023a2                LPSPI1_DriverIRQHandler
                0x600023a2                DMA3_DMA19_DriverIRQHandler
                0x600023a2                GPIO1_INT3_DriverIRQHandler
                0x600023a2                DCP_VMI_DriverIRQHandler
                0x600023a2                GPC_DriverIRQHandler
                0x600023a2                GPIO2_Combined_0_15_DriverIRQHandler
                0x600023a2                PWM1_2_DriverIRQHandler
                0x600023a2                USB_OTG1_DriverIRQHandler
                0x600023a2                TEMP_LOW_HIGH_DriverIRQHandler
                0x600023a2                SAI3_TX_DriverIRQHandler
                0x600023a2                FLEXIO3_DriverIRQHandler
                0x600023a2                WDOG2_DriverIRQHandler
                0x600023a2                Reserved68_DriverIRQHandler
                0x600023a2                PWM3_0_DriverIRQHandler
                0x600023a2                GPIO4_Combined_0_15_DriverIRQHandler
                0x600023a2                GPIO4_Combined_16_31_DriverIRQHandler
                0x600023a2                GPIO6_7_8_9_DriverIRQHandler
                0x600023a2                GPIO5_Combined_16_31_DriverIRQHandler
                0x600023a2                DMA5_DMA21_DriverIRQHandler
                0x600023a2                CCM_1_DriverIRQHandler
                0x600023a2                ADC2_DriverIRQHandler
                0x600023a2                Reserved115_DriverIRQHandler
                0x600023a2                TEMP_PANIC_DriverIRQHandler
                0x600023a2                DMA15_DMA31_DriverIRQHandler
                0x600023a2                LPSPI3_DriverIRQHandler
                0x600023a2                PWM1_3_DriverIRQHandler
                0x600023a2                ACMP1_DriverIRQHandler
                0x600023a2                Reserved86_DriverIRQHandler
                0x600023a2                DMA_ERROR_DriverIRQHandler
                0x600023a2                ADC_ETC_IRQ0_DriverIRQHandler
                0x600023a2                CAN1_DriverIRQHandler
                0x600023a2                GPIO1_INT6_DriverIRQHandler
                0x600023a2                GPIO1_INT1_DriverIRQHandler
                0x600023a2                PWM2_0_DriverIRQHandler
                0x600023a2                SNVS_LP_WRAPPER_DriverIRQHandler
                0x600023a2                USB_OTG2_DriverIRQHandler
 *(SORT_BY_ALIGNMENT(.text*))
 *fill*         0x600023a4       0x1c ff
 .text          0x600023c0       0xdc d:/programfiles/nxp/mcuxpressoide_11.1.0_3209/ide/plugins/com.nxp.mcuxpresso.tools.win32_11.1.0.201909161352/tools/bin/../lib/gcc/arm-none-eabi/8.3.1/../../../../arm-none-eabi/lib/thumb/v7e-m+fp/hard\libc.a(lib_a-strlen.o)
                0x600023c0                strlen
 *fill*         0x6000249c        0x4 ff
 .text          0x600024a0      0x2dc d:/programfiles/nxp/mcuxpressoide_11.1.0_3209/ide/plugins/com.nxp.mcuxpresso.tools.win32_11.1.0.201909161352/tools/bin/../lib/gcc/arm-none-eabi/8.3.1/../../../../arm-none-eabi/lib/thumb/v7e-m+fp/hard\libc.a(lib_a-strcmp.o)
                0x600024a8                strcmp
 *fill*         0x6000277c        0x4 ff
 .text.SVC_Handler
                0x60002780       0x28 ./amazon-freertos/freertos_kernel/portable/GCC/ARM_CM4F/port.o
                0x60002780                SVC_Handler
 *fill*         0x600027a8        0x8 ff
 .text.PendSV_Handler
                0x600027b0       0x68 ./amazon-freertos/freertos_kernel/portable/GCC/ARM_CM4F/port.o
                0x600027b0                PendSV_Handler
 *fill*         0x60002818        0x8 ff
 .text          0x60002820       0xa0 d:/programfiles/nxp/mcuxpressoide_11.1.0_3209/ide/plugins/com.nxp.mcuxpresso.tools.win32_11.1.0.201909161352/tools/bin/../lib/gcc/arm-none-eabi/8.3.1/../../../../arm-none-eabi/lib/thumb/v7e-m+fp/hard\libc.a(lib_a-memchr.o)
                0x60002820                memchr
 .text._vfprintf_r
                0x600028c0     0x1adc d:/programfiles/nxp/mcuxpressoide_11.1.0_3209/ide/plugins/com.nxp.mcuxpresso.tools.win32_11.1.0.201909161352/tools/bin/../lib/gcc/arm-none-eabi/8.3.1/../../../../arm-none-eabi/lib/thumb/v7e-m+fp/hard\libc.a(lib_a-vfprintf.o)
                0x600028c0                _vfprintf_r
 *fill*         0x6000439c        0x4 ff
 .text._dtoa_r  0x600043a0      0xe54 d:/programfiles/nxp/mcuxpressoide_11.1.0_3209/ide/plugins/com.nxp.mcuxpresso.tools.win32_11.1.0.201909161352/tools/bin/../lib/gcc/arm-none-eabi/8.3.1/../../../../arm-none-eabi/lib/thumb/v7e-m+fp/hard\libc.a(lib_a-dtoa.o)
                0x600043a0                _dtoa_r
 *fill*         0x600051f4        0x4 ff
 .text.pow      0x600051f8      0x19c d:/programfiles/nxp/mcuxpressoide_11.1.0_3209/ide/plugins/com.nxp.mcuxpresso.tools.win32_11.1.0.201909161352/tools/bin/../lib/gcc/arm-none-eabi/8.3.1/../../../../arm-none-eabi/lib/thumb/v7e-m+fp/hard\libm.a(lib_a-w_pow.o)
                0x600051f8                pow
 *fill*         0x60005394        0x4 ff
 .text.__ieee754_pow
                0x60005398      0xad8 d:/programfiles/nxp/mcuxpressoide_11.1.0_3209/ide/plugins/com.nxp.mcuxpresso.tools.win32_11.1.0.201909161352/tools/bin/../lib/gcc/arm-none-eabi/8.3.1/../../../../arm-none-eabi/lib/thumb/v7e-m+fp/hard\libm.a(lib_a-e_pow.o)
                0x60005398                __ieee754_pow
 .text.nan      0x60005e70       0x10 d:/programfiles/nxp/mcuxpressoide_11.1.0_3209/ide/plugins/com.nxp.mcuxpresso.tools.win32_11.1.0.201909161352/tools/bin/../lib/gcc/arm-none-eabi/8.3.1/../../../../arm-none-eabi/lib/thumb/v7e-m+fp/hard\libm.a(lib_a-s_nan.o)
                0x60005e70                nan
 .text.scalbn   0x60005e80      0x124 d:/programfiles/nxp/mcuxpressoide_11.1.0_3209/ide/plugins/com.nxp.mcuxpresso.tools.win32_11.1.0.201909161352/tools/bin/../lib/gcc/arm-none-eabi/8.3.1/../../../../arm-none-eabi/lib/thumb/v7e-m+fp/hard\libm.a(lib_a-s_scalbn.o)
                0x60005e80                scalbn
 .text.__assert_func
                0x60005fa4       0x28 ./utilities/fsl_assert.o
                0x60005fa4                __assert_func
 .text.__NVIC_SetPriority
                0x60005fcc       0x5c ./source/Device_manager.o
 .text._ZN14TEST_base_nodeC2EP18_lpi2c_rtos_handleNSt7__cxx1112basic_stringIcSt11char_traitsIcESaIcEEE
                0x60006028      0xc54 ./source/Device_manager.o
                0x60006028                TEST_base_node::TEST_base_node(_lpi2c_rtos_handle*, std::__cxx11::basic_string<char, std::char_traits<char>, std::allocator<char> >)
                0x60006028                TEST_base_node::TEST_base_node(_lpi2c_rtos_handle*, std::__cxx11::basic_string<char, std::char_traits<char>, std::allocator<char> >)
 .text.main     0x60006c7c       0xc4 ./source/Device_manager.o
                0x60006c7c                main
 .text._ZL18I2C_3_manager_taskPv
                0x60006d40       0xd0 ./source/Device_manager.o
 .text._ZL11Simple_readPv
                0x60006e10      0x114 ./source/Device_manager.o
 .text.vApplicationMallocFailedHook
                0x60006f24       0x18 ./source/Device_manager.o
                0x60006f24                vApplicationMallocFailedHook
 .text.vApplicationStackOverflowHook
                0x60006f3c       0x20 ./source/Device_manager.o
                0x60006f3c                vApplicationStackOverflowHook
 .text._ZN16monitored_device14device_readoutEP18_lpi2c_rtos_handleRtPf
                0x60006f5c       0x24 ./source/Devices.o
                0x60006f5c                monitored_device::device_readout(_lpi2c_rtos_handle*, unsigned short&, float*)
 .text._ZN16monitored_deviceC2EhNSt7__cxx1112basic_stringIcSt11char_traitsIcESaIcEEEh
                0x60006f80       0x4c ./source/Devices.o
                0x60006f80                monitored_device::monitored_device(unsigned char, std::__cxx11::basic_string<char, std::char_traits<char>, std::allocator<char> >, unsigned char)
                0x60006f80                monitored_device::monitored_device(unsigned char, std::__cxx11::basic_string<char, std::char_traits<char>, std::allocator<char> >, unsigned char)
 .text._ZN12pmbus_deviceC2EhNSt7__cxx1112basic_stringIcSt11char_traitsIcESaIcEEEPP12pmbus_sensor
                0x60006fcc       0x50 ./source/Devices.o
                0x60006fcc                pmbus_device::pmbus_device(unsigned char, std::__cxx11::basic_string<char, std::char_traits<char>, std::allocator<char> >, pmbus_sensor**)
                0x60006fcc                pmbus_device::pmbus_device(unsigned char, std::__cxx11::basic_string<char, std::char_traits<char>, std::allocator<char> >, pmbus_sensor**)
 .text._ZN10I2C_switch11set_channelEP18_lpi2c_rtos_handleh
                0x6000701c       0x94 ./source/Devices.o
                0x6000701c                I2C_switch::set_channel(_lpi2c_rtos_handle*, unsigned char)
 .text._ZN10I2C_switch7set_offEP18_lpi2c_rtos_handle
                0x600070b0       0x40 ./source/Devices.o
                0x600070b0                I2C_switch::set_off(_lpi2c_rtos_handle*)
 .text.I2C_write_reg
                0x600070f0       0xa4 ./source/common.o
                0x600070f0                I2C_write_reg
 .text._ZN4node9read_nodeEP18_lpi2c_rtos_handleRtPf
                0x60007194      0x13c ./source/node.o
                0x60007194                node::read_node(_lpi2c_rtos_handle*, unsigned short&, float*)
 .text._ZN9base_node13update_bufferEPf
                0x600072d0       0x38 ./source/node.o
                0x600072d0                base_node::update_buffer(float*)
 .text.LPI2C_RTOS_Callback
                0x60007308       0x4c ./drivers/freertos/fsl_lpi2c_freertos.o
 .text.LPI2C_RTOS_Init
                0x60007354       0x9c ./drivers/freertos/fsl_lpi2c_freertos.o
                0x60007354                LPI2C_RTOS_Init
 .text.CLOCK_GetOscFreq
                0x600073f0       0x30 ./drivers/fsl_clock.o
 .text.CLOCK_InitExternalClk
                0x60007420       0x78 ./drivers/fsl_clock.o
                0x60007420                CLOCK_InitExternalClk
 .text.CLOCK_SwitchOsc
                0x60007498       0x34 ./drivers/fsl_clock.o
                0x60007498                CLOCK_SwitchOsc
 .text.CLOCK_InitRcOsc24M
                0x600074cc       0x24 ./drivers/fsl_clock.o
                0x600074cc                CLOCK_InitRcOsc24M
 .text.CLOCK_InitArmPll
                0x600074f0       0x68 ./drivers/fsl_clock.o
                0x600074f0                CLOCK_InitArmPll
 .text.CLOCK_InitSysPll
                0x60007558       0x9c ./drivers/fsl_clock.o
                0x60007558                CLOCK_InitSysPll
 .text.CLOCK_DeinitUsb2Pll
                0x600075f4       0x18 ./drivers/fsl_clock.o
                0x600075f4                CLOCK_DeinitUsb2Pll
 .text.CLOCK_DeinitAudioPll
                0x6000760c       0x1c ./drivers/fsl_clock.o
                0x6000760c                CLOCK_DeinitAudioPll
 .text.CLOCK_DeinitEnetPll
                0x60007628       0x1c ./drivers/fsl_clock.o
                0x60007628                CLOCK_DeinitEnetPll
 .text.CLOCK_GetPllFreq
                0x60007644      0x3e8 ./drivers/fsl_clock.o
                0x60007644                CLOCK_GetPllFreq
 .text.CLOCK_InitSysPfd
                0x60007a2c       0x64 ./drivers/fsl_clock.o
                0x60007a2c                CLOCK_InitSysPfd
 .text.CLOCK_ControlGate
                0x60007a90       0x74 ./drivers/fsl_gpio.o
 .text.GPIO_GetInstance
                0x60007b04       0x58 ./drivers/fsl_gpio.o
 .text.GPIO_PinInit
                0x60007b5c       0xa4 ./drivers/fsl_gpio.o
                0x60007b5c                GPIO_PinInit
 .text.GPIO_PinWrite
                0x60007c00       0x64 ./drivers/fsl_gpio.o
                0x60007c00                GPIO_PinWrite
 .text.GPIO_PinSetInterruptConfig
                0x60007c64       0xfc ./drivers/fsl_gpio.o
                0x60007c64                GPIO_PinSetInterruptConfig
 .text.__NVIC_EnableIRQ
                0x60007d60       0x3c ./drivers/fsl_lpi2c.o
 .text.CLOCK_ControlGate
                0x60007d9c       0x74 ./drivers/fsl_lpi2c.o
 .text.LPI2C_GetInstance
                0x60007e10       0x58 ./drivers/fsl_lpi2c.o
                0x60007e10                LPI2C_GetInstance
 .text.LPI2C_GetCyclesForWidth
                0x60007e68       0xb0 ./drivers/fsl_lpi2c.o
 .text.LPI2C_MasterInit
                0x60007f18      0x1cc ./drivers/fsl_lpi2c.o
                0x60007f18                LPI2C_MasterInit
 .text.LPI2C_MasterSetBaudRate
                0x600080e4      0x17c ./drivers/fsl_lpi2c.o
                0x600080e4                LPI2C_MasterSetBaudRate
 .text.LPI2C_MasterTransferCreateHandle
                0x60008260       0x8c ./drivers/fsl_lpi2c.o
                0x60008260                LPI2C_MasterTransferCreateHandle
 .text.LPI2C_RunTransferStateMachine
                0x600082ec      0x25c ./drivers/fsl_lpi2c.o
 .text.LPI2C_MasterTransferNonBlocking
                0x60008548       0xd0 ./drivers/fsl_lpi2c.o
                0x60008548                LPI2C_MasterTransferNonBlocking
 .text.LPI2C_CommonIRQHandler
                0x60008618       0x70 ./drivers/fsl_lpi2c.o
 .text.LPI2C1_DriverIRQHandler
                0x60008688       0x14 ./drivers/fsl_lpi2c.o
                0x60008688                LPI2C1_DriverIRQHandler
 .text.LPI2C2_DriverIRQHandler
                0x6000869c       0x14 ./drivers/fsl_lpi2c.o
                0x6000869c                LPI2C2_DriverIRQHandler
 .text.LPI2C3_DriverIRQHandler
                0x600086b0       0x14 ./drivers/fsl_lpi2c.o
                0x600086b0                LPI2C3_DriverIRQHandler
 .text.LPI2C4_DriverIRQHandler
                0x600086c4       0x14 ./drivers/fsl_lpi2c.o
                0x600086c4                LPI2C4_DriverIRQHandler
 .text.LPUART1_DriverIRQHandler
                0x600086d8       0x24 ./drivers/fsl_lpuart.o
                0x600086d8                LPUART1_DriverIRQHandler
 .text.LPUART2_DriverIRQHandler
                0x600086fc       0x24 ./drivers/fsl_lpuart.o
                0x600086fc                LPUART2_DriverIRQHandler
 .text.LPUART3_DriverIRQHandler
                0x60008720       0x24 ./drivers/fsl_lpuart.o
                0x60008720                LPUART3_DriverIRQHandler
 .text.LPUART4_DriverIRQHandler
                0x60008744       0x24 ./drivers/fsl_lpuart.o
                0x60008744                LPUART4_DriverIRQHandler
 .text.LPUART5_DriverIRQHandler
                0x60008768       0x24 ./drivers/fsl_lpuart.o
                0x60008768                LPUART5_DriverIRQHandler
 .text.LPUART6_DriverIRQHandler
                0x6000878c       0x24 ./drivers/fsl_lpuart.o
                0x6000878c                LPUART6_DriverIRQHandler
 .text.LPUART7_DriverIRQHandler
                0x600087b0       0x24 ./drivers/fsl_lpuart.o
                0x600087b0                LPUART7_DriverIRQHandler
 .text.LPUART8_DriverIRQHandler
                0x600087d4       0x24 ./drivers/fsl_lpuart.o
                0x600087d4                LPUART8_DriverIRQHandler
 .text.SystemInit
                0x600087f8      0x1c8 ./device/system_MIMXRT1062.o
                0x600087f8                SystemInit
 .text.HAL_TimerInterruptHandle
                0x600089c0       0x4c ./component/timer/gpt_adapter.o
 .text.HAL_GpioInterruptCallback
                0x60008a0c       0x64 ./component/gpio/igpio_adapter.o
 .text.HAL_GpioInterruptHandle
                0x60008a70       0x7c ./component/gpio/igpio_adapter.o
 .text.ARM_MPU_Enable
                0x60008aec       0x3c ./board/board.o
 .text.ARM_MPU_Disable
                0x60008b28       0x34 ./board/board.o
 .text.CLOCK_GetMux
                0x60008b5c       0x44 ./board/board.o
 .text.CLOCK_GetDiv
                0x60008ba0       0x44 ./board/board.o
 .text.CLOCK_GetOscFreq
                0x60008be4       0x30 ./board/board.o
 .text.BOARD_DebugConsoleSrcFreq
                0x60008c14       0x64 ./board/board.o
                0x60008c14                BOARD_DebugConsoleSrcFreq
 .text.BOARD_ConfigMPU
                0x60008c78      0x2cc ./board/board.o
                0x60008c78                BOARD_ConfigMPU
 .text.CLOCK_SetMux
                0x60008f44       0xac ./board/clock_config.o
 .text.CLOCK_SetDiv
                0x60008ff0       0xac ./board/clock_config.o
 .text.CLOCK_ControlGate
                0x6000909c       0x74 ./board/clock_config.o
 .text.CLOCK_SetXtalFreq
                0x60009110       0x20 ./board/clock_config.o
 .text.CLOCK_SetRtcXtalFreq
                0x60009130       0x20 ./board/clock_config.o
 .text.IOMUXC_EnableMode
                0x60009150       0x48 ./board/clock_config.o
 .text.IOMUXC_MQSConfig
                0x60009198       0x44 ./board/clock_config.o
 .text.BOARD_BootClockRUN
                0x600091dc      0x6ac ./board/clock_config.o
                0x600091dc                BOARD_BootClockRUN
 .text.LPI2C1_init
                0x60009888       0x24 ./board/peripherals.o
                0x60009888                LPI2C1_init
 .text.LPI2C2_init
                0x600098ac       0x24 ./board/peripherals.o
                0x600098ac                LPI2C2_init
 .text.LPI2C3_init
                0x600098d0       0x24 ./board/peripherals.o
                0x600098d0                LPI2C3_init
 .text.LPI2C4_init
                0x600098f4       0x24 ./board/peripherals.o
                0x600098f4                LPI2C4_init
 .text.CLOCK_ControlGate
                0x60009918       0x74 ./board/pin_mux.o
 .text.BOARD_InitPins
                0x6000998c      0x224 ./board/pin_mux.o
                0x6000998c                BOARD_InitPins
 .text.pvPortMalloc
                0x60009bb0      0x18c ./amazon-freertos/freertos_kernel/portable/MemMang/heap_4.o
                0x60009bb0                pvPortMalloc
 .text.vPortFree
                0x60009d3c       0xb0 ./amazon-freertos/freertos_kernel/portable/MemMang/heap_4.o
                0x60009d3c                vPortFree
 .text.prvHeapInit
                0x60009dec       0xc4 ./amazon-freertos/freertos_kernel/portable/MemMang/heap_4.o
 .text.prvInsertBlockIntoFreeList
                0x60009eb0       0xb4 ./amazon-freertos/freertos_kernel/portable/MemMang/heap_4.o
 .text.pxPortInitialiseStack
                0x60009f64       0x68 ./amazon-freertos/freertos_kernel/portable/GCC/ARM_CM4F/port.o
                0x60009f64                pxPortInitialiseStack
 .text.prvTaskExitError
                0x60009fcc       0x54 ./amazon-freertos/freertos_kernel/portable/GCC/ARM_CM4F/port.o
 .text.prvPortStartFirstTask
                0x6000a020       0x28 ./amazon-freertos/freertos_kernel/portable/GCC/ARM_CM4F/port.o
 .text.xPortStartScheduler
                0x6000a048      0x13c ./amazon-freertos/freertos_kernel/portable/GCC/ARM_CM4F/port.o
                0x6000a048                xPortStartScheduler
 .text.vPortEnterCritical
                0x6000a184       0x5c ./amazon-freertos/freertos_kernel/portable/GCC/ARM_CM4F/port.o
                0x6000a184                vPortEnterCritical
 .text.vPortExitCritical
                0x6000a1e0       0x50 ./amazon-freertos/freertos_kernel/portable/GCC/ARM_CM4F/port.o
                0x6000a1e0                vPortExitCritical
 .text.SysTick_Handler
                0x6000a230       0x40 ./amazon-freertos/freertos_kernel/portable/GCC/ARM_CM4F/port.o
                0x6000a230                SysTick_Handler
 .text.vPortSetupTimerInterrupt
                0x6000a270       0x48 ./amazon-freertos/freertos_kernel/portable/GCC/ARM_CM4F/port.o
                0x6000a270                vPortSetupTimerInterrupt
 .text.vPortEnableVFP
                0x6000a2b8       0x14 ./amazon-freertos/freertos_kernel/portable/GCC/ARM_CM4F/port.o
 .text.vPortValidateInterruptPriority
                0x6000a2cc       0x7c ./amazon-freertos/freertos_kernel/portable/GCC/ARM_CM4F/port.o
                0x6000a2cc                vPortValidateInterruptPriority
 .text.xQueueGenericReset
                0x6000a348       0xd0 ./amazon-freertos/freertos_kernel/queue.o
                0x6000a348                xQueueGenericReset
 .text.xQueueGenericSend
                0x6000a418      0x1f4 ./amazon-freertos/freertos_kernel/queue.o
                0x6000a418                xQueueGenericSend
 .text.xQueueReceive
                0x6000a60c      0x1b8 ./amazon-freertos/freertos_kernel/queue.o
                0x6000a60c                xQueueReceive
 .text.xQueueSemaphoreTake
                0x6000a7c4      0x214 ./amazon-freertos/freertos_kernel/queue.o
                0x6000a7c4                xQueueSemaphoreTake
 .text.vQueueAddToRegistry
                0x6000a9d8       0x50 ./amazon-freertos/freertos_kernel/queue.o
                0x6000a9d8                vQueueAddToRegistry
 .text.vQueueUnregisterQueue
                0x6000aa28       0x54 ./amazon-freertos/freertos_kernel/queue.o
                0x6000aa28                vQueueUnregisterQueue
 .text.prvAddNewTaskToReadyList
                0x6000aa7c       0xdc ./amazon-freertos/freertos_kernel/tasks.o
 .text.vTaskDelay
                0x6000ab58       0x68 ./amazon-freertos/freertos_kernel/tasks.o
                0x6000ab58                vTaskDelay
 .text.vTaskStartScheduler
                0x6000abc0       0x98 ./amazon-freertos/freertos_kernel/tasks.o
                0x6000abc0                vTaskStartScheduler
 .text.vTaskSuspendAll
                0x6000ac58       0x1c ./amazon-freertos/freertos_kernel/tasks.o
                0x6000ac58                vTaskSuspendAll
 .text.xTaskResumeAll
                0x6000ac74      0x138 ./amazon-freertos/freertos_kernel/tasks.o
                0x6000ac74                xTaskResumeAll
 .text.xTaskGetTickCount
                0x6000adac       0x20 ./amazon-freertos/freertos_kernel/tasks.o
                0x6000adac                xTaskGetTickCount
 .text.pcTaskGetName
                0x6000adcc       0x48 ./amazon-freertos/freertos_kernel/tasks.o
                0x6000adcc                pcTaskGetName
 .text.xTaskIncrementTick
                0x6000ae14      0x150 ./amazon-freertos/freertos_kernel/tasks.o
                0x6000ae14                xTaskIncrementTick
 .text.vTaskSwitchContext
                0x6000af64       0xd4 ./amazon-freertos/freertos_kernel/tasks.o
                0x6000af64                vTaskSwitchContext
 .text.vTaskPlaceOnEventList
                0x6000b038       0x48 ./amazon-freertos/freertos_kernel/tasks.o
                0x6000b038                vTaskPlaceOnEventList
 .text.vTaskPlaceOnEventListRestricted
                0x6000b080       0x54 ./amazon-freertos/freertos_kernel/tasks.o
                0x6000b080                vTaskPlaceOnEventListRestricted
 .text.xTaskRemoveFromEventList
                0x6000b0d4       0xc4 ./amazon-freertos/freertos_kernel/tasks.o
                0x6000b0d4                xTaskRemoveFromEventList
 .text.vTaskInternalSetTimeOutState
                0x6000b198       0x2c ./amazon-freertos/freertos_kernel/tasks.o
                0x6000b198                vTaskInternalSetTimeOutState
 .text.xTaskCheckForTimeOut
                0x6000b1c4       0xc0 ./amazon-freertos/freertos_kernel/tasks.o
                0x6000b1c4                xTaskCheckForTimeOut
 .text.vTaskMissedYield
                0x6000b284       0x18 ./amazon-freertos/freertos_kernel/tasks.o
                0x6000b284                vTaskMissedYield
 .text.prvIdleTask
                0x6000b29c       0x34 ./amazon-freertos/freertos_kernel/tasks.o
 .text.prvInitialiseTaskLists
                0x6000b2d0       0x80 ./amazon-freertos/freertos_kernel/tasks.o
 .text.prvCheckTasksWaitingTermination
                0x6000b350       0x58 ./amazon-freertos/freertos_kernel/tasks.o
 .text.prvResetNextTaskUnblockTime
                0x6000b3a8       0x40 ./amazon-freertos/freertos_kernel/tasks.o
 .text.xTaskGetSchedulerState
                0x6000b3e8       0x3c ./amazon-freertos/freertos_kernel/tasks.o
                0x6000b3e8                xTaskGetSchedulerState
 .text.xTaskPriorityInherit
                0x6000b424      0x100 ./amazon-freertos/freertos_kernel/tasks.o
                0x6000b424                xTaskPriorityInherit
 .text.xTaskPriorityDisinherit
                0x6000b524      0x108 ./amazon-freertos/freertos_kernel/tasks.o
                0x6000b524                xTaskPriorityDisinherit
 .text.vTaskPriorityDisinheritAfterTimeout
                0x6000b62c      0x130 ./amazon-freertos/freertos_kernel/tasks.o
                0x6000b62c                vTaskPriorityDisinheritAfterTimeout
 .text.pvTaskIncrementMutexHeldCount
                0x6000b75c       0x28 ./amazon-freertos/freertos_kernel/tasks.o
                0x6000b75c                pvTaskIncrementMutexHeldCount
 .text.prvAddCurrentTaskToDelayedList
                0x6000b784       0xcc ./amazon-freertos/freertos_kernel/tasks.o
 .text.xTimerCreateTimerTask
                0x6000b850       0x64 ./amazon-freertos/freertos_kernel/timers.o
                0x6000b850                xTimerCreateTimerTask
 .text.xTimerGenericCommand
                0x6000b8b4       0x98 ./amazon-freertos/freertos_kernel/timers.o
                0x6000b8b4                xTimerGenericCommand
 .text.prvProcessExpiredTimer
                0x6000b94c       0x98 ./amazon-freertos/freertos_kernel/timers.o
 .text.prvProcessTimerOrBlockTask
                0x6000b9e4       0x9c ./amazon-freertos/freertos_kernel/timers.o
 .text.prvGetNextExpireTime
                0x6000ba80       0x48 ./amazon-freertos/freertos_kernel/timers.o
 .text.prvSampleTimeNow
                0x6000bac8       0x40 ./amazon-freertos/freertos_kernel/timers.o
 .text.prvInsertTimerInActiveList
                0x6000bb08       0x84 ./amazon-freertos/freertos_kernel/timers.o
 .text.prvProcessReceivedCommands
                0x6000bb8c      0x1b8 ./amazon-freertos/freertos_kernel/timers.o
 .text.prvSwitchTimerLists
                0x6000bd44       0xc8 ./amazon-freertos/freertos_kernel/timers.o
 .text.prvCheckForValidListAndQueue
                0x6000be0c       0x6c ./amazon-freertos/freertos_kernel/timers.o
 .text          0x6000be78      0x378 d:/programfiles/nxp/mcuxpressoide_11.1.0_3209/ide/plugins/com.nxp.mcuxpresso.tools.win32_11.1.0.201909161352/tools/bin/../lib/gcc/arm-none-eabi/8.3.1/thumb/v7e-m+fp/hard\libgcc.a(_arm_addsubdf3.o)
                0x6000be78                __aeabi_drsub
                0x6000be80                __aeabi_dsub
                0x6000be80                __subdf3
                0x6000be84                __aeabi_dadd
                0x6000be84                __adddf3
                0x6000c0fc                __floatunsidf
                0x6000c0fc                __aeabi_ui2d
                0x6000c11c                __floatsidf
                0x6000c11c                __aeabi_i2d
                0x6000c140                __aeabi_f2d
                0x6000c140                __extendsfdf2
                0x6000c184                __floatundidf
                0x6000c184                __aeabi_ul2d
                0x6000c194                __floatdidf
                0x6000c194                __aeabi_l2d
 .text          0x6000c1f0      0x424 d:/programfiles/nxp/mcuxpressoide_11.1.0_3209/ide/plugins/com.nxp.mcuxpresso.tools.win32_11.1.0.201909161352/tools/bin/../lib/gcc/arm-none-eabi/8.3.1/thumb/v7e-m+fp/hard\libgcc.a(_arm_muldivdf3.o)
                0x6000c1f0                __aeabi_dmul
                0x6000c1f0                __muldf3
                0x6000c444                __divdf3
                0x6000c444                __aeabi_ddiv
 .text          0x6000c614       0xa0 d:/programfiles/nxp/mcuxpressoide_11.1.0_3209/ide/plugins/com.nxp.mcuxpresso.tools.win32_11.1.0.201909161352/tools/bin/../lib/gcc/arm-none-eabi/8.3.1/thumb/v7e-m+fp/hard\libgcc.a(_arm_truncdfsf2.o)
                0x6000c614                __truncdfsf2
                0x6000c614                __aeabi_d2f
 .text          0x6000c6b4       0x30 d:/programfiles/nxp/mcuxpressoide_11.1.0_3209/ide/plugins/com.nxp.mcuxpresso.tools.win32_11.1.0.201909161352/tools/bin/../lib/gcc/arm-none-eabi/8.3.1/thumb/v7e-m+fp/hard\libgcc.a(_aeabi_uldivmod.o)
                0x6000c6b4                __aeabi_uldivmod
 .text          0x6000c6e4      0x2d0 d:/programfiles/nxp/mcuxpressoide_11.1.0_3209/ide/plugins/com.nxp.mcuxpresso.tools.win32_11.1.0.201909161352/tools/bin/../lib/gcc/arm-none-eabi/8.3.1/thumb/v7e-m+fp/hard\libgcc.a(_udivmoddi4.o)
                0x6000c6e4                __udivmoddi4
 .text          0x6000c9b4        0x4 d:/programfiles/nxp/mcuxpressoide_11.1.0_3209/ide/plugins/com.nxp.mcuxpresso.tools.win32_11.1.0.201909161352/tools/bin/../lib/gcc/arm-none-eabi/8.3.1/thumb/v7e-m+fp/hard\libgcc.a(_dvmd_tls.o)
                0x6000c9b4                __aeabi_idiv0
                0x6000c9b4                __aeabi_ldiv0
 .text.malloc   0x6000c9b8       0x10 d:/programfiles/nxp/mcuxpressoide_11.1.0_3209/ide/plugins/com.nxp.mcuxpresso.tools.win32_11.1.0.201909161352/tools/bin/../lib/gcc/arm-none-eabi/8.3.1/../../../../arm-none-eabi/lib/thumb/v7e-m+fp/hard\libc.a(lib_a-malloc.o)
                0x6000c9b8                malloc
 .text.free     0x6000c9c8       0x10 d:/programfiles/nxp/mcuxpressoide_11.1.0_3209/ide/plugins/com.nxp.mcuxpresso.tools.win32_11.1.0.201909161352/tools/bin/../lib/gcc/arm-none-eabi/8.3.1/../../../../arm-none-eabi/lib/thumb/v7e-m+fp/hard\libc.a(lib_a-malloc.o)
                0x6000c9c8                free
 .text._malloc_r
                0x6000c9d8      0x570 d:/programfiles/nxp/mcuxpressoide_11.1.0_3209/ide/plugins/com.nxp.mcuxpresso.tools.win32_11.1.0.201909161352/tools/bin/../lib/gcc/arm-none-eabi/8.3.1/../../../../arm-none-eabi/lib/thumb/v7e-m+fp/hard\libc.a(lib_a-mallocr.o)
                0x6000c9d8                _malloc_r
 .text          0x6000cf48      0x134 d:/programfiles/nxp/mcuxpressoide_11.1.0_3209/ide/plugins/com.nxp.mcuxpresso.tools.win32_11.1.0.201909161352/tools/bin/../lib/gcc/arm-none-eabi/8.3.1/../../../../arm-none-eabi/lib/thumb/v7e-m+fp/hard\libc.a(lib_a-memcpy.o)
                0x6000cf48                memcpy
 .text.memset   0x6000d07c       0xa0 d:/programfiles/nxp/mcuxpressoide_11.1.0_3209/ide/plugins/com.nxp.mcuxpresso.tools.win32_11.1.0.201909161352/tools/bin/../lib/gcc/arm-none-eabi/8.3.1/../../../../arm-none-eabi/lib/thumb/v7e-m+fp/hard\libc.a(lib_a-memset.o)
                0x6000d07c                memset
 .text.__malloc_lock
                0x6000d11c        0xc d:/programfiles/nxp/mcuxpressoide_11.1.0_3209/ide/plugins/com.nxp.mcuxpresso.tools.win32_11.1.0.201909161352/tools/bin/../lib/gcc/arm-none-eabi/8.3.1/../../../../arm-none-eabi/lib/thumb/v7e-m+fp/hard\libc.a(lib_a-mlock.o)
                0x6000d11c                __malloc_lock
 .text.__malloc_unlock
                0x6000d128        0xc d:/programfiles/nxp/mcuxpressoide_11.1.0_3209/ide/plugins/com.nxp.mcuxpresso.tools.win32_11.1.0.201909161352/tools/bin/../lib/gcc/arm-none-eabi/8.3.1/../../../../arm-none-eabi/lib/thumb/v7e-m+fp/hard\libc.a(lib_a-mlock.o)
                0x6000d128                __malloc_unlock
 .text.printf   0x6000d134       0x28 d:/programfiles/nxp/mcuxpressoide_11.1.0_3209/ide/plugins/com.nxp.mcuxpresso.tools.win32_11.1.0.201909161352/tools/bin/../lib/gcc/arm-none-eabi/8.3.1/../../../../arm-none-eabi/lib/thumb/v7e-m+fp/hard\libc.a(lib_a-printf.o)
                0x6000d134                printf
 .text._sbrk_r  0x6000d15c       0x24 d:/programfiles/nxp/mcuxpressoide_11.1.0_3209/ide/plugins/com.nxp.mcuxpresso.tools.win32_11.1.0.201909161352/tools/bin/../lib/gcc/arm-none-eabi/8.3.1/../../../../arm-none-eabi/lib/thumb/v7e-m+fp/hard\libc.a(lib_a-sbrkr.o)
                0x6000d15c                _sbrk_r
 .text.__sbprintf
                0x6000d180       0x84 d:/programfiles/nxp/mcuxpressoide_11.1.0_3209/ide/plugins/com.nxp.mcuxpresso.tools.win32_11.1.0.201909161352/tools/bin/../lib/gcc/arm-none-eabi/8.3.1/../../../../arm-none-eabi/lib/thumb/v7e-m+fp/hard\libc.a(lib_a-vfprintf.o)
 .text.__swsetup_r
                0x6000d204       0xd0 d:/programfiles/nxp/mcuxpressoide_11.1.0_3209/ide/plugins/com.nxp.mcuxpresso.tools.win32_11.1.0.201909161352/tools/bin/../lib/gcc/arm-none-eabi/8.3.1/../../../../arm-none-eabi/lib/thumb/v7e-m+fp/hard\libc.a(lib_a-wsetup.o)
                0x6000d204                __swsetup_r
 .text.quorem   0x6000d2d4      0x124 d:/programfiles/nxp/mcuxpressoide_11.1.0_3209/ide/plugins/com.nxp.mcuxpresso.tools.win32_11.1.0.201909161352/tools/bin/../lib/gcc/arm-none-eabi/8.3.1/../../../../arm-none-eabi/lib/thumb/v7e-m+fp/hard\libc.a(lib_a-dtoa.o)
 .text.__sflush_r
                0x6000d3f8      0x14c d:/programfiles/nxp/mcuxpressoide_11.1.0_3209/ide/plugins/com.nxp.mcuxpresso.tools.win32_11.1.0.201909161352/tools/bin/../lib/gcc/arm-none-eabi/8.3.1/../../../../arm-none-eabi/lib/thumb/v7e-m+fp/hard\libc.a(lib_a-fflush.o)
                0x6000d3f8                __sflush_r
 .text._fflush_r
                0x6000d544       0x5c d:/programfiles/nxp/mcuxpressoide_11.1.0_3209/ide/plugins/com.nxp.mcuxpresso.tools.win32_11.1.0.201909161352/tools/bin/../lib/gcc/arm-none-eabi/8.3.1/../../../../arm-none-eabi/lib/thumb/v7e-m+fp/hard\libc.a(lib_a-fflush.o)
                0x6000d544                _fflush_r
 .text.std      0x6000d5a0       0x50 d:/programfiles/nxp/mcuxpressoide_11.1.0_3209/ide/plugins/com.nxp.mcuxpresso.tools.win32_11.1.0.201909161352/tools/bin/../lib/gcc/arm-none-eabi/8.3.1/../../../../arm-none-eabi/lib/thumb/v7e-m+fp/hard\libc.a(lib_a-findfp.o)
 .text._cleanup_r
                0x6000d5f0        0xc d:/programfiles/nxp/mcuxpressoide_11.1.0_3209/ide/plugins/com.nxp.mcuxpresso.tools.win32_11.1.0.201909161352/tools/bin/../lib/gcc/arm-none-eabi/8.3.1/../../../../arm-none-eabi/lib/thumb/v7e-m+fp/hard\libc.a(lib_a-findfp.o)
                0x6000d5f0                _cleanup_r
 .text.__sinit  0x6000d5fc       0x54 d:/programfiles/nxp/mcuxpressoide_11.1.0_3209/ide/plugins/com.nxp.mcuxpresso.tools.win32_11.1.0.201909161352/tools/bin/../lib/gcc/arm-none-eabi/8.3.1/../../../../arm-none-eabi/lib/thumb/v7e-m+fp/hard\libc.a(lib_a-findfp.o)
                0x6000d5fc                __sinit
 .text.__sfp_lock_acquire
                0x6000d650        0xc d:/programfiles/nxp/mcuxpressoide_11.1.0_3209/ide/plugins/com.nxp.mcuxpresso.tools.win32_11.1.0.201909161352/tools/bin/../lib/gcc/arm-none-eabi/8.3.1/../../../../arm-none-eabi/lib/thumb/v7e-m+fp/hard\libc.a(lib_a-findfp.o)
                0x6000d650                __sfp_lock_acquire
 .text.__sfp_lock_release
                0x6000d65c        0xc d:/programfiles/nxp/mcuxpressoide_11.1.0_3209/ide/plugins/com.nxp.mcuxpresso.tools.win32_11.1.0.201909161352/tools/bin/../lib/gcc/arm-none-eabi/8.3.1/../../../../arm-none-eabi/lib/thumb/v7e-m+fp/hard\libc.a(lib_a-findfp.o)
                0x6000d65c                __sfp_lock_release
 .text._malloc_trim_r
                0x6000d668       0xa0 d:/programfiles/nxp/mcuxpressoide_11.1.0_3209/ide/plugins/com.nxp.mcuxpresso.tools.win32_11.1.0.201909161352/tools/bin/../lib/gcc/arm-none-eabi/8.3.1/../../../../arm-none-eabi/lib/thumb/v7e-m+fp/hard\libc.a(lib_a-freer.o)
                0x6000d668                _malloc_trim_r
 .text._free_r  0x6000d708      0x1f4 d:/programfiles/nxp/mcuxpressoide_11.1.0_3209/ide/plugins/com.nxp.mcuxpresso.tools.win32_11.1.0.201909161352/tools/bin/../lib/gcc/arm-none-eabi/8.3.1/../../../../arm-none-eabi/lib/thumb/v7e-m+fp/hard\libc.a(lib_a-freer.o)
                0x6000d708                _free_r
 .text._fwalk_reent
                0x6000d8fc       0x54 d:/programfiles/nxp/mcuxpressoide_11.1.0_3209/ide/plugins/com.nxp.mcuxpresso.tools.win32_11.1.0.201909161352/tools/bin/../lib/gcc/arm-none-eabi/8.3.1/../../../../arm-none-eabi/lib/thumb/v7e-m+fp/hard\libc.a(lib_a-fwalk.o)
                0x6000d8fc                _fwalk_reent
 .text._localeconv_r
                0x6000d950        0x8 d:/programfiles/nxp/mcuxpressoide_11.1.0_3209/ide/plugins/com.nxp.mcuxpresso.tools.win32_11.1.0.201909161352/tools/bin/../lib/gcc/arm-none-eabi/8.3.1/../../../../arm-none-eabi/lib/thumb/v7e-m+fp/hard\libc.a(lib_a-localeconv.o)
                0x6000d950                _localeconv_r
 .text.__retarget_lock_init_recursive
                0x6000d958        0x4 d:/programfiles/nxp/mcuxpressoide_11.1.0_3209/ide/plugins/com.nxp.mcuxpresso.tools.win32_11.1.0.201909161352/tools/bin/../lib/gcc/arm-none-eabi/8.3.1/../../../../arm-none-eabi/lib/thumb/v7e-m+fp/hard\libc.a(lib_a-lock.o)
                0x6000d958                __retarget_lock_init_recursive
 .text.__retarget_lock_close_recursive
                0x6000d95c        0x4 d:/programfiles/nxp/mcuxpressoide_11.1.0_3209/ide/plugins/com.nxp.mcuxpresso.tools.win32_11.1.0.201909161352/tools/bin/../lib/gcc/arm-none-eabi/8.3.1/../../../../arm-none-eabi/lib/thumb/v7e-m+fp/hard\libc.a(lib_a-lock.o)
                0x6000d95c                __retarget_lock_close_recursive
 .text.__retarget_lock_acquire_recursive
                0x6000d960        0x4 d:/programfiles/nxp/mcuxpressoide_11.1.0_3209/ide/plugins/com.nxp.mcuxpresso.tools.win32_11.1.0.201909161352/tools/bin/../lib/gcc/arm-none-eabi/8.3.1/../../../../arm-none-eabi/lib/thumb/v7e-m+fp/hard\libc.a(lib_a-lock.o)
                0x6000d960                __retarget_lock_acquire_recursive
 .text.__retarget_lock_release_recursive
                0x6000d964        0x4 d:/programfiles/nxp/mcuxpressoide_11.1.0_3209/ide/plugins/com.nxp.mcuxpresso.tools.win32_11.1.0.201909161352/tools/bin/../lib/gcc/arm-none-eabi/8.3.1/../../../../arm-none-eabi/lib/thumb/v7e-m+fp/hard\libc.a(lib_a-lock.o)
                0x6000d964                __retarget_lock_release_recursive
 .text.__swhatbuf_r
                0x6000d968       0x5c d:/programfiles/nxp/mcuxpressoide_11.1.0_3209/ide/plugins/com.nxp.mcuxpresso.tools.win32_11.1.0.201909161352/tools/bin/../lib/gcc/arm-none-eabi/8.3.1/../../../../arm-none-eabi/lib/thumb/v7e-m+fp/hard\libc.a(lib_a-makebuf.o)
                0x6000d968                __swhatbuf_r
 .text.__smakebuf_r
                0x6000d9c4       0x94 d:/programfiles/nxp/mcuxpressoide_11.1.0_3209/ide/plugins/com.nxp.mcuxpresso.tools.win32_11.1.0.201909161352/tools/bin/../lib/gcc/arm-none-eabi/8.3.1/../../../../arm-none-eabi/lib/thumb/v7e-m+fp/hard\libc.a(lib_a-makebuf.o)
                0x6000d9c4                __smakebuf_r
 .text._Balloc  0x6000da58       0x4c d:/programfiles/nxp/mcuxpressoide_11.1.0_3209/ide/plugins/com.nxp.mcuxpresso.tools.win32_11.1.0.201909161352/tools/bin/../lib/gcc/arm-none-eabi/8.3.1/../../../../arm-none-eabi/lib/thumb/v7e-m+fp/hard\libc.a(lib_a-mprec.o)
                0x6000da58                _Balloc
 .text._Bfree   0x6000daa4       0x14 d:/programfiles/nxp/mcuxpressoide_11.1.0_3209/ide/plugins/com.nxp.mcuxpresso.tools.win32_11.1.0.201909161352/tools/bin/../lib/gcc/arm-none-eabi/8.3.1/../../../../arm-none-eabi/lib/thumb/v7e-m+fp/hard\libc.a(lib_a-mprec.o)
                0x6000daa4                _Bfree
 .text.__multadd
                0x6000dab8       0x8c d:/programfiles/nxp/mcuxpressoide_11.1.0_3209/ide/plugins/com.nxp.mcuxpresso.tools.win32_11.1.0.201909161352/tools/bin/../lib/gcc/arm-none-eabi/8.3.1/../../../../arm-none-eabi/lib/thumb/v7e-m+fp/hard\libc.a(lib_a-mprec.o)
                0x6000dab8                __multadd
 .text.__hi0bits
                0x6000db44       0x40 d:/programfiles/nxp/mcuxpressoide_11.1.0_3209/ide/plugins/com.nxp.mcuxpresso.tools.win32_11.1.0.201909161352/tools/bin/../lib/gcc/arm-none-eabi/8.3.1/../../../../arm-none-eabi/lib/thumb/v7e-m+fp/hard\libc.a(lib_a-mprec.o)
                0x6000db44                __hi0bits
 .text.__lo0bits
                0x6000db84       0x60 d:/programfiles/nxp/mcuxpressoide_11.1.0_3209/ide/plugins/com.nxp.mcuxpresso.tools.win32_11.1.0.201909161352/tools/bin/../lib/gcc/arm-none-eabi/8.3.1/../../../../arm-none-eabi/lib/thumb/v7e-m+fp/hard\libc.a(lib_a-mprec.o)
                0x6000db84                __lo0bits
 .text.__i2b    0x6000dbe4       0x14 d:/programfiles/nxp/mcuxpressoide_11.1.0_3209/ide/plugins/com.nxp.mcuxpresso.tools.win32_11.1.0.201909161352/tools/bin/../lib/gcc/arm-none-eabi/8.3.1/../../../../arm-none-eabi/lib/thumb/v7e-m+fp/hard\libc.a(lib_a-mprec.o)
                0x6000dbe4                __i2b
 .text.__multiply
                0x6000dbf8      0x130 d:/programfiles/nxp/mcuxpressoide_11.1.0_3209/ide/plugins/com.nxp.mcuxpresso.tools.win32_11.1.0.201909161352/tools/bin/../lib/gcc/arm-none-eabi/8.3.1/../../../../arm-none-eabi/lib/thumb/v7e-m+fp/hard\libc.a(lib_a-mprec.o)
                0x6000dbf8                __multiply
 .text.__pow5mult
                0x6000dd28       0xa0 d:/programfiles/nxp/mcuxpressoide_11.1.0_3209/ide/plugins/com.nxp.mcuxpresso.tools.win32_11.1.0.201909161352/tools/bin/../lib/gcc/arm-none-eabi/8.3.1/../../../../arm-none-eabi/lib/thumb/v7e-m+fp/hard\libc.a(lib_a-mprec.o)
                0x6000dd28                __pow5mult
 .text.__lshift
                0x6000ddc8       0xb4 d:/programfiles/nxp/mcuxpressoide_11.1.0_3209/ide/plugins/com.nxp.mcuxpresso.tools.win32_11.1.0.201909161352/tools/bin/../lib/gcc/arm-none-eabi/8.3.1/../../../../arm-none-eabi/lib/thumb/v7e-m+fp/hard\libc.a(lib_a-mprec.o)
                0x6000ddc8                __lshift
 .text.__mcmp   0x6000de7c       0x38 d:/programfiles/nxp/mcuxpressoide_11.1.0_3209/ide/plugins/com.nxp.mcuxpresso.tools.win32_11.1.0.201909161352/tools/bin/../lib/gcc/arm-none-eabi/8.3.1/../../../../arm-none-eabi/lib/thumb/v7e-m+fp/hard\libc.a(lib_a-mprec.o)
                0x6000de7c                __mcmp
 .text.__mdiff  0x6000deb4       0xf8 d:/programfiles/nxp/mcuxpressoide_11.1.0_3209/ide/plugins/com.nxp.mcuxpresso.tools.win32_11.1.0.201909161352/tools/bin/../lib/gcc/arm-none-eabi/8.3.1/../../../../arm-none-eabi/lib/thumb/v7e-m+fp/hard\libc.a(lib_a-mprec.o)
                0x6000deb4                __mdiff
 .text.__d2b    0x6000dfac       0xc0 d:/programfiles/nxp/mcuxpressoide_11.1.0_3209/ide/plugins/com.nxp.mcuxpresso.tools.win32_11.1.0.201909161352/tools/bin/../lib/gcc/arm-none-eabi/8.3.1/../../../../arm-none-eabi/lib/thumb/v7e-m+fp/hard\libc.a(lib_a-mprec.o)
                0x6000dfac                __d2b
 .text.frexp    0x6000e06c       0x6c d:/programfiles/nxp/mcuxpressoide_11.1.0_3209/ide/plugins/com.nxp.mcuxpresso.tools.win32_11.1.0.201909161352/tools/bin/../lib/gcc/arm-none-eabi/8.3.1/../../../../arm-none-eabi/lib/thumb/v7e-m+fp/hard\libc.a(lib_a-s_frexp.o)
                0x6000e06c                frexp
 .text.__sread  0x6000e0d8       0x24 d:/programfiles/nxp/mcuxpressoide_11.1.0_3209/ide/plugins/com.nxp.mcuxpresso.tools.win32_11.1.0.201909161352/tools/bin/../lib/gcc/arm-none-eabi/8.3.1/../../../../arm-none-eabi/lib/thumb/v7e-m+fp/hard\libc.a(lib_a-stdio.o)
                0x6000e0d8                __sread
 .text.__swrite
                0x6000e0fc       0x40 d:/programfiles/nxp/mcuxpressoide_11.1.0_3209/ide/plugins/com.nxp.mcuxpresso.tools.win32_11.1.0.201909161352/tools/bin/../lib/gcc/arm-none-eabi/8.3.1/../../../../arm-none-eabi/lib/thumb/v7e-m+fp/hard\libc.a(lib_a-stdio.o)
                0x6000e0fc                __swrite
 .text.__sseek  0x6000e13c       0x20 d:/programfiles/nxp/mcuxpressoide_11.1.0_3209/ide/plugins/com.nxp.mcuxpresso.tools.win32_11.1.0.201909161352/tools/bin/../lib/gcc/arm-none-eabi/8.3.1/../../../../arm-none-eabi/lib/thumb/v7e-m+fp/hard\libc.a(lib_a-stdio.o)
                0x6000e13c                __sseek
 .text.__sclose
                0x6000e15c        0x8 d:/programfiles/nxp/mcuxpressoide_11.1.0_3209/ide/plugins/com.nxp.mcuxpresso.tools.win32_11.1.0.201909161352/tools/bin/../lib/gcc/arm-none-eabi/8.3.1/../../../../arm-none-eabi/lib/thumb/v7e-m+fp/hard\libc.a(lib_a-stdio.o)
                0x6000e15c                __sclose
 .text.strncpy  0x6000e164       0x74 d:/programfiles/nxp/mcuxpressoide_11.1.0_3209/ide/plugins/com.nxp.mcuxpresso.tools.win32_11.1.0.201909161352/tools/bin/../lib/gcc/arm-none-eabi/8.3.1/../../../../arm-none-eabi/lib/thumb/v7e-m+fp/hard\libc.a(lib_a-strncpy.o)
                0x6000e164                strncpy
 .text.__sprint_r.part.0
                0x6000e1d8       0x78 d:/programfiles/nxp/mcuxpressoide_11.1.0_3209/ide/plugins/com.nxp.mcuxpresso.tools.win32_11.1.0.201909161352/tools/bin/../lib/gcc/arm-none-eabi/8.3.1/../../../../arm-none-eabi/lib/thumb/v7e-m+fp/hard\libc.a(lib_a-vfiprintf.o)
 .text.__sprint_r
                0x6000e250       0x14 d:/programfiles/nxp/mcuxpressoide_11.1.0_3209/ide/plugins/com.nxp.mcuxpresso.tools.win32_11.1.0.201909161352/tools/bin/../lib/gcc/arm-none-eabi/8.3.1/../../../../arm-none-eabi/lib/thumb/v7e-m+fp/hard\libc.a(lib_a-vfiprintf.o)
                0x6000e250                __sprint_r
 .text._write_r
                0x6000e264       0x2c d:/programfiles/nxp/mcuxpressoide_11.1.0_3209/ide/plugins/com.nxp.mcuxpresso.tools.win32_11.1.0.201909161352/tools/bin/../lib/gcc/arm-none-eabi/8.3.1/../../../../arm-none-eabi/lib/thumb/v7e-m+fp/hard\libc.a(lib_a-writer.o)
                0x6000e264                _write_r
 .text._calloc_r
                0x6000e290       0x60 d:/programfiles/nxp/mcuxpressoide_11.1.0_3209/ide/plugins/com.nxp.mcuxpresso.tools.win32_11.1.0.201909161352/tools/bin/../lib/gcc/arm-none-eabi/8.3.1/../../../../arm-none-eabi/lib/thumb/v7e-m+fp/hard\libc.a(lib_a-callocr.o)
                0x6000e290                _calloc_r
 .text._close_r
                0x6000e2f0       0x24 d:/programfiles/nxp/mcuxpressoide_11.1.0_3209/ide/plugins/com.nxp.mcuxpresso.tools.win32_11.1.0.201909161352/tools/bin/../lib/gcc/arm-none-eabi/8.3.1/../../../../arm-none-eabi/lib/thumb/v7e-m+fp/hard\libc.a(lib_a-closer.o)
                0x6000e2f0                _close_r
 .text._fclose_r
                0x6000e314       0xd0 d:/programfiles/nxp/mcuxpressoide_11.1.0_3209/ide/plugins/com.nxp.mcuxpresso.tools.win32_11.1.0.201909161352/tools/bin/../lib/gcc/arm-none-eabi/8.3.1/../../../../arm-none-eabi/lib/thumb/v7e-m+fp/hard\libc.a(lib_a-fclose.o)
                0x6000e314                _fclose_r
 .text.__fputwc
                0x6000e3e4       0xa8 d:/programfiles/nxp/mcuxpressoide_11.1.0_3209/ide/plugins/com.nxp.mcuxpresso.tools.win32_11.1.0.201909161352/tools/bin/../lib/gcc/arm-none-eabi/8.3.1/../../../../arm-none-eabi/lib/thumb/v7e-m+fp/hard\libc.a(lib_a-fputwc.o)
                0x6000e3e4                __fputwc
 .text._fputwc_r
                0x6000e48c       0x64 d:/programfiles/nxp/mcuxpressoide_11.1.0_3209/ide/plugins/com.nxp.mcuxpresso.tools.win32_11.1.0.201909161352/tools/bin/../lib/gcc/arm-none-eabi/8.3.1/../../../../arm-none-eabi/lib/thumb/v7e-m+fp/hard\libc.a(lib_a-fputwc.o)
                0x6000e48c                _fputwc_r
 .text._fstat_r
                0x6000e4f0       0x28 d:/programfiles/nxp/mcuxpressoide_11.1.0_3209/ide/plugins/com.nxp.mcuxpresso.tools.win32_11.1.0.201909161352/tools/bin/../lib/gcc/arm-none-eabi/8.3.1/../../../../arm-none-eabi/lib/thumb/v7e-m+fp/hard\libc.a(lib_a-fstatr.o)
                0x6000e4f0                _fstat_r
 .text.__sfvwrite_r
                0x6000e518      0x308 d:/programfiles/nxp/mcuxpressoide_11.1.0_3209/ide/plugins/com.nxp.mcuxpresso.tools.win32_11.1.0.201909161352/tools/bin/../lib/gcc/arm-none-eabi/8.3.1/../../../../arm-none-eabi/lib/thumb/v7e-m+fp/hard\libc.a(lib_a-fvwrite.o)
                0x6000e518                __sfvwrite_r
 .text._isatty_r
                0x6000e820       0x24 d:/programfiles/nxp/mcuxpressoide_11.1.0_3209/ide/plugins/com.nxp.mcuxpresso.tools.win32_11.1.0.201909161352/tools/bin/../lib/gcc/arm-none-eabi/8.3.1/../../../../arm-none-eabi/lib/thumb/v7e-m+fp/hard\libc.a(lib_a-isattyr.o)
                0x6000e820                _isatty_r
 .text.__locale_mb_cur_max
                0x6000e844        0xc d:/programfiles/nxp/mcuxpressoide_11.1.0_3209/ide/plugins/com.nxp.mcuxpresso.tools.win32_11.1.0.201909161352/tools/bin/../lib/gcc/arm-none-eabi/8.3.1/../../../../arm-none-eabi/lib/thumb/v7e-m+fp/hard\libc.a(lib_a-locale.o)
                0x6000e844                __locale_mb_cur_max
 .text._lseek_r
                0x6000e850       0x2c d:/programfiles/nxp/mcuxpressoide_11.1.0_3209/ide/plugins/com.nxp.mcuxpresso.tools.win32_11.1.0.201909161352/tools/bin/../lib/gcc/arm-none-eabi/8.3.1/../../../../arm-none-eabi/lib/thumb/v7e-m+fp/hard\libc.a(lib_a-lseekr.o)
                0x6000e850                _lseek_r
 .text.__ascii_mbtowc
                0x6000e87c       0x2c d:/programfiles/nxp/mcuxpressoide_11.1.0_3209/ide/plugins/com.nxp.mcuxpresso.tools.win32_11.1.0.201909161352/tools/bin/../lib/gcc/arm-none-eabi/8.3.1/../../../../arm-none-eabi/lib/thumb/v7e-m+fp/hard\libc.a(lib_a-mbtowc_r.o)
                0x6000e87c                __ascii_mbtowc
 .text.memmove  0x6000e8a8       0xd0 d:/programfiles/nxp/mcuxpressoide_11.1.0_3209/ide/plugins/com.nxp.mcuxpresso.tools.win32_11.1.0.201909161352/tools/bin/../lib/gcc/arm-none-eabi/8.3.1/../../../../arm-none-eabi/lib/thumb/v7e-m+fp/hard\libc.a(lib_a-memmove.o)
                0x6000e8a8                memmove
 .text._read_r  0x6000e978       0x2c d:/programfiles/nxp/mcuxpressoide_11.1.0_3209/ide/plugins/com.nxp.mcuxpresso.tools.win32_11.1.0.201909161352/tools/bin/../lib/gcc/arm-none-eabi/8.3.1/../../../../arm-none-eabi/lib/thumb/v7e-m+fp/hard\libc.a(lib_a-readr.o)
                0x6000e978                _read_r
 .text._realloc_r
                0x6000e9a4      0x36c d:/programfiles/nxp/mcuxpressoide_11.1.0_3209/ide/plugins/com.nxp.mcuxpresso.tools.win32_11.1.0.201909161352/tools/bin/../lib/gcc/arm-none-eabi/8.3.1/../../../../arm-none-eabi/lib/thumb/v7e-m+fp/hard\libc.a(lib_a-reallocr.o)
                0x6000e9a4                _realloc_r
 .text.__swbuf_r
                0x6000ed10       0xb0 d:/programfiles/nxp/mcuxpressoide_11.1.0_3209/ide/plugins/com.nxp.mcuxpresso.tools.win32_11.1.0.201909161352/tools/bin/../lib/gcc/arm-none-eabi/8.3.1/../../../../arm-none-eabi/lib/thumb/v7e-m+fp/hard\libc.a(lib_a-wbuf.o)
                0x6000ed10                __swbuf_r
 .text._wcrtomb_r
                0x6000edc0       0x34 d:/programfiles/nxp/mcuxpressoide_11.1.0_3209/ide/plugins/com.nxp.mcuxpresso.tools.win32_11.1.0.201909161352/tools/bin/../lib/gcc/arm-none-eabi/8.3.1/../../../../arm-none-eabi/lib/thumb/v7e-m+fp/hard\libc.a(lib_a-wcrtomb.o)
                0x6000edc0                _wcrtomb_r
 .text.__ascii_wctomb
                0x6000edf4       0x1c d:/programfiles/nxp/mcuxpressoide_11.1.0_3209/ide/plugins/com.nxp.mcuxpresso.tools.win32_11.1.0.201909161352/tools/bin/../lib/gcc/arm-none-eabi/8.3.1/../../../../arm-none-eabi/lib/thumb/v7e-m+fp/hard\libc.a(lib_a-wctomb_r.o)
                0x6000edf4                __ascii_wctomb
 .text._ZNSaIcEC2Ev
                0x6000ee10        0x4 d:/programfiles/nxp/mcuxpressoide_11.1.0_3209/ide/plugins/com.nxp.mcuxpresso.tools.win32_11.1.0.201909161352/tools/bin/../lib/gcc/arm-none-eabi/8.3.1/../../../../arm-none-eabi/lib/thumb/v7e-m+fp/hard\libstdc++.a(allocator-inst.o)
                0x6000ee10                std::allocator<char>::allocator()
                0x6000ee10                std::allocator<char>::allocator()
 .text._ZNSaIcED2Ev
                0x6000ee14        0x4 d:/programfiles/nxp/mcuxpressoide_11.1.0_3209/ide/plugins/com.nxp.mcuxpresso.tools.win32_11.1.0.201909161352/tools/bin/../lib/gcc/arm-none-eabi/8.3.1/../../../../arm-none-eabi/lib/thumb/v7e-m+fp/hard\libstdc++.a(allocator-inst.o)
                0x6000ee14                std::allocator<char>::~allocator()
                0x6000ee14                std::allocator<char>::~allocator()
 .text._ZNSt7__cxx1112basic_stringIcSt11char_traitsIcESaIcEE9_M_createERjj
                0x6000ee18       0x48 d:/programfiles/nxp/mcuxpressoide_11.1.0_3209/ide/plugins/com.nxp.mcuxpresso.tools.win32_11.1.0.201909161352/tools/bin/../lib/gcc/arm-none-eabi/8.3.1/../../../../arm-none-eabi/lib/thumb/v7e-m+fp/hard\libstdc++.a(string-inst.o)
                0x6000ee18                std::__cxx11::basic_string<char, std::char_traits<char>, std::allocator<char> >::_M_create(unsigned int&, unsigned int)
 .text._ZNSt7__cxx1112basic_stringIcSt11char_traitsIcESaIcEE9_M_assignERKS4_
                0x6000ee60       0x6c d:/programfiles/nxp/mcuxpressoide_11.1.0_3209/ide/plugins/com.nxp.mcuxpresso.tools.win32_11.1.0.201909161352/tools/bin/../lib/gcc/arm-none-eabi/8.3.1/../../../../arm-none-eabi/lib/thumb/v7e-m+fp/hard\libstdc++.a(string-inst.o)
                0x6000ee60                std::__cxx11::basic_string<char, std::char_traits<char>, std::allocator<char> >::_M_assign(std::__cxx11::basic_string<char, std::char_traits<char>, std::allocator<char> > const&)
 .text._ZNSt7__cxx1112basic_stringIcSt11char_traitsIcESaIcEEC2Ev
                0x6000eecc       0x10 d:/programfiles/nxp/mcuxpressoide_11.1.0_3209/ide/plugins/com.nxp.mcuxpresso.tools.win32_11.1.0.201909161352/tools/bin/../lib/gcc/arm-none-eabi/8.3.1/../../../../arm-none-eabi/lib/thumb/v7e-m+fp/hard\libstdc++.a(string-inst.o)
                0x6000eecc                std::__cxx11::basic_string<char, std::char_traits<char>, std::allocator<char> >::basic_string()
                0x6000eecc                std::__cxx11::basic_string<char, std::char_traits<char>, std::allocator<char> >::basic_string()
 .text._ZNSt7__cxx1112basic_stringIcSt11char_traitsIcESaIcEED2Ev
                0x6000eedc       0x18 d:/programfiles/nxp/mcuxpressoide_11.1.0_3209/ide/plugins/com.nxp.mcuxpresso.tools.win32_11.1.0.201909161352/tools/bin/../lib/gcc/arm-none-eabi/8.3.1/../../../../arm-none-eabi/lib/thumb/v7e-m+fp/hard\libstdc++.a(string-inst.o)
                0x6000eedc                std::__cxx11::basic_string<char, std::char_traits<char>, std::allocator<char> >::~basic_string()
                0x6000eedc                std::__cxx11::basic_string<char, std::char_traits<char>, std::allocator<char> >::~basic_string()
 .text._ZNSt7__cxx1112basic_stringIcSt11char_traitsIcESaIcEEaSERKS4_
                0x6000eef4        0xc d:/programfiles/nxp/mcuxpressoide_11.1.0_3209/ide/plugins/com.nxp.mcuxpresso.tools.win32_11.1.0.201909161352/tools/bin/../lib/gcc/arm-none-eabi/8.3.1/../../../../arm-none-eabi/lib/thumb/v7e-m+fp/hard\libstdc++.a(string-inst.o)
                0x6000eef4                std::__cxx11::basic_string<char, std::char_traits<char>, std::allocator<char> >::operator=(std::__cxx11::basic_string<char, std::char_traits<char>, std::allocator<char> > const&)
 .text._ZNKSt7__cxx1112basic_stringIcSt11char_traitsIcESaIcEE5c_strEv
                0x6000ef00        0x4 d:/programfiles/nxp/mcuxpressoide_11.1.0_3209/ide/plugins/com.nxp.mcuxpresso.tools.win32_11.1.0.201909161352/tools/bin/../lib/gcc/arm-none-eabi/8.3.1/../../../../arm-none-eabi/lib/thumb/v7e-m+fp/hard\libstdc++.a(string-inst.o)
                0x6000ef00                std::__cxx11::basic_string<char, std::char_traits<char>, std::allocator<char> >::c_str() const
 .text._ZNSt7__cxx1112basic_stringIcSt11char_traitsIcESaIcEE12_M_constructIPcEEvT_S7_St20forward_iterator_tag
                0x6000ef04       0x70 d:/programfiles/nxp/mcuxpressoide_11.1.0_3209/ide/plugins/com.nxp.mcuxpresso.tools.win32_11.1.0.201909161352/tools/bin/../lib/gcc/arm-none-eabi/8.3.1/../../../../arm-none-eabi/lib/thumb/v7e-m+fp/hard\libstdc++.a(string-inst.o)
                0x6000ef04                void std::__cxx11::basic_string<char, std::char_traits<char>, std::allocator<char> >::_M_construct<char*>(char*, char*, std::forward_iterator_tag)
 .text._ZNSt7__cxx1112basic_stringIcSt11char_traitsIcESaIcEEC2ERKS4_
                0x6000ef74       0x20 d:/programfiles/nxp/mcuxpressoide_11.1.0_3209/ide/plugins/com.nxp.mcuxpresso.tools.win32_11.1.0.201909161352/tools/bin/../lib/gcc/arm-none-eabi/8.3.1/../../../../arm-none-eabi/lib/thumb/v7e-m+fp/hard\libstdc++.a(string-inst.o)
                0x6000ef74                std::__cxx11::basic_string<char, std::char_traits<char>, std::allocator<char> >::basic_string(std::__cxx11::basic_string<char, std::char_traits<char>, std::allocator<char> > const&)
                0x6000ef74                std::__cxx11::basic_string<char, std::char_traits<char>, std::allocator<char> >::basic_string(std::__cxx11::basic_string<char, std::char_traits<char>, std::allocator<char> > const&)
 .text._ZNSt7__cxx1112basic_stringIcSt11char_traitsIcESaIcEE12_M_constructIPKcEEvT_S8_St20forward_iterator_tag
                0x6000ef94       0x70 d:/programfiles/nxp/mcuxpressoide_11.1.0_3209/ide/plugins/com.nxp.mcuxpresso.tools.win32_11.1.0.201909161352/tools/bin/../lib/gcc/arm-none-eabi/8.3.1/../../../../arm-none-eabi/lib/thumb/v7e-m+fp/hard\libstdc++.a(string-inst.o)
                0x6000ef94                void std::__cxx11::basic_string<char, std::char_traits<char>, std::allocator<char> >::_M_construct<char const*>(char const*, char const*, std::forward_iterator_tag)
 .text._ZNSt7__cxx1112basic_stringIcSt11char_traitsIcESaIcEEC2EPKcRKS3_
                0x6000f004       0x3c d:/programfiles/nxp/mcuxpressoide_11.1.0_3209/ide/plugins/com.nxp.mcuxpresso.tools.win32_11.1.0.201909161352/tools/bin/../lib/gcc/arm-none-eabi/8.3.1/../../../../arm-none-eabi/lib/thumb/v7e-m+fp/hard\libstdc++.a(string-inst.o)
                0x6000f004                std::__cxx11::basic_string<char, std::char_traits<char>, std::allocator<char> >::basic_string(char const*, std::allocator<char> const&)
                0x6000f004                std::__cxx11::basic_string<char, std::char_traits<char>, std::allocator<char> >::basic_string(char const*, std::allocator<char> const&)
 .text._ZSt19__throw_logic_errorPKc
                0x6000f040       0x30 d:/programfiles/nxp/mcuxpressoide_11.1.0_3209/ide/plugins/com.nxp.mcuxpresso.tools.win32_11.1.0.201909161352/tools/bin/../lib/gcc/arm-none-eabi/8.3.1/../../../../arm-none-eabi/lib/thumb/v7e-m+fp/hard\libstdc++.a(functexcept.o)
                0x6000f040                std::__throw_logic_error(char const*)
 .text._ZSt20__throw_length_errorPKc
                0x6000f070       0x30 d:/programfiles/nxp/mcuxpressoide_11.1.0_3209/ide/plugins/com.nxp.mcuxpresso.tools.win32_11.1.0.201909161352/tools/bin/../lib/gcc/arm-none-eabi/8.3.1/../../../../arm-none-eabi/lib/thumb/v7e-m+fp/hard\libstdc++.a(functexcept.o)
                0x6000f070                std::__throw_length_error(char const*)
 .text._ZNSt9exceptionD2Ev
                0x6000f0a0        0x4 d:/programfiles/nxp/mcuxpressoide_11.1.0_3209/ide/plugins/com.nxp.mcuxpresso.tools.win32_11.1.0.201909161352/tools/bin/../lib/gcc/arm-none-eabi/8.3.1/../../../../arm-none-eabi/lib/thumb/v7e-m+fp/hard\libstdc++.a(eh_exception.o)
                0x6000f0a0                std::exception::~exception()
                0x6000f0a0                std::exception::~exception()
 .text._ZNSt13bad_exceptionD2Ev
                0x6000f0a4        0x4 d:/programfiles/nxp/mcuxpressoide_11.1.0_3209/ide/plugins/com.nxp.mcuxpresso.tools.win32_11.1.0.201909161352/tools/bin/../lib/gcc/arm-none-eabi/8.3.1/../../../../arm-none-eabi/lib/thumb/v7e-m+fp/hard\libstdc++.a(eh_exception.o)
                0x6000f0a4                std::bad_exception::~bad_exception()
                0x6000f0a4                std::bad_exception::~bad_exception()
 .text._ZNKSt13bad_exception4whatEv
                0x6000f0a8        0x8 d:/programfiles/nxp/mcuxpressoide_11.1.0_3209/ide/plugins/com.nxp.mcuxpresso.tools.win32_11.1.0.201909161352/tools/bin/../lib/gcc/arm-none-eabi/8.3.1/../../../../arm-none-eabi/lib/thumb/v7e-m+fp/hard\libstdc++.a(eh_exception.o)
                0x6000f0a8                std::bad_exception::what() const
                0x6000f0a8                transaction clone for std::bad_exception::what() const
 .text._ZNSt13bad_exceptionD0Ev
                0x6000f0b0       0x10 d:/programfiles/nxp/mcuxpressoide_11.1.0_3209/ide/plugins/com.nxp.mcuxpresso.tools.win32_11.1.0.201909161352/tools/bin/../lib/gcc/arm-none-eabi/8.3.1/../../../../arm-none-eabi/lib/thumb/v7e-m+fp/hard\libstdc++.a(eh_exception.o)
                0x6000f0b0                std::bad_exception::~bad_exception()
 .text._ZL28read_encoded_value_with_basehjPKhPj
                0x6000f0c0       0xcc d:/programfiles/nxp/mcuxpressoide_11.1.0_3209/ide/plugins/com.nxp.mcuxpresso.tools.win32_11.1.0.201909161352/tools/bin/../lib/gcc/arm-none-eabi/8.3.1/../../../../arm-none-eabi/lib/thumb/v7e-m+fp/hard\libstdc++.a(eh_personality.o)
 .text._ZL21base_of_encoded_valuehP15_Unwind_Context
                0x6000f18c       0x3c d:/programfiles/nxp/mcuxpressoide_11.1.0_3209/ide/plugins/com.nxp.mcuxpresso.tools.win32_11.1.0.201909161352/tools/bin/../lib/gcc/arm-none-eabi/8.3.1/../../../../arm-none-eabi/lib/thumb/v7e-m+fp/hard\libstdc++.a(eh_personality.o)
 .text._ZL17parse_lsda_headerP15_Unwind_ContextPKhP16lsda_header_info
                0x6000f1c8       0x94 d:/programfiles/nxp/mcuxpressoide_11.1.0_3209/ide/plugins/com.nxp.mcuxpresso.tools.win32_11.1.0.201909161352/tools/bin/../lib/gcc/arm-none-eabi/8.3.1/../../../../arm-none-eabi/lib/thumb/v7e-m+fp/hard\libstdc++.a(eh_personality.o)
 .text.__gxx_personality_v0
                0x6000f25c      0x478 d:/programfiles/nxp/mcuxpressoide_11.1.0_3209/ide/plugins/com.nxp.mcuxpresso.tools.win32_11.1.0.201909161352/tools/bin/../lib/gcc/arm-none-eabi/8.3.1/../../../../arm-none-eabi/lib/thumb/v7e-m+fp/hard\libstdc++.a(eh_personality.o)
                0x6000f25c                __gxx_personality_v0
 .text._ZN12_GLOBAL__N_14pool4freeEPv.constprop.4
                0x6000f6d4       0x8c d:/programfiles/nxp/mcuxpressoide_11.1.0_3209/ide/plugins/com.nxp.mcuxpresso.tools.win32_11.1.0.201909161352/tools/bin/../lib/gcc/arm-none-eabi/8.3.1/../../../../arm-none-eabi/lib/thumb/v7e-m+fp/hard\libstdc++.a(eh_alloc.o)
 .text._ZN12_GLOBAL__N_14pool8allocateEj.constprop.5
                0x6000f760       0x64 d:/programfiles/nxp/mcuxpressoide_11.1.0_3209/ide/plugins/com.nxp.mcuxpresso.tools.win32_11.1.0.201909161352/tools/bin/../lib/gcc/arm-none-eabi/8.3.1/../../../../arm-none-eabi/lib/thumb/v7e-m+fp/hard\libstdc++.a(eh_alloc.o)
 .text.__cxa_allocate_exception
                0x6000f7c4       0x30 d:/programfiles/nxp/mcuxpressoide_11.1.0_3209/ide/plugins/com.nxp.mcuxpresso.tools.win32_11.1.0.201909161352/tools/bin/../lib/gcc/arm-none-eabi/8.3.1/../../../../arm-none-eabi/lib/thumb/v7e-m+fp/hard\libstdc++.a(eh_alloc.o)
                0x6000f7c4                __cxa_allocate_exception
 .text.__cxa_free_exception
                0x6000f7f4       0x20 d:/programfiles/nxp/mcuxpressoide_11.1.0_3209/ide/plugins/com.nxp.mcuxpresso.tools.win32_11.1.0.201909161352/tools/bin/../lib/gcc/arm-none-eabi/8.3.1/../../../../arm-none-eabi/lib/thumb/v7e-m+fp/hard\libstdc++.a(eh_alloc.o)
                0x6000f7f4                __cxa_free_exception
 .text.startup._GLOBAL__sub_I__ZN9__gnu_cxx9__freeresEv
                0x6000f814       0x28 d:/programfiles/nxp/mcuxpressoide_11.1.0_3209/ide/plugins/com.nxp.mcuxpresso.tools.win32_11.1.0.201909161352/tools/bin/../lib/gcc/arm-none-eabi/8.3.1/../../../../arm-none-eabi/lib/thumb/v7e-m+fp/hard\libstdc++.a(eh_alloc.o)
 .text._ZN10__cxxabiv1L24__is_gxx_exception_classEPc
                0x6000f83c       0x3c d:/programfiles/nxp/mcuxpressoide_11.1.0_3209/ide/plugins/com.nxp.mcuxpresso.tools.win32_11.1.0.201909161352/tools/bin/../lib/gcc/arm-none-eabi/8.3.1/../../../../arm-none-eabi/lib/thumb/v7e-m+fp/hard\libstdc++.a(eh_call.o)
 .text.__cxa_call_terminate
                0x6000f878       0x20 d:/programfiles/nxp/mcuxpressoide_11.1.0_3209/ide/plugins/com.nxp.mcuxpresso.tools.win32_11.1.0.201909161352/tools/bin/../lib/gcc/arm-none-eabi/8.3.1/../../../../arm-none-eabi/lib/thumb/v7e-m+fp/hard\libstdc++.a(eh_call.o)
                0x6000f878                __cxa_call_terminate
 .text.unlikely.__cxa_call_unexpected
                0x6000f898       0xd8 d:/programfiles/nxp/mcuxpressoide_11.1.0_3209/ide/plugins/com.nxp.mcuxpresso.tools.win32_11.1.0.201909161352/tools/bin/../lib/gcc/arm-none-eabi/8.3.1/../../../../arm-none-eabi/lib/thumb/v7e-m+fp/hard\libstdc++.a(eh_call.o)
                0x6000f898                __cxa_call_unexpected
 .text.__cxa_begin_catch
                0x6000f970       0x7c d:/programfiles/nxp/mcuxpressoide_11.1.0_3209/ide/plugins/com.nxp.mcuxpresso.tools.win32_11.1.0.201909161352/tools/bin/../lib/gcc/arm-none-eabi/8.3.1/../../../../arm-none-eabi/lib/thumb/v7e-m+fp/hard\libstdc++.a(eh_catch.o)
                0x6000f970                __cxa_begin_catch
 .text.__cxa_end_catch
                0x6000f9ec       0x88 d:/programfiles/nxp/mcuxpressoide_11.1.0_3209/ide/plugins/com.nxp.mcuxpresso.tools.win32_11.1.0.201909161352/tools/bin/../lib/gcc/arm-none-eabi/8.3.1/../../../../arm-none-eabi/lib/thumb/v7e-m+fp/hard\libstdc++.a(eh_catch.o)
                0x6000f9ec                __cxa_end_catch
 .text.__cxa_get_globals_fast
                0x6000fa74        0x8 d:/programfiles/nxp/mcuxpressoide_11.1.0_3209/ide/plugins/com.nxp.mcuxpresso.tools.win32_11.1.0.201909161352/tools/bin/../lib/gcc/arm-none-eabi/8.3.1/../../../../arm-none-eabi/lib/thumb/v7e-m+fp/hard\libstdc++.a(eh_globals.o)
                0x6000fa74                __cxa_get_globals_fast
 .text.__cxa_get_globals
                0x6000fa7c        0x8 d:/programfiles/nxp/mcuxpressoide_11.1.0_3209/ide/plugins/com.nxp.mcuxpresso.tools.win32_11.1.0.201909161352/tools/bin/../lib/gcc/arm-none-eabi/8.3.1/../../../../arm-none-eabi/lib/thumb/v7e-m+fp/hard\libstdc++.a(eh_globals.o)
                0x6000fa7c                __cxa_get_globals
 .text._ZN10__cxxabiv111__terminateEPFvvE
                0x6000fa84       0x28 d:/programfiles/nxp/mcuxpressoide_11.1.0_3209/ide/plugins/com.nxp.mcuxpresso.tools.win32_11.1.0.201909161352/tools/bin/../lib/gcc/arm-none-eabi/8.3.1/../../../../arm-none-eabi/lib/thumb/v7e-m+fp/hard\libstdc++.a(eh_terminate.o)
                0x6000fa84                __cxxabiv1::__terminate(void (*)())
 .text._ZSt9terminatev
                0x6000faac       0x14 d:/programfiles/nxp/mcuxpressoide_11.1.0_3209/ide/plugins/com.nxp.mcuxpresso.tools.win32_11.1.0.201909161352/tools/bin/../lib/gcc/arm-none-eabi/8.3.1/../../../../arm-none-eabi/lib/thumb/v7e-m+fp/hard\libstdc++.a(eh_terminate.o)
                0x6000faac                std::terminate()
 .text._ZN10__cxxabiv112__unexpectedEPFvvE
                0x6000fac0        0x8 d:/programfiles/nxp/mcuxpressoide_11.1.0_3209/ide/plugins/com.nxp.mcuxpresso.tools.win32_11.1.0.201909161352/tools/bin/../lib/gcc/arm-none-eabi/8.3.1/../../../../arm-none-eabi/lib/thumb/v7e-m+fp/hard\libstdc++.a(eh_terminate.o)
                0x6000fac0                __cxxabiv1::__unexpected(void (*)())
 .text._ZSt10unexpectedv
                0x6000fac8       0x14 d:/programfiles/nxp/mcuxpressoide_11.1.0_3209/ide/plugins/com.nxp.mcuxpresso.tools.win32_11.1.0.201909161352/tools/bin/../lib/gcc/arm-none-eabi/8.3.1/../../../../arm-none-eabi/lib/thumb/v7e-m+fp/hard\libstdc++.a(eh_terminate.o)
                0x6000fac8                std::unexpected()
 .text._ZSt13get_terminatev
                0x6000fadc       0x10 d:/programfiles/nxp/mcuxpressoide_11.1.0_3209/ide/plugins/com.nxp.mcuxpresso.tools.win32_11.1.0.201909161352/tools/bin/../lib/gcc/arm-none-eabi/8.3.1/../../../../arm-none-eabi/lib/thumb/v7e-m+fp/hard\libstdc++.a(eh_terminate.o)
                0x6000fadc                std::get_terminate()
 .text._ZSt14get_unexpectedv
                0x6000faec       0x10 d:/programfiles/nxp/mcuxpressoide_11.1.0_3209/ide/plugins/com.nxp.mcuxpresso.tools.win32_11.1.0.201909161352/tools/bin/../lib/gcc/arm-none-eabi/8.3.1/../../../../arm-none-eabi/lib/thumb/v7e-m+fp/hard\libstdc++.a(eh_terminate.o)
                0x6000faec                std::get_unexpected()
 .text.__cxa_type_match
                0x6000fafc       0xbc d:/programfiles/nxp/mcuxpressoide_11.1.0_3209/ide/plugins/com.nxp.mcuxpresso.tools.win32_11.1.0.201909161352/tools/bin/../lib/gcc/arm-none-eabi/8.3.1/../../../../arm-none-eabi/lib/thumb/v7e-m+fp/hard\libstdc++.a(eh_arm.o)
                0x6000fafc                __cxa_type_match
 .text.__cxa_begin_cleanup
                0x6000fbb8       0x64 d:/programfiles/nxp/mcuxpressoide_11.1.0_3209/ide/plugins/com.nxp.mcuxpresso.tools.win32_11.1.0.201909161352/tools/bin/../lib/gcc/arm-none-eabi/8.3.1/../../../../arm-none-eabi/lib/thumb/v7e-m+fp/hard\libstdc++.a(eh_arm.o)
                0x6000fbb8                __cxa_begin_cleanup
 .text.__gnu_end_cleanup
                0x6000fc1c       0x70 d:/programfiles/nxp/mcuxpressoide_11.1.0_3209/ide/plugins/com.nxp.mcuxpresso.tools.win32_11.1.0.201909161352/tools/bin/../lib/gcc/arm-none-eabi/8.3.1/../../../../arm-none-eabi/lib/thumb/v7e-m+fp/hard\libstdc++.a(eh_arm.o)
                0x6000fc1c                __gnu_end_cleanup
 .text._ZdlPvj  0x6000fc8c        0x4 d:/programfiles/nxp/mcuxpressoide_11.1.0_3209/ide/plugins/com.nxp.mcuxpresso.tools.win32_11.1.0.201909161352/tools/bin/../lib/gcc/arm-none-eabi/8.3.1/../../../../arm-none-eabi/lib/thumb/v7e-m+fp/hard\libstdc++.a(del_ops.o)
                0x6000fc8c                operator delete(void*, unsigned int)
 .text._ZL23__gxx_exception_cleanup19_Unwind_Reason_CodeP21_Unwind_Control_Block
                0x6000fc90       0x44 d:/programfiles/nxp/mcuxpressoide_11.1.0_3209/ide/plugins/com.nxp.mcuxpresso.tools.win32_11.1.0.201909161352/tools/bin/../lib/gcc/arm-none-eabi/8.3.1/../../../../arm-none-eabi/lib/thumb/v7e-m+fp/hard\libstdc++.a(eh_throw.o)
 .text.__cxa_init_primary_exception
                0x6000fcd4       0x58 d:/programfiles/nxp/mcuxpressoide_11.1.0_3209/ide/plugins/com.nxp.mcuxpresso.tools.win32_11.1.0.201909161352/tools/bin/../lib/gcc/arm-none-eabi/8.3.1/../../../../arm-none-eabi/lib/thumb/v7e-m+fp/hard\libstdc++.a(eh_throw.o)
                0x6000fcd4                __cxa_init_primary_exception
 .text.__cxa_throw
                0x6000fd2c       0x38 d:/programfiles/nxp/mcuxpressoide_11.1.0_3209/ide/plugins/com.nxp.mcuxpresso.tools.win32_11.1.0.201909161352/tools/bin/../lib/gcc/arm-none-eabi/8.3.1/../../../../arm-none-eabi/lib/thumb/v7e-m+fp/hard\libstdc++.a(eh_throw.o)
                0x6000fd2c                __cxa_throw
 .text.__cxa_rethrow
                0x6000fd64       0x70 d:/programfiles/nxp/mcuxpressoide_11.1.0_3209/ide/plugins/com.nxp.mcuxpresso.tools.win32_11.1.0.201909161352/tools/bin/../lib/gcc/arm-none-eabi/8.3.1/../../../../arm-none-eabi/lib/thumb/v7e-m+fp/hard\libstdc++.a(eh_throw.o)
                0x6000fd64                __cxa_rethrow
 .text._ZN10__cxxabiv120__si_class_type_infoD2Ev
                0x6000fdd4       0x14 d:/programfiles/nxp/mcuxpressoide_11.1.0_3209/ide/plugins/com.nxp.mcuxpresso.tools.win32_11.1.0.201909161352/tools/bin/../lib/gcc/arm-none-eabi/8.3.1/../../../../arm-none-eabi/lib/thumb/v7e-m+fp/hard\libstdc++.a(si_class_type_info.o)
                0x6000fdd4                __cxxabiv1::__si_class_type_info::~__si_class_type_info()
                0x6000fdd4                __cxxabiv1::__si_class_type_info::~__si_class_type_info()
 .text._ZN10__cxxabiv120__si_class_type_infoD0Ev
                0x6000fde8       0x1c d:/programfiles/nxp/mcuxpressoide_11.1.0_3209/ide/plugins/com.nxp.mcuxpresso.tools.win32_11.1.0.201909161352/tools/bin/../lib/gcc/arm-none-eabi/8.3.1/../../../../arm-none-eabi/lib/thumb/v7e-m+fp/hard\libstdc++.a(si_class_type_info.o)
                0x6000fde8                __cxxabiv1::__si_class_type_info::~__si_class_type_info()
 .text._ZNK10__cxxabiv120__si_class_type_info20__do_find_public_srcEiPKvPKNS_17__class_type_infoES2_
                0x6000fe04       0x3c d:/programfiles/nxp/mcuxpressoide_11.1.0_3209/ide/plugins/com.nxp.mcuxpresso.tools.win32_11.1.0.201909161352/tools/bin/../lib/gcc/arm-none-eabi/8.3.1/../../../../arm-none-eabi/lib/thumb/v7e-m+fp/hard\libstdc++.a(si_class_type_info.o)
                0x6000fe04                __cxxabiv1::__si_class_type_info::__do_find_public_src(int, void const*, __cxxabiv1::__class_type_info const*, void const*) const
 .text._ZNK10__cxxabiv120__si_class_type_info12__do_dyncastEiNS_17__class_type_info10__sub_kindEPKS1_PKvS4_S6_RNS1_16__dyncast_resultE
                0x6000fe40       0x84 d:/programfiles/nxp/mcuxpressoide_11.1.0_3209/ide/plugins/com.nxp.mcuxpresso.tools.win32_11.1.0.201909161352/tools/bin/../lib/gcc/arm-none-eabi/8.3.1/../../../../arm-none-eabi/lib/thumb/v7e-m+fp/hard\libstdc++.a(si_class_type_info.o)
                0x6000fe40                __cxxabiv1::__si_class_type_info::__do_dyncast(int, __cxxabiv1::__class_type_info::__sub_kind, __cxxabiv1::__class_type_info const*, void const*, __cxxabiv1::__class_type_info const*, void const*, __cxxabiv1::__class_type_info::__dyncast_result&) const
 .text._ZNK10__cxxabiv120__si_class_type_info11__do_upcastEPKNS_17__class_type_infoEPKvRNS1_15__upcast_resultE
                0x6000fec4       0x2c d:/programfiles/nxp/mcuxpressoide_11.1.0_3209/ide/plugins/com.nxp.mcuxpresso.tools.win32_11.1.0.201909161352/tools/bin/../lib/gcc/arm-none-eabi/8.3.1/../../../../arm-none-eabi/lib/thumb/v7e-m+fp/hard\libstdc++.a(si_class_type_info.o)
                0x6000fec4                __cxxabiv1::__si_class_type_info::__do_upcast(__cxxabiv1::__class_type_info const*, void const*, __cxxabiv1::__class_type_info::__upcast_result&) const
 .text._ZNSt9type_infoD2Ev
                0x6000fef0        0x4 d:/programfiles/nxp/mcuxpressoide_11.1.0_3209/ide/plugins/com.nxp.mcuxpresso.tools.win32_11.1.0.201909161352/tools/bin/../lib/gcc/arm-none-eabi/8.3.1/../../../../arm-none-eabi/lib/thumb/v7e-m+fp/hard\libstdc++.a(tinfo.o)
                0x6000fef0                std::type_info::~type_info()
                0x6000fef0                std::type_info::~type_info()
 .text._ZNKSt9type_info14__is_pointer_pEv
                0x6000fef4        0x4 d:/programfiles/nxp/mcuxpressoide_11.1.0_3209/ide/plugins/com.nxp.mcuxpresso.tools.win32_11.1.0.201909161352/tools/bin/../lib/gcc/arm-none-eabi/8.3.1/../../../../arm-none-eabi/lib/thumb/v7e-m+fp/hard\libstdc++.a(tinfo.o)
                0x6000fef4                std::type_info::__is_pointer_p() const
                0x6000fef4                std::type_info::__is_function_p() const
 .text._ZNKSt9type_infoeqERKS_
                0x6000fef8       0x2c d:/programfiles/nxp/mcuxpressoide_11.1.0_3209/ide/plugins/com.nxp.mcuxpresso.tools.win32_11.1.0.201909161352/tools/bin/../lib/gcc/arm-none-eabi/8.3.1/../../../../arm-none-eabi/lib/thumb/v7e-m+fp/hard\libstdc++.a(tinfo.o)
                0x6000fef8                std::type_info::operator==(std::type_info const&) const
 .text._ZNK10__cxxabiv117__class_type_info11__do_upcastEPKS0_PPv
                0x6000ff24       0x38 d:/programfiles/nxp/mcuxpressoide_11.1.0_3209/ide/plugins/com.nxp.mcuxpresso.tools.win32_11.1.0.201909161352/tools/bin/../lib/gcc/arm-none-eabi/8.3.1/../../../../arm-none-eabi/lib/thumb/v7e-m+fp/hard\libstdc++.a(class_type_info.o)
                0x6000ff24                __cxxabiv1::__class_type_info::__do_upcast(__cxxabiv1::__class_type_info const*, void**) const
 .text._ZNK10__cxxabiv117__class_type_info20__do_find_public_srcEiPKvPKS0_S2_
                0x6000ff5c        0xc d:/programfiles/nxp/mcuxpressoide_11.1.0_3209/ide/plugins/com.nxp.mcuxpresso.tools.win32_11.1.0.201909161352/tools/bin/../lib/gcc/arm-none-eabi/8.3.1/../../../../arm-none-eabi/lib/thumb/v7e-m+fp/hard\libstdc++.a(class_type_info.o)
                0x6000ff5c                __cxxabiv1::__class_type_info::__do_find_public_src(int, void const*, __cxxabiv1::__class_type_info const*, void const*) const
 .text._ZN10__cxxabiv117__class_type_infoD2Ev
                0x6000ff68       0x14 d:/programfiles/nxp/mcuxpressoide_11.1.0_3209/ide/plugins/com.nxp.mcuxpresso.tools.win32_11.1.0.201909161352/tools/bin/../lib/gcc/arm-none-eabi/8.3.1/../../../../arm-none-eabi/lib/thumb/v7e-m+fp/hard\libstdc++.a(class_type_info.o)
                0x6000ff68                __cxxabiv1::__class_type_info::~__class_type_info()
                0x6000ff68                __cxxabiv1::__class_type_info::~__class_type_info()
 .text._ZN10__cxxabiv117__class_type_infoD0Ev
                0x6000ff7c       0x1c d:/programfiles/nxp/mcuxpressoide_11.1.0_3209/ide/plugins/com.nxp.mcuxpresso.tools.win32_11.1.0.201909161352/tools/bin/../lib/gcc/arm-none-eabi/8.3.1/../../../../arm-none-eabi/lib/thumb/v7e-m+fp/hard\libstdc++.a(class_type_info.o)
                0x6000ff7c                __cxxabiv1::__class_type_info::~__class_type_info()
 .text._ZNK10__cxxabiv117__class_type_info12__do_dyncastEiNS0_10__sub_kindEPKS0_PKvS3_S5_RNS0_16__dyncast_resultE
                0x6000ff98       0x44 d:/programfiles/nxp/mcuxpressoide_11.1.0_3209/ide/plugins/com.nxp.mcuxpresso.tools.win32_11.1.0.201909161352/tools/bin/../lib/gcc/arm-none-eabi/8.3.1/../../../../arm-none-eabi/lib/thumb/v7e-m+fp/hard\libstdc++.a(class_type_info.o)
                0x6000ff98                __cxxabiv1::__class_type_info::__do_dyncast(int, __cxxabiv1::__class_type_info::__sub_kind, __cxxabiv1::__class_type_info const*, void const*, __cxxabiv1::__class_type_info const*, void const*, __cxxabiv1::__class_type_info::__dyncast_result&) const
 .text._ZNK10__cxxabiv117__class_type_info11__do_upcastEPKS0_PKvRNS0_15__upcast_resultE
                0x6000ffdc       0x1c d:/programfiles/nxp/mcuxpressoide_11.1.0_3209/ide/plugins/com.nxp.mcuxpresso.tools.win32_11.1.0.201909161352/tools/bin/../lib/gcc/arm-none-eabi/8.3.1/../../../../arm-none-eabi/lib/thumb/v7e-m+fp/hard\libstdc++.a(class_type_info.o)
                0x6000ffdc                __cxxabiv1::__class_type_info::__do_upcast(__cxxabiv1::__class_type_info const*, void const*, __cxxabiv1::__class_type_info::__upcast_result&) const
 .text._ZNK10__cxxabiv117__class_type_info10__do_catchEPKSt9type_infoPPvj
                0x6000fff8       0x2c d:/programfiles/nxp/mcuxpressoide_11.1.0_3209/ide/plugins/com.nxp.mcuxpresso.tools.win32_11.1.0.201909161352/tools/bin/../lib/gcc/arm-none-eabi/8.3.1/../../../../arm-none-eabi/lib/thumb/v7e-m+fp/hard\libstdc++.a(class_type_info.o)
                0x6000fff8                __cxxabiv1::__class_type_info::__do_catch(std::type_info const*, void**, unsigned int) const
 .text._ZNKSt11logic_error4whatEv
                0x60010024        0x4 d:/programfiles/nxp/mcuxpressoide_11.1.0_3209/ide/plugins/com.nxp.mcuxpresso.tools.win32_11.1.0.201909161352/tools/bin/../lib/gcc/arm-none-eabi/8.3.1/../../../../arm-none-eabi/lib/thumb/v7e-m+fp/hard\libstdc++.a(stdexcept.o)
                0x60010024                std::logic_error::what() const
 .text._ZNSt11logic_errorD2Ev
                0x60010028       0x40 d:/programfiles/nxp/mcuxpressoide_11.1.0_3209/ide/plugins/com.nxp.mcuxpresso.tools.win32_11.1.0.201909161352/tools/bin/../lib/gcc/arm-none-eabi/8.3.1/../../../../arm-none-eabi/lib/thumb/v7e-m+fp/hard\libstdc++.a(stdexcept.o)
                0x60010028                std::logic_error::~logic_error()
                0x60010028                std::logic_error::~logic_error()
 .text._ZNSt11logic_errorD0Ev
                0x60010068       0x14 d:/programfiles/nxp/mcuxpressoide_11.1.0_3209/ide/plugins/com.nxp.mcuxpresso.tools.win32_11.1.0.201909161352/tools/bin/../lib/gcc/arm-none-eabi/8.3.1/../../../../arm-none-eabi/lib/thumb/v7e-m+fp/hard\libstdc++.a(stdexcept.o)
                0x60010068                std::logic_error::~logic_error()
 .text._ZNSt12length_errorD2Ev
                0x6001007c       0x14 d:/programfiles/nxp/mcuxpressoide_11.1.0_3209/ide/plugins/com.nxp.mcuxpresso.tools.win32_11.1.0.201909161352/tools/bin/../lib/gcc/arm-none-eabi/8.3.1/../../../../arm-none-eabi/lib/thumb/v7e-m+fp/hard\libstdc++.a(stdexcept.o)
                0x6001007c                std::length_error::~length_error()
                0x6001007c                std::length_error::~length_error()
 .text._ZNSt12length_errorD0Ev
                0x60010090       0x1c d:/programfiles/nxp/mcuxpressoide_11.1.0_3209/ide/plugins/com.nxp.mcuxpresso.tools.win32_11.1.0.201909161352/tools/bin/../lib/gcc/arm-none-eabi/8.3.1/../../../../arm-none-eabi/lib/thumb/v7e-m+fp/hard\libstdc++.a(stdexcept.o)
                0x60010090                std::length_error::~length_error()
 .text._ZNSs4_Rep9_S_createEjjRKSaIcE
                0x600100ac       0x58 d:/programfiles/nxp/mcuxpressoide_11.1.0_3209/ide/plugins/com.nxp.mcuxpresso.tools.win32_11.1.0.201909161352/tools/bin/../lib/gcc/arm-none-eabi/8.3.1/../../../../arm-none-eabi/lib/thumb/v7e-m+fp/hard\libstdc++.a(cow-string-inst.o)
                0x600100ac                std::string::_Rep::_S_create(unsigned int, unsigned int, std::allocator<char> const&)
 .text._ZNSs12_S_constructIPcEES0_T_S1_RKSaIcESt20forward_iterator_tag.part.20
                0x60010104       0x48 d:/programfiles/nxp/mcuxpressoide_11.1.0_3209/ide/plugins/com.nxp.mcuxpresso.tools.win32_11.1.0.201909161352/tools/bin/../lib/gcc/arm-none-eabi/8.3.1/../../../../arm-none-eabi/lib/thumb/v7e-m+fp/hard\libstdc++.a(cow-string-inst.o)
 .text._ZNSs4_Rep10_M_destroyERKSaIcE
                0x6001014c        0x4 d:/programfiles/nxp/mcuxpressoide_11.1.0_3209/ide/plugins/com.nxp.mcuxpresso.tools.win32_11.1.0.201909161352/tools/bin/../lib/gcc/arm-none-eabi/8.3.1/../../../../arm-none-eabi/lib/thumb/v7e-m+fp/hard\libstdc++.a(cow-string-inst.o)
                0x6001014c                std::string::_Rep::_M_destroy(std::allocator<char> const&)
 .text._ZNSs12_S_constructIPKcEEPcT_S3_RKSaIcESt20forward_iterator_tag
                0x60010150       0x24 d:/programfiles/nxp/mcuxpressoide_11.1.0_3209/ide/plugins/com.nxp.mcuxpresso.tools.win32_11.1.0.201909161352/tools/bin/../lib/gcc/arm-none-eabi/8.3.1/../../../../arm-none-eabi/lib/thumb/v7e-m+fp/hard\libstdc++.a(cow-string-inst.o)
                0x60010150                char* std::string::_S_construct<char const*>(char const*, char const*, std::allocator<char> const&, std::forward_iterator_tag)
 .text._ZNSsC2EPKcRKSaIcE
                0x60010174       0x2c d:/programfiles/nxp/mcuxpressoide_11.1.0_3209/ide/plugins/com.nxp.mcuxpresso.tools.win32_11.1.0.201909161352/tools/bin/../lib/gcc/arm-none-eabi/8.3.1/../../../../arm-none-eabi/lib/thumb/v7e-m+fp/hard\libstdc++.a(cow-string-inst.o)
                0x60010174                std::basic_string<char, std::char_traits<char>, std::allocator<char> >::basic_string(char const*, std::allocator<char> const&)
                0x60010174                std::basic_string<char, std::char_traits<char>, std::allocator<char> >::basic_string(char const*, std::allocator<char> const&)
 .text._ZNSt11logic_errorC2EPKc
                0x600101a0       0x28 d:/programfiles/nxp/mcuxpressoide_11.1.0_3209/ide/plugins/com.nxp.mcuxpresso.tools.win32_11.1.0.201909161352/tools/bin/../lib/gcc/arm-none-eabi/8.3.1/../../../../arm-none-eabi/lib/thumb/v7e-m+fp/hard\libstdc++.a(cow-stdexcept.o)
                0x600101a0                std::logic_error::logic_error(char const*)
                0x600101a0                std::logic_error::logic_error(char const*)
 .text._ZNSt12length_errorC2EPKc
                0x600101c8       0x14 d:/programfiles/nxp/mcuxpressoide_11.1.0_3209/ide/plugins/com.nxp.mcuxpresso.tools.win32_11.1.0.201909161352/tools/bin/../lib/gcc/arm-none-eabi/8.3.1/../../../../arm-none-eabi/lib/thumb/v7e-m+fp/hard\libstdc++.a(cow-stdexcept.o)
                0x600101c8                std::length_error::length_error(char const*)
                0x600101c8                std::length_error::length_error(char const*)
 .text.__ieee754_sqrt
                0x600101dc      0x198 d:/programfiles/nxp/mcuxpressoide_11.1.0_3209/ide/plugins/com.nxp.mcuxpresso.tools.win32_11.1.0.201909161352/tools/bin/../lib/gcc/arm-none-eabi/8.3.1/../../../../arm-none-eabi/lib/thumb/v7e-m+fp/hard\libm.a(lib_a-e_sqrt.o)
                0x600101dc                __ieee754_sqrt
 .text.fabs     0x60010374       0x14 d:/programfiles/nxp/mcuxpressoide_11.1.0_3209/ide/plugins/com.nxp.mcuxpresso.tools.win32_11.1.0.201909161352/tools/bin/../lib/gcc/arm-none-eabi/8.3.1/../../../../arm-none-eabi/lib/thumb/v7e-m+fp/hard\libm.a(lib_a-s_fabs.o)
                0x60010374                fabs
 .text.finite   0x60010388       0x10 d:/programfiles/nxp/mcuxpressoide_11.1.0_3209/ide/plugins/com.nxp.mcuxpresso.tools.win32_11.1.0.201909161352/tools/bin/../lib/gcc/arm-none-eabi/8.3.1/../../../../arm-none-eabi/lib/thumb/v7e-m+fp/hard\libm.a(lib_a-s_finite.o)
                0x60010388                finite
 .text.rint     0x60010398      0x120 d:/programfiles/nxp/mcuxpressoide_11.1.0_3209/ide/plugins/com.nxp.mcuxpresso.tools.win32_11.1.0.201909161352/tools/bin/../lib/gcc/arm-none-eabi/8.3.1/../../../../arm-none-eabi/lib/thumb/v7e-m+fp/hard\libm.a(lib_a-s_rint.o)
                0x60010398                rint
 .text._sbrk    0x600104b8       0x3c d:/programfiles/nxp/mcuxpressoide_11.1.0_3209/ide/plugins/com.nxp.mcuxpresso.tools.win32_11.1.0.201909161352/tools/bin/../lib/gcc/arm-none-eabi/8.3.1/../../../../arm-none-eabi/lib/thumb/v7e-m+fp/hard\libcr_newlib_semihost.a(_cr_sbrk.o)
                0x600104b8                _sbrk
 .text.initialise_monitor_handles
                0x600104f4       0xac d:/programfiles/nxp/mcuxpressoide_11.1.0_3209/ide/plugins/com.nxp.mcuxpresso.tools.win32_11.1.0.201909161352/tools/bin/../lib/gcc/arm-none-eabi/8.3.1/../../../../arm-none-eabi/lib/thumb/v7e-m+fp/hard\libcr_newlib_semihost.a(syscalls.o)
 .text.findslot
                0x600105a0       0x24 d:/programfiles/nxp/mcuxpressoide_11.1.0_3209/ide/plugins/com.nxp.mcuxpresso.tools.win32_11.1.0.201909161352/tools/bin/../lib/gcc/arm-none-eabi/8.3.1/../../../../arm-none-eabi/lib/thumb/v7e-m+fp/hard\libcr_newlib_semihost.a(syscalls.o)
 .text._close   0x600105c4       0x4c d:/programfiles/nxp/mcuxpressoide_11.1.0_3209/ide/plugins/com.nxp.mcuxpresso.tools.win32_11.1.0.201909161352/tools/bin/../lib/gcc/arm-none-eabi/8.3.1/../../../../arm-none-eabi/lib/thumb/v7e-m+fp/hard\libcr_newlib_semihost.a(syscalls.o)
                0x600105c4                _close
 .text.__check_heap_overflow
                0x60010610       0x18 d:/programfiles/nxp/mcuxpressoide_11.1.0_3209/ide/plugins/com.nxp.mcuxpresso.tools.win32_11.1.0.201909161352/tools/bin/../lib/gcc/arm-none-eabi/8.3.1/../../../../arm-none-eabi/lib/thumb/v7e-m+fp/hard\libcr_newlib_semihost.a(_cr_check_heap.o)
                0x60010610                __check_heap_overflow
 .text          0x60010628       0x40 d:/programfiles/nxp/mcuxpressoide_11.1.0_3209/ide/plugins/com.nxp.mcuxpresso.tools.win32_11.1.0.201909161352/tools/bin/../lib/gcc/arm-none-eabi/8.3.1/thumb/v7e-m+fp/hard\crtbegin.o
 .text          0x60010668      0x110 d:/programfiles/nxp/mcuxpressoide_11.1.0_3209/ide/plugins/com.nxp.mcuxpresso.tools.win32_11.1.0.201909161352/tools/bin/../lib/gcc/arm-none-eabi/8.3.1/thumb/v7e-m+fp/hard\libgcc.a(_arm_cmpdf2.o)
                0x60010668                __gtdf2
                0x60010668                __gedf2
                0x60010670                __ltdf2
                0x60010670                __ledf2
                0x60010678                __nedf2
                0x60010678                __eqdf2
                0x60010678                __cmpdf2
                0x600106f4                __aeabi_cdrcmple
                0x60010704                __aeabi_cdcmpeq
                0x60010704                __aeabi_cdcmple
                0x60010714                __aeabi_dcmpeq
                0x60010728                __aeabi_dcmplt
                0x6001073c                __aeabi_dcmple
                0x60010750                __aeabi_dcmpge
                0x60010764                __aeabi_dcmpgt
 .text          0x60010778       0x2c d:/programfiles/nxp/mcuxpressoide_11.1.0_3209/ide/plugins/com.nxp.mcuxpresso.tools.win32_11.1.0.201909161352/tools/bin/../lib/gcc/arm-none-eabi/8.3.1/thumb/v7e-m+fp/hard\libgcc.a(_arm_unorddf2.o)
                0x60010778                __unorddf2
                0x60010778                __aeabi_dcmpun
 .text          0x600107a4       0x50 d:/programfiles/nxp/mcuxpressoide_11.1.0_3209/ide/plugins/com.nxp.mcuxpresso.tools.win32_11.1.0.201909161352/tools/bin/../lib/gcc/arm-none-eabi/8.3.1/thumb/v7e-m+fp/hard\libgcc.a(_arm_fixdfsi.o)
                0x600107a4                __aeabi_d2iz
                0x600107a4                __fixdfsi
 .text          0x600107f4      0x9e0 d:/programfiles/nxp/mcuxpressoide_11.1.0_3209/ide/plugins/com.nxp.mcuxpresso.tools.win32_11.1.0.201909161352/tools/bin/../lib/gcc/arm-none-eabi/8.3.1/thumb/v7e-m+fp/hard\libgcc.a(unwind-arm.o)
                0x60010aac                _Unwind_GetCFA
                0x60010ab0                __gnu_Unwind_RaiseException
                0x60010b10                __gnu_Unwind_ForcedUnwind
                0x60010b24                __gnu_Unwind_Resume
                0x60010b68                __gnu_Unwind_Resume_or_Rethrow
                0x60010b78                _Unwind_Complete
                0x60010b7c                _Unwind_DeleteException
                0x60010b88                _Unwind_VRS_Get
                0x60010bcc                _Unwind_VRS_Set
                0x60010c10                __gnu_Unwind_Backtrace
                0x60010f48                __aeabi_unwind_cpp_pr0
                0x60010f4c                __aeabi_unwind_cpp_pr1
                0x60010f50                __aeabi_unwind_cpp_pr2
                0x60010f54                _Unwind_VRS_Pop
 .text          0x600111d4      0x1ac d:/programfiles/nxp/mcuxpressoide_11.1.0_3209/ide/plugins/com.nxp.mcuxpresso.tools.win32_11.1.0.201909161352/tools/bin/../lib/gcc/arm-none-eabi/8.3.1/thumb/v7e-m+fp/hard\libgcc.a(libunwind.o)
                0x600111d4                __restore_core_regs
                0x600111d4                restore_core_regs
                0x600111ec                __gnu_Unwind_Restore_VFP
                0x600111f4                __gnu_Unwind_Save_VFP
                0x600111fc                __gnu_Unwind_Restore_VFP_D
                0x60011204                __gnu_Unwind_Save_VFP_D
                0x6001120c                __gnu_Unwind_Restore_VFP_D_16_to_31
                0x60011214                __gnu_Unwind_Save_VFP_D_16_to_31
                0x6001121c                __gnu_Unwind_Restore_WMMXD
                0x60011260                __gnu_Unwind_Save_WMMXD
                0x600112a4                __gnu_Unwind_Restore_WMMXC
                0x600112b8                __gnu_Unwind_Save_WMMXC
                0x600112cc                ___Unwind_RaiseException
                0x600112cc                _Unwind_RaiseException
                0x600112f0                _Unwind_Resume
                0x600112f0                ___Unwind_Resume
                0x60011314                _Unwind_Resume_or_Rethrow
                0x60011314                ___Unwind_Resume_or_Rethrow
                0x60011338                _Unwind_ForcedUnwind
                0x60011338                ___Unwind_ForcedUnwind
                0x6001135c                ___Unwind_Backtrace
                0x6001135c                _Unwind_Backtrace
 .text          0x60011380      0x368 d:/programfiles/nxp/mcuxpressoide_11.1.0_3209/ide/plugins/com.nxp.mcuxpresso.tools.win32_11.1.0.201909161352/tools/bin/../lib/gcc/arm-none-eabi/8.3.1/thumb/v7e-m+fp/hard\libgcc.a(pr-support.o)
                0x600113d8                __gnu_unwind_execute
                0x600116a0                __gnu_unwind_frame
                0x600116c8                _Unwind_GetRegionStart
                0x600116d4                _Unwind_GetLanguageSpecificData
 .text.abort    0x600116e8       0x10 d:/programfiles/nxp/mcuxpressoide_11.1.0_3209/ide/plugins/com.nxp.mcuxpresso.tools.win32_11.1.0.201909161352/tools/bin/../lib/gcc/arm-none-eabi/8.3.1/../../../../arm-none-eabi/lib/thumb/v7e-m+fp/hard\libc.a(lib_a-abort.o)
                0x600116e8                abort
 .text.__errno  0x600116f8        0xc d:/programfiles/nxp/mcuxpressoide_11.1.0_3209/ide/plugins/com.nxp.mcuxpresso.tools.win32_11.1.0.201909161352/tools/bin/../lib/gcc/arm-none-eabi/8.3.1/../../../../arm-none-eabi/lib/thumb/v7e-m+fp/hard\libc.a(lib_a-errno.o)
                0x600116f8                __errno
 .text._raise_r
                0x60011704       0x58 d:/programfiles/nxp/mcuxpressoide_11.1.0_3209/ide/plugins/com.nxp.mcuxpresso.tools.win32_11.1.0.201909161352/tools/bin/../lib/gcc/arm-none-eabi/8.3.1/../../../../arm-none-eabi/lib/thumb/v7e-m+fp/hard\libc.a(lib_a-signal.o)
                0x60011704                _raise_r
 .text.raise    0x6001175c       0x10 d:/programfiles/nxp/mcuxpressoide_11.1.0_3209/ide/plugins/com.nxp.mcuxpresso.tools.win32_11.1.0.201909161352/tools/bin/../lib/gcc/arm-none-eabi/8.3.1/../../../../arm-none-eabi/lib/thumb/v7e-m+fp/hard\libc.a(lib_a-signal.o)
                0x6001175c                raise
 .text._kill_r  0x6001176c       0x28 d:/programfiles/nxp/mcuxpressoide_11.1.0_3209/ide/plugins/com.nxp.mcuxpresso.tools.win32_11.1.0.201909161352/tools/bin/../lib/gcc/arm-none-eabi/8.3.1/../../../../arm-none-eabi/lib/thumb/v7e-m+fp/hard\libc.a(lib_a-signalr.o)
                0x6001176c                _kill_r
 .text._getpid_r
                0x60011794        0x4 d:/programfiles/nxp/mcuxpressoide_11.1.0_3209/ide/plugins/com.nxp.mcuxpresso.tools.win32_11.1.0.201909161352/tools/bin/../lib/gcc/arm-none-eabi/8.3.1/../../../../arm-none-eabi/lib/thumb/v7e-m+fp/hard\libc.a(lib_a-signalr.o)
                0x60011794                _getpid_r
 .text._kill    0x60011798       0x20 d:/programfiles/nxp/mcuxpressoide_11.1.0_3209/ide/plugins/com.nxp.mcuxpresso.tools.win32_11.1.0.201909161352/tools/bin/../lib/gcc/arm-none-eabi/8.3.1/../../../../arm-none-eabi/lib/thumb/v7e-m+fp/hard\libcr_newlib_semihost.a(_kill.o)
                0x60011798                _kill
 .text.DMA0_DMA16_IRQHandler
                0x600117b8        0x8 ./startup/startup_mimxrt1062.o
                0x600117b8                DMA0_DMA16_IRQHandler
 .text.DMA1_DMA17_IRQHandler
                0x600117c0        0x8 ./startup/startup_mimxrt1062.o
                0x600117c0                DMA1_DMA17_IRQHandler
 .text.DMA2_DMA18_IRQHandler
                0x600117c8        0x8 ./startup/startup_mimxrt1062.o
                0x600117c8                DMA2_DMA18_IRQHandler
 .text.DMA3_DMA19_IRQHandler
                0x600117d0        0x8 ./startup/startup_mimxrt1062.o
                0x600117d0                DMA3_DMA19_IRQHandler
 .text.DMA4_DMA20_IRQHandler
                0x600117d8        0x8 ./startup/startup_mimxrt1062.o
                0x600117d8                DMA4_DMA20_IRQHandler
 .text.DMA5_DMA21_IRQHandler
                0x600117e0        0x8 ./startup/startup_mimxrt1062.o
                0x600117e0                DMA5_DMA21_IRQHandler
 .text.DMA6_DMA22_IRQHandler
                0x600117e8        0x8 ./startup/startup_mimxrt1062.o
                0x600117e8                DMA6_DMA22_IRQHandler
 .text.DMA7_DMA23_IRQHandler
                0x600117f0        0x8 ./startup/startup_mimxrt1062.o
                0x600117f0                DMA7_DMA23_IRQHandler
 .text.DMA8_DMA24_IRQHandler
                0x600117f8        0x8 ./startup/startup_mimxrt1062.o
                0x600117f8                DMA8_DMA24_IRQHandler
 .text.DMA9_DMA25_IRQHandler
                0x60011800        0x8 ./startup/startup_mimxrt1062.o
                0x60011800                DMA9_DMA25_IRQHandler
 .text.DMA10_DMA26_IRQHandler
                0x60011808        0x8 ./startup/startup_mimxrt1062.o
                0x60011808                DMA10_DMA26_IRQHandler
 .text.DMA11_DMA27_IRQHandler
                0x60011810        0x8 ./startup/startup_mimxrt1062.o
                0x60011810                DMA11_DMA27_IRQHandler
 .text.DMA12_DMA28_IRQHandler
                0x60011818        0x8 ./startup/startup_mimxrt1062.o
                0x60011818                DMA12_DMA28_IRQHandler
 .text.DMA13_DMA29_IRQHandler
                0x60011820        0x8 ./startup/startup_mimxrt1062.o
                0x60011820                DMA13_DMA29_IRQHandler
 .text.DMA14_DMA30_IRQHandler
                0x60011828        0x8 ./startup/startup_mimxrt1062.o
                0x60011828                DMA14_DMA30_IRQHandler
 .text.DMA15_DMA31_IRQHandler
                0x60011830        0x8 ./startup/startup_mimxrt1062.o
                0x60011830                DMA15_DMA31_IRQHandler
 .text.DMA_ERROR_IRQHandler
                0x60011838        0x8 ./startup/startup_mimxrt1062.o
                0x60011838                DMA_ERROR_IRQHandler
 .text.CTI0_ERROR_IRQHandler
                0x60011840        0x8 ./startup/startup_mimxrt1062.o
                0x60011840                CTI0_ERROR_IRQHandler
 .text.CTI1_ERROR_IRQHandler
                0x60011848        0x8 ./startup/startup_mimxrt1062.o
                0x60011848                CTI1_ERROR_IRQHandler
 .text.CORE_IRQHandler
                0x60011850        0x8 ./startup/startup_mimxrt1062.o
                0x60011850                CORE_IRQHandler
 .text.LPUART1_IRQHandler
                0x60011858        0x8 ./startup/startup_mimxrt1062.o
                0x60011858                LPUART1_IRQHandler
 .text.LPUART2_IRQHandler
                0x60011860        0x8 ./startup/startup_mimxrt1062.o
                0x60011860                LPUART2_IRQHandler
 .text.LPUART3_IRQHandler
                0x60011868        0x8 ./startup/startup_mimxrt1062.o
                0x60011868                LPUART3_IRQHandler
 .text.LPUART4_IRQHandler
                0x60011870        0x8 ./startup/startup_mimxrt1062.o
                0x60011870                LPUART4_IRQHandler
 .text.LPUART5_IRQHandler
                0x60011878        0x8 ./startup/startup_mimxrt1062.o
                0x60011878                LPUART5_IRQHandler
 .text.LPUART6_IRQHandler
                0x60011880        0x8 ./startup/startup_mimxrt1062.o
                0x60011880                LPUART6_IRQHandler
 .text.LPUART7_IRQHandler
                0x60011888        0x8 ./startup/startup_mimxrt1062.o
                0x60011888                LPUART7_IRQHandler
 .text.LPUART8_IRQHandler
                0x60011890        0x8 ./startup/startup_mimxrt1062.o
                0x60011890                LPUART8_IRQHandler
 .text.LPI2C1_IRQHandler
                0x60011898        0x8 ./startup/startup_mimxrt1062.o
                0x60011898                LPI2C1_IRQHandler
 .text.LPI2C2_IRQHandler
                0x600118a0        0x8 ./startup/startup_mimxrt1062.o
                0x600118a0                LPI2C2_IRQHandler
 .text.LPI2C3_IRQHandler
                0x600118a8        0x8 ./startup/startup_mimxrt1062.o
                0x600118a8                LPI2C3_IRQHandler
 .text.LPI2C4_IRQHandler
                0x600118b0        0x8 ./startup/startup_mimxrt1062.o
                0x600118b0                LPI2C4_IRQHandler
 .text.LPSPI1_IRQHandler
                0x600118b8        0x8 ./startup/startup_mimxrt1062.o
                0x600118b8                LPSPI1_IRQHandler
 .text.LPSPI2_IRQHandler
                0x600118c0        0x8 ./startup/startup_mimxrt1062.o
                0x600118c0                LPSPI2_IRQHandler
 .text.LPSPI3_IRQHandler
                0x600118c8        0x8 ./startup/startup_mimxrt1062.o
                0x600118c8                LPSPI3_IRQHandler
 .text.LPSPI4_IRQHandler
                0x600118d0        0x8 ./startup/startup_mimxrt1062.o
                0x600118d0                LPSPI4_IRQHandler
 .text.CAN1_IRQHandler
                0x600118d8        0x8 ./startup/startup_mimxrt1062.o
                0x600118d8                CAN1_IRQHandler
 .text.CAN2_IRQHandler
                0x600118e0        0x8 ./startup/startup_mimxrt1062.o
                0x600118e0                CAN2_IRQHandler
 .text.FLEXRAM_IRQHandler
                0x600118e8        0x8 ./startup/startup_mimxrt1062.o
                0x600118e8                FLEXRAM_IRQHandler
 .text.KPP_IRQHandler
                0x600118f0        0x8 ./startup/startup_mimxrt1062.o
                0x600118f0                KPP_IRQHandler
 .text.TSC_DIG_IRQHandler
                0x600118f8        0x8 ./startup/startup_mimxrt1062.o
                0x600118f8                TSC_DIG_IRQHandler
 .text.GPR_IRQ_IRQHandler
                0x60011900        0x8 ./startup/startup_mimxrt1062.o
                0x60011900                GPR_IRQ_IRQHandler
 .text.LCDIF_IRQHandler
                0x60011908        0x8 ./startup/startup_mimxrt1062.o
                0x60011908                LCDIF_IRQHandler
 .text.CSI_IRQHandler
                0x60011910        0x8 ./startup/startup_mimxrt1062.o
                0x60011910                CSI_IRQHandler
 .text.PXP_IRQHandler
                0x60011918        0x8 ./startup/startup_mimxrt1062.o
                0x60011918                PXP_IRQHandler
 .text.WDOG2_IRQHandler
                0x60011920        0x8 ./startup/startup_mimxrt1062.o
                0x60011920                WDOG2_IRQHandler
 .text.SNVS_HP_WRAPPER_IRQHandler
                0x60011928        0x8 ./startup/startup_mimxrt1062.o
                0x60011928                SNVS_HP_WRAPPER_IRQHandler
 .text.SNVS_HP_WRAPPER_TZ_IRQHandler
                0x60011930        0x8 ./startup/startup_mimxrt1062.o
                0x60011930                SNVS_HP_WRAPPER_TZ_IRQHandler
 .text.SNVS_LP_WRAPPER_IRQHandler
                0x60011938        0x8 ./startup/startup_mimxrt1062.o
                0x60011938                SNVS_LP_WRAPPER_IRQHandler
 .text.CSU_IRQHandler
                0x60011940        0x8 ./startup/startup_mimxrt1062.o
                0x60011940                CSU_IRQHandler
 .text.DCP_IRQHandler
                0x60011948        0x8 ./startup/startup_mimxrt1062.o
                0x60011948                DCP_IRQHandler
 .text.DCP_VMI_IRQHandler
                0x60011950        0x8 ./startup/startup_mimxrt1062.o
                0x60011950                DCP_VMI_IRQHandler
 .text.Reserved68_IRQHandler
                0x60011958        0x8 ./startup/startup_mimxrt1062.o
                0x60011958                Reserved68_IRQHandler
 .text.TRNG_IRQHandler
                0x60011960        0x8 ./startup/startup_mimxrt1062.o
                0x60011960                TRNG_IRQHandler
 .text.SJC_IRQHandler
                0x60011968        0x8 ./startup/startup_mimxrt1062.o
                0x60011968                SJC_IRQHandler
 .text.BEE_IRQHandler
                0x60011970        0x8 ./startup/startup_mimxrt1062.o
                0x60011970                BEE_IRQHandler
 .text.SAI1_IRQHandler
                0x60011978        0x8 ./startup/startup_mimxrt1062.o
                0x60011978                SAI1_IRQHandler
 .text.SAI2_IRQHandler
                0x60011980        0x8 ./startup/startup_mimxrt1062.o
                0x60011980                SAI2_IRQHandler
 .text.SAI3_RX_IRQHandler
                0x60011988        0x8 ./startup/startup_mimxrt1062.o
                0x60011988                SAI3_RX_IRQHandler
 .text.SAI3_TX_IRQHandler
                0x60011990        0x8 ./startup/startup_mimxrt1062.o
                0x60011990                SAI3_TX_IRQHandler
 .text.SPDIF_IRQHandler
                0x60011998        0x8 ./startup/startup_mimxrt1062.o
                0x60011998                SPDIF_IRQHandler
 .text.PMU_EVENT_IRQHandler
                0x600119a0        0x8 ./startup/startup_mimxrt1062.o
                0x600119a0                PMU_EVENT_IRQHandler
 .text.Reserved78_IRQHandler
                0x600119a8        0x8 ./startup/startup_mimxrt1062.o
                0x600119a8                Reserved78_IRQHandler
 .text.TEMP_LOW_HIGH_IRQHandler
                0x600119b0        0x8 ./startup/startup_mimxrt1062.o
                0x600119b0                TEMP_LOW_HIGH_IRQHandler
 .text.TEMP_PANIC_IRQHandler
                0x600119b8        0x8 ./startup/startup_mimxrt1062.o
                0x600119b8                TEMP_PANIC_IRQHandler
 .text.USB_PHY1_IRQHandler
                0x600119c0        0x8 ./startup/startup_mimxrt1062.o
                0x600119c0                USB_PHY1_IRQHandler
 .text.USB_PHY2_IRQHandler
                0x600119c8        0x8 ./startup/startup_mimxrt1062.o
                0x600119c8                USB_PHY2_IRQHandler
 .text.ADC1_IRQHandler
                0x600119d0        0x8 ./startup/startup_mimxrt1062.o
                0x600119d0                ADC1_IRQHandler
 .text.ADC2_IRQHandler
                0x600119d8        0x8 ./startup/startup_mimxrt1062.o
                0x600119d8                ADC2_IRQHandler
 .text.DCDC_IRQHandler
                0x600119e0        0x8 ./startup/startup_mimxrt1062.o
                0x600119e0                DCDC_IRQHandler
 .text.Reserved86_IRQHandler
                0x600119e8        0x8 ./startup/startup_mimxrt1062.o
                0x600119e8                Reserved86_IRQHandler
 .text.Reserved87_IRQHandler
                0x600119f0        0x8 ./startup/startup_mimxrt1062.o
                0x600119f0                Reserved87_IRQHandler
 .text.GPIO1_INT0_IRQHandler
                0x600119f8        0x8 ./startup/startup_mimxrt1062.o
                0x600119f8                GPIO1_INT0_IRQHandler
 .text.GPIO1_INT1_IRQHandler
                0x60011a00        0x8 ./startup/startup_mimxrt1062.o
                0x60011a00                GPIO1_INT1_IRQHandler
 .text.GPIO1_INT2_IRQHandler
                0x60011a08        0x8 ./startup/startup_mimxrt1062.o
                0x60011a08                GPIO1_INT2_IRQHandler
 .text.GPIO1_INT3_IRQHandler
                0x60011a10        0x8 ./startup/startup_mimxrt1062.o
                0x60011a10                GPIO1_INT3_IRQHandler
 .text.GPIO1_INT4_IRQHandler
                0x60011a18        0x8 ./startup/startup_mimxrt1062.o
                0x60011a18                GPIO1_INT4_IRQHandler
 .text.GPIO1_INT5_IRQHandler
                0x60011a20        0x8 ./startup/startup_mimxrt1062.o
                0x60011a20                GPIO1_INT5_IRQHandler
 .text.GPIO1_INT6_IRQHandler
                0x60011a28        0x8 ./startup/startup_mimxrt1062.o
                0x60011a28                GPIO1_INT6_IRQHandler
 .text.GPIO1_INT7_IRQHandler
                0x60011a30        0x8 ./startup/startup_mimxrt1062.o
                0x60011a30                GPIO1_INT7_IRQHandler
 .text.FLEXIO1_IRQHandler
                0x60011a38        0x8 ./startup/startup_mimxrt1062.o
                0x60011a38                FLEXIO1_IRQHandler
 .text.FLEXIO2_IRQHandler
                0x60011a40        0x8 ./startup/startup_mimxrt1062.o
                0x60011a40                FLEXIO2_IRQHandler
 .text.WDOG1_IRQHandler
                0x60011a48        0x8 ./startup/startup_mimxrt1062.o
                0x60011a48                WDOG1_IRQHandler
 .text.RTWDOG_IRQHandler
                0x60011a50        0x8 ./startup/startup_mimxrt1062.o
                0x60011a50                RTWDOG_IRQHandler
 .text.EWM_IRQHandler
                0x60011a58        0x8 ./startup/startup_mimxrt1062.o
                0x60011a58                EWM_IRQHandler
 .text.CCM_1_IRQHandler
                0x60011a60        0x8 ./startup/startup_mimxrt1062.o
                0x60011a60                CCM_1_IRQHandler
 .text.CCM_2_IRQHandler
                0x60011a68        0x8 ./startup/startup_mimxrt1062.o
                0x60011a68                CCM_2_IRQHandler
 .text.GPC_IRQHandler
                0x60011a70        0x8 ./startup/startup_mimxrt1062.o
                0x60011a70                GPC_IRQHandler
 .text.SRC_IRQHandler
                0x60011a78        0x8 ./startup/startup_mimxrt1062.o
                0x60011a78                SRC_IRQHandler
 .text.Reserved115_IRQHandler
                0x60011a80        0x8 ./startup/startup_mimxrt1062.o
                0x60011a80                Reserved115_IRQHandler
 .text.PWM1_0_IRQHandler
                0x60011a88        0x8 ./startup/startup_mimxrt1062.o
                0x60011a88                PWM1_0_IRQHandler
 .text.PWM1_1_IRQHandler
                0x60011a90        0x8 ./startup/startup_mimxrt1062.o
                0x60011a90                PWM1_1_IRQHandler
 .text.PWM1_2_IRQHandler
                0x60011a98        0x8 ./startup/startup_mimxrt1062.o
                0x60011a98                PWM1_2_IRQHandler
 .text.PWM1_3_IRQHandler
                0x60011aa0        0x8 ./startup/startup_mimxrt1062.o
                0x60011aa0                PWM1_3_IRQHandler
 .text.PWM1_FAULT_IRQHandler
                0x60011aa8        0x8 ./startup/startup_mimxrt1062.o
                0x60011aa8                PWM1_FAULT_IRQHandler
 .text.FLEXSPI2_IRQHandler
                0x60011ab0        0x8 ./startup/startup_mimxrt1062.o
                0x60011ab0                FLEXSPI2_IRQHandler
 .text.FLEXSPI_IRQHandler
                0x60011ab8        0x8 ./startup/startup_mimxrt1062.o
                0x60011ab8                FLEXSPI_IRQHandler
 .text.SEMC_IRQHandler
                0x60011ac0        0x8 ./startup/startup_mimxrt1062.o
                0x60011ac0                SEMC_IRQHandler
 .text.USDHC1_IRQHandler
                0x60011ac8        0x8 ./startup/startup_mimxrt1062.o
                0x60011ac8                USDHC1_IRQHandler
 .text.USDHC2_IRQHandler
                0x60011ad0        0x8 ./startup/startup_mimxrt1062.o
                0x60011ad0                USDHC2_IRQHandler
 .text.USB_OTG2_IRQHandler
                0x60011ad8        0x8 ./startup/startup_mimxrt1062.o
                0x60011ad8                USB_OTG2_IRQHandler
 .text.USB_OTG1_IRQHandler
                0x60011ae0        0x8 ./startup/startup_mimxrt1062.o
                0x60011ae0                USB_OTG1_IRQHandler
 .text.ENET_IRQHandler
                0x60011ae8        0x8 ./startup/startup_mimxrt1062.o
                0x60011ae8                ENET_IRQHandler
 .text.ENET_1588_Timer_IRQHandler
                0x60011af0        0x8 ./startup/startup_mimxrt1062.o
                0x60011af0                ENET_1588_Timer_IRQHandler
 .text.XBAR1_IRQ_0_1_IRQHandler
                0x60011af8        0x8 ./startup/startup_mimxrt1062.o
                0x60011af8                XBAR1_IRQ_0_1_IRQHandler
 .text.XBAR1_IRQ_2_3_IRQHandler
                0x60011b00        0x8 ./startup/startup_mimxrt1062.o
                0x60011b00                XBAR1_IRQ_2_3_IRQHandler
 .text.ADC_ETC_IRQ0_IRQHandler
                0x60011b08        0x8 ./startup/startup_mimxrt1062.o
                0x60011b08                ADC_ETC_IRQ0_IRQHandler
 .text.ADC_ETC_IRQ1_IRQHandler
                0x60011b10        0x8 ./startup/startup_mimxrt1062.o
                0x60011b10                ADC_ETC_IRQ1_IRQHandler
 .text.ADC_ETC_IRQ2_IRQHandler
                0x60011b18        0x8 ./startup/startup_mimxrt1062.o
                0x60011b18                ADC_ETC_IRQ2_IRQHandler
 .text.ADC_ETC_ERROR_IRQ_IRQHandler
                0x60011b20        0x8 ./startup/startup_mimxrt1062.o
                0x60011b20                ADC_ETC_ERROR_IRQ_IRQHandler
 .text.PIT_IRQHandler
                0x60011b28        0x8 ./startup/startup_mimxrt1062.o
                0x60011b28                PIT_IRQHandler
 .text.ACMP1_IRQHandler
                0x60011b30        0x8 ./startup/startup_mimxrt1062.o
                0x60011b30                ACMP1_IRQHandler
 .text.ACMP2_IRQHandler
                0x60011b38        0x8 ./startup/startup_mimxrt1062.o
                0x60011b38                ACMP2_IRQHandler
 .text.ACMP3_IRQHandler
                0x60011b40        0x8 ./startup/startup_mimxrt1062.o
                0x60011b40                ACMP3_IRQHandler
 .text.ACMP4_IRQHandler
                0x60011b48        0x8 ./startup/startup_mimxrt1062.o
                0x60011b48                ACMP4_IRQHandler
 .text.Reserved143_IRQHandler
                0x60011b50        0x8 ./startup/startup_mimxrt1062.o
                0x60011b50                Reserved143_IRQHandler
 .text.Reserved144_IRQHandler
                0x60011b58        0x8 ./startup/startup_mimxrt1062.o
                0x60011b58                Reserved144_IRQHandler
 .text.ENC1_IRQHandler
                0x60011b60        0x8 ./startup/startup_mimxrt1062.o
                0x60011b60                ENC1_IRQHandler
 .text.ENC2_IRQHandler
                0x60011b68        0x8 ./startup/startup_mimxrt1062.o
                0x60011b68                ENC2_IRQHandler
 .text.ENC3_IRQHandler
                0x60011b70        0x8 ./startup/startup_mimxrt1062.o
                0x60011b70                ENC3_IRQHandler
 .text.ENC4_IRQHandler
                0x60011b78        0x8 ./startup/startup_mimxrt1062.o
                0x60011b78                ENC4_IRQHandler
 .text.TMR1_IRQHandler
                0x60011b80        0x8 ./startup/startup_mimxrt1062.o
                0x60011b80                TMR1_IRQHandler
 .text.TMR2_IRQHandler
                0x60011b88        0x8 ./startup/startup_mimxrt1062.o
                0x60011b88                TMR2_IRQHandler
 .text.TMR3_IRQHandler
                0x60011b90        0x8 ./startup/startup_mimxrt1062.o
                0x60011b90                TMR3_IRQHandler
 .text.TMR4_IRQHandler
                0x60011b98        0x8 ./startup/startup_mimxrt1062.o
                0x60011b98                TMR4_IRQHandler
 .text.PWM2_0_IRQHandler
                0x60011ba0        0x8 ./startup/startup_mimxrt1062.o
                0x60011ba0                PWM2_0_IRQHandler
 .text.PWM2_1_IRQHandler
                0x60011ba8        0x8 ./startup/startup_mimxrt1062.o
                0x60011ba8                PWM2_1_IRQHandler
 .text.PWM2_2_IRQHandler
                0x60011bb0        0x8 ./startup/startup_mimxrt1062.o
                0x60011bb0                PWM2_2_IRQHandler
 .text.PWM2_3_IRQHandler
                0x60011bb8        0x8 ./startup/startup_mimxrt1062.o
                0x60011bb8                PWM2_3_IRQHandler
 .text.PWM2_FAULT_IRQHandler
                0x60011bc0        0x8 ./startup/startup_mimxrt1062.o
                0x60011bc0                PWM2_FAULT_IRQHandler
 .text.PWM3_0_IRQHandler
                0x60011bc8        0x8 ./startup/startup_mimxrt1062.o
                0x60011bc8                PWM3_0_IRQHandler
 .text.PWM3_1_IRQHandler
                0x60011bd0        0x8 ./startup/startup_mimxrt1062.o
                0x60011bd0                PWM3_1_IRQHandler
 .text.PWM3_2_IRQHandler
                0x60011bd8        0x8 ./startup/startup_mimxrt1062.o
                0x60011bd8                PWM3_2_IRQHandler
 .text.PWM3_3_IRQHandler
                0x60011be0        0x8 ./startup/startup_mimxrt1062.o
                0x60011be0                PWM3_3_IRQHandler
 .text.PWM3_FAULT_IRQHandler
                0x60011be8        0x8 ./startup/startup_mimxrt1062.o
                0x60011be8                PWM3_FAULT_IRQHandler
 .text.PWM4_0_IRQHandler
                0x60011bf0        0x8 ./startup/startup_mimxrt1062.o
                0x60011bf0                PWM4_0_IRQHandler
 .text.PWM4_1_IRQHandler
                0x60011bf8        0x8 ./startup/startup_mimxrt1062.o
                0x60011bf8                PWM4_1_IRQHandler
 .text.PWM4_2_IRQHandler
                0x60011c00        0x8 ./startup/startup_mimxrt1062.o
                0x60011c00                PWM4_2_IRQHandler
 .text.PWM4_3_IRQHandler
                0x60011c08        0x8 ./startup/startup_mimxrt1062.o
                0x60011c08                PWM4_3_IRQHandler
 .text.PWM4_FAULT_IRQHandler
                0x60011c10        0x8 ./startup/startup_mimxrt1062.o
                0x60011c10                PWM4_FAULT_IRQHandler
 .text.ENET2_IRQHandler
                0x60011c18        0x8 ./startup/startup_mimxrt1062.o
                0x60011c18                ENET2_IRQHandler
 .text.ENET2_1588_Timer_IRQHandler
                0x60011c20        0x8 ./startup/startup_mimxrt1062.o
                0x60011c20                ENET2_1588_Timer_IRQHandler
 .text.CAN3_IRQHandler
                0x60011c28        0x8 ./startup/startup_mimxrt1062.o
                0x60011c28                CAN3_IRQHandler
 .text.Reserved171_IRQHandler
                0x60011c30        0x8 ./startup/startup_mimxrt1062.o
                0x60011c30                Reserved171_IRQHandler
 .text.FLEXIO3_IRQHandler
                0x60011c38        0x8 ./startup/startup_mimxrt1062.o
                0x60011c38                FLEXIO3_IRQHandler
 .text.vApplicationIdleHook
                0x60011c40        0x6 ./source/Device_manager.o
                0x60011c40                vApplicationIdleHook
 .text._ZSt3powIiaEN9__gnu_cxx11__promote_2IT_T0_NS0_9__promoteIS2_XsrSt12__is_integerIS2_E7__valueEE6__typeENS4_IS3_XsrS5_IS3_E7__valueEE6__typeEE6__typeES2_S3_
                0x60011c46       0x46 ./source/Device_manager.o
                0x60011c46                __gnu_cxx::__promote_2<int, signed char, __gnu_cxx::__promote<int, std::__is_integer<int>::__value>::__type, __gnu_cxx::__promote<signed char, std::__is_integer<signed char>::__value>::__type>::__type std::pow<int, signed char>(int, signed char)
 .text._ZN12pmbus_sensorC2EhhNSt7__cxx1112basic_stringIcSt11char_traitsIcESaIcEEE
                0x60011c8c       0x3a ./source/Devices.o
                0x60011c8c                pmbus_sensor::pmbus_sensor(unsigned char, unsigned char, std::__cxx11::basic_string<char, std::char_traits<char>, std::allocator<char> >)
                0x60011c8c                pmbus_sensor::pmbus_sensor(unsigned char, unsigned char, std::__cxx11::basic_string<char, std::char_traits<char>, std::allocator<char> >)
 .text._ZN12pmbus_sensor15get_measurementEP18_lpi2c_rtos_handletRf
                0x60011cc6       0xd2 ./source/Devices.o
                0x60011cc6                pmbus_sensor::get_measurement(_lpi2c_rtos_handle*, unsigned short, float&)
 .text._ZN12pmbus_sensor11format_voutEth
                0x60011d98       0x74 ./source/Devices.o
                0x60011d98                pmbus_sensor::format_vout(unsigned short, unsigned char)
 .text._ZN12pmbus_sensor14format_literalEt
                0x60011e0c       0x92 ./source/Devices.o
                0x60011e0c                pmbus_sensor::format_literal(unsigned short)
 .text._ZN12pmbus_device14device_readoutEP18_lpi2c_rtos_handleRtPf
                0x60011e9e       0x68 ./source/Devices.o
                0x60011e9e                pmbus_device::device_readout(_lpi2c_rtos_handle*, unsigned short&, float*)
 .text._ZN6deviceC2Eh11device_typeNSt7__cxx1112basic_stringIcSt11char_traitsIcESaIcEEE
                0x60011f06       0x3a ./source/Devices.o
                0x60011f06                device::device(unsigned char, device_type, std::__cxx11::basic_string<char, std::char_traits<char>, std::allocator<char> >)
                0x60011f06                device::device(unsigned char, device_type, std::__cxx11::basic_string<char, std::char_traits<char>, std::allocator<char> >)
 .text._ZN10I2C_switchC2EhNSt7__cxx1112basic_stringIcSt11char_traitsIcESaIcEEE
                0x60011f40       0x50 ./source/Devices.o
                0x60011f40                I2C_switch::I2C_switch(unsigned char, std::__cxx11::basic_string<char, std::char_traits<char>, std::allocator<char> >)
                0x60011f40                I2C_switch::I2C_switch(unsigned char, std::__cxx11::basic_string<char, std::char_traits<char>, std::allocator<char> >)
 .text._ZN11IO_ExpanderC2EhNSt7__cxx1112basic_stringIcSt11char_traitsIcESaIcEEE
                0x60011f90       0x3e ./source/Devices.o
                0x60011f90                IO_Expander::IO_Expander(unsigned char, std::__cxx11::basic_string<char, std::char_traits<char>, std::allocator<char> >)
                0x60011f90                IO_Expander::IO_Expander(unsigned char, std::__cxx11::basic_string<char, std::char_traits<char>, std::allocator<char> >)
 .text.I2C_read_byte
                0x60011fce       0x88 ./source/common.o
                0x60011fce                I2C_read_byte
 .text.I2C_read_word
                0x60012056       0x88 ./source/common.o
                0x60012056                I2C_read_word
 .text._Znwj    0x600120de       0x18 ./source/cpp_config.o
                0x600120de                operator new(unsigned int)
 .text._ZdlPv   0x600120f6       0x16 ./source/cpp_config.o
                0x600120f6                operator delete(void*)
 .text._ZN9__gnu_cxx27__verbose_terminate_handlerEv
                0x6001210c        0x6 ./source/cpp_config.o
                0x6001210c                __gnu_cxx::__verbose_terminate_handler()
 .text._ZN4nodeC2EPP16monitored_devicehPPS_hPP6devicehNSt7__cxx1112basic_stringIcSt11char_traitsIcESaIcEEEaa
                0x60012112       0xa0 ./source/node.o
                0x60012112                node::node(monitored_device**, unsigned char, node**, unsigned char, device**, unsigned char, std::__cxx11::basic_string<char, std::char_traits<char>, std::allocator<char> >, signed char, signed char)
                0x60012112                node::node(monitored_device**, unsigned char, node**, unsigned char, device**, unsigned char, std::__cxx11::basic_string<char, std::char_traits<char>, std::allocator<char> >, signed char, signed char)
 .text._ZN4node18get_nof_datapointsEv
                0x600121b2       0x7c ./source/node.o
                0x600121b2                node::get_nof_datapoints()
 .text._ZN4node12set_subnodesEPPS_h
                0x6001222e       0x28 ./source/node.o
                0x6001222e                node::set_subnodes(node**, unsigned char)
 .text._ZN9base_nodeC2EP18_lpi2c_rtos_handleNSt7__cxx1112basic_stringIcSt11char_traitsIcESaIcEEE
                0x60012256       0x74 ./source/node.o
                0x60012256                base_node::base_node(_lpi2c_rtos_handle*, std::__cxx11::basic_string<char, std::char_traits<char>, std::allocator<char> >)
                0x60012256                base_node::base_node(_lpi2c_rtos_handle*, std::__cxx11::basic_string<char, std::char_traits<char>, std::allocator<char> >)
 .text.HardFault_Handler
                0x600122ca       0x2c ./source/semihost_hardfault.o
                0x600122ca                HardFault_Handler
 .text.LPI2C_RTOS_Transfer
                0x600122f6       0x76 ./drivers/freertos/fsl_lpi2c_freertos.o
                0x600122f6                LPI2C_RTOS_Transfer
 .text.CLOCK_IsPllBypassed
                0x6001236c       0x32 ./drivers/fsl_clock.o
 .text.CLOCK_IsPllEnabled
                0x6001239e       0x3c ./drivers/fsl_clock.o
 .text.CLOCK_GetPllBypassRefClk
                0x600123da       0x34 ./drivers/fsl_clock.o
 .text.CLOCK_EnableClock
                0x6001240e       0x1e ./drivers/fsl_gpio.o
 .text.GPIO_SetPinInterruptConfig
                0x6001242c       0x22 ./drivers/fsl_gpio.o
 .text.CLOCK_EnableClock
                0x6001244e       0x1e ./drivers/fsl_lpi2c.o
 .text.EnableIRQ
                0x6001246c       0x2c ./drivers/fsl_lpi2c.o
 .text.LPI2C_MasterReset
                0x60012498       0x20 ./drivers/fsl_lpi2c.o
 .text.LPI2C_MasterEnable
                0x600124b8       0x28 ./drivers/fsl_lpi2c.o
 .text.LPI2C_MasterGetStatusFlags
                0x600124e0       0x18 ./drivers/fsl_lpi2c.o
 .text.LPI2C_MasterClearStatusFlags
                0x600124f8       0x1c ./drivers/fsl_lpi2c.o
 .text.LPI2C_MasterEnableInterrupts
                0x60012514       0x22 ./drivers/fsl_lpi2c.o
 .text.LPI2C_MasterDisableInterrupts
                0x60012536       0x24 ./drivers/fsl_lpi2c.o
 .text.LPI2C_MasterSetWatermarks
                0x6001255a       0x2c ./drivers/fsl_lpi2c.o
 .text.LPI2C_MasterGetFifoCounts
                0x60012586       0x3e ./drivers/fsl_lpi2c.o
 .text.LPI2C_MasterCheckAndClearError
                0x600125c4       0x80 ./drivers/fsl_lpi2c.o
                0x600125c4                LPI2C_MasterCheckAndClearError
 .text.LPI2C_CheckForBusyBus
                0x60012644       0x38 ./drivers/fsl_lpi2c.o
                0x60012644                LPI2C_CheckForBusyBus
 .text.LPI2C_InitTransferStateMachine
                0x6001267c      0x138 ./drivers/fsl_lpi2c.o
 .text.LPI2C_MasterTransferHandleIRQ
                0x600127b4       0x6e ./drivers/fsl_lpi2c.o
                0x600127b4                LPI2C_MasterTransferHandleIRQ
 .text.SystemInitHook
                0x60012822        0xe ./device/system_MIMXRT1062.o
                0x60012822                SystemInitHook
 .text.GPT_ClearStatusFlags
                0x60012830       0x1e ./component/timer/gpt_adapter.o
 .text.GPT1_IRQHandler
                0x6001284e        0xe ./component/timer/gpt_adapter.o
                0x6001284e                GPT1_IRQHandler
 .text.GPT2_IRQHandler
                0x6001285c        0xe ./component/timer/gpt_adapter.o
                0x6001285c                GPT2_IRQHandler
 .text.GPIO_PortGetInterruptFlags
                0x6001286a       0x18 ./component/gpio/igpio_adapter.o
 .text.GPIO_PortClearInterruptFlags
                0x60012882       0x1c ./component/gpio/igpio_adapter.o
 .text.GPIO1_Combined_0_15_IRQHandler
                0x6001289e        0xe ./component/gpio/igpio_adapter.o
                0x6001289e                GPIO1_Combined_0_15_IRQHandler
 .text.GPIO1_Combined_16_31_IRQHandler
                0x600128ac        0xe ./component/gpio/igpio_adapter.o
                0x600128ac                GPIO1_Combined_16_31_IRQHandler
